S01E00004261737469616E5F6672656552544F532D54524143452E737265635F
S1130000004F0020615900005D5900005D59000057
S113001000000000000000000000000000000000DC
S1130020000000000000000000000000E5330000B4
S11300300000000000000000593400009D3400005E
S11300405D5900005D5900005D5900005D590000D4
S11300505D5900005D5900005D5900005D590000C4
S11300605D590000D10D0000E50D0000F90D000000
S11300700D0E000000000000000000005D590000AB
S11300805D5900005D5900005D5900005D59000094
S11300905D59000000000000000000005D590000F0
S11300A05D5900005D5900005D5900005D59000074
S11300B010B5064C2378002B07D1054B002B02D03A
S11300C0044800E000BF0123237010BD4804002051
S11300D000000000287D000008B5084B002B03D069
S11300E00748084900E000BF07480368002B03D015
S11300F0064B002B00D0984708BDC0460000000006
S1130100287D00004C040020287D00000000000031
S1130110002801D172B6FEE77047C046F0B55746D5
S11301204E464546E0B484B0544C7C44544BE358AA
S11301300293012302990B70514BE2589046BB2362
S11301409A46002546463378022B3DD0052B60D0D5
S1130150012B00D081E04B4BE3581D604A4B8022B9
S113016092045A61802212055A61484BE3581E6872
S1130170474BE3589847021C0095301C02212B1C66
S1130180444EA659B047444BE3581A68D169002934
S1130190FCD1516880239B020B4353603E4BE358D0
S11301A002930123029FBB71D1690029FCD13A4B10
S11301B0E3580293394BE35803930298191C032222
S11301C0374BE358984748E0364BE6585146317070
S11301D07170B170F170301C0421334BE3589847AF
S11301E02A4BE3581A689146294BE3589847021C56
S11301F00095484602212B1C264FE759B847264B49
S1130200E3580293181C311C0522284BE3589847E5
S113021023E0244BE658DD2333707370B370F3701E
S1130220301C0421204BE3589847184BE3581968B5
S11302308946174BE3589847021C0095484602210B
S11302402B1C144FE759B847134BE3580293181C5F
S1130250311C0522154BE3589847154BE6580123EA
S11302603370BFF35F8F62B6281C124BE358984774
S113027072B6BFF35F8F357064E7C046FA7B000047
S11302800C010000B001000000440041980100008E
S11302900001000084010000880100003C0000000F
S11302A018020000C8000000D00100009002000005
S11302B0B80000008C01000010B582B0254C7C44CD
S11302C072B6BFF35F8F244BE35801930023019A66
S11302D01370002801D172B6FEE7204BE35818785A
S11302E0013805282BD806F0B3F8092A032A03039A
S11302F01A4BE35801930123019A1370184BE358E6
S113030001221A60174BE358188817497944174B90
S1130310E3589847164B802292045A6180221205B2
S11303205A61144BE3580193181C0021124BE358F3
S11303309847124BE3581868114BE358984772B624
S1130340BFF35F8F044BE35801930023019A1370AA
S113035002B010BD667A0000B80000000C01000075
S1130360B0010000EC00000010670000C0020000B3
S1130370004400418801000044000000D80100004E
S113038068010000F0B589B0324C7C44324BE3582C
S11303909847012707AD6F700026AE702F701B20A1
S11303A0291C2E4BE358049398471920291C049DBB
S11303B0A8472B4BE35898472A4BE35898472A48B9
S11303C078442A4BE3589847294BE3581880294B23
S11303D0E358049302230093274BE35801930296B6
S11303E00396049825497944D22252000023244DCF
S11303F06559A847234BE3581F70BFF35F8F62B65C
S1130400214BE35800932148784402210022002321
S11304101F4D6559A8471F4BE75838601E4BE358DA
S113042000931E487844012100220123A8471C4B55
S1130430E35818603D681B4BE3589847021C00962C
S1130440281C01210023184D6559A847174BE35870
S11304509847FEE79A79000038000000F801000090
S1130460B801000078020000686600004401000042
S1130470EC00000010020000D80100004A660000F1
S113048070000000B8000000F001000030660000B9
S11304901800000098010000340200001C660000EF
S11304A00801000000010000840100000C020000AB
S11304B010B5031C4908402099420CD30024C91AE2
S11304C0601C80B28B4201D8041CF8E74020FF2C4A
S11304D001D81480002010BDF0B55F4656464D4645
S11304E04446F0B487B0061C0D1C049210AA107880
S11304F0674A7A44311C41434024A94200D9BAE0F6
S1130500002B4FD1634BD35802930021321C00239C
S1130510029CA04783462E1C0027002000210022B5
S113052000233F25AC460124A04602900391614676
S1130530203903D445468D40A94605E02020614674
S1130540441A4546E540A9464046614688408246ED
S1130550101C191C80185941021C0B1C5C464D468A
S11305602C4202D0424602430B1C9F420CD801D1BC
S1130570964209D8921BBB4150460299084349460A
S1130580039C2143029003916546013DAC46CED2C3
S1130590029803993D4B3C4A121A8B41110C1B04DF
S11305A0194365E00021012B62D16C0FED00AB46CD
S11305B0384BD3580293321C0023029EB047061CCA
S11305C00F1C00230125029603979A46A14657461D
S11305D0FFB2059700208046002200233F24271CF9
S11305E0203F03D4291CB940019104E02026371B85
S11305F0281CF8400190291CA1400091101C191CD2
S113060080185941021C0B1C5E46009F3E40B446B4
S1130610019E4F463E4067463E4302D02A1C024399
S11306200B1C039898420BD802D10299914207D827
S1130630029E039F921BBB41474600980743B8465E
S1130640013CCCD2414652468B1ADB08124CA342E1
S113065008D9059A0132D2B205920126B24457460E
S1130660082FB4D140240598082804D04103194325
S1130670049C21800024201C07B03CBC9046994671
S1130680A246AB46F0BDC0460000000001000000D9
S113069032780000CC000000FF1F0000C046C046B6
S11306A030B585B0051C124C7C44124B7B441B783E
S11306B0002B01D0002910D003A90D7013200E4B7C
S11306C0E358984713200D4BE35898470C4B7B4451
S11306D05D7001221A70002008E00A4B7B445A78AE
S11306E01D20551B6A1E95416D42284005B030BD42
S11306F07C760000C8FDFF1F90000000EC010000A4
S1130700A6FDFF1F98FDFF1F00B5284B984219D086
S113071003D8274B984207D03EE0264B98421FD07F
S1130720254B98422AD037E0002003293DD8081CE5
S113073005F08EFE02340406204836E0204834E0FA
S1130740204832E0002003292FD8081C05F080FE41
S113075002280406032028E01B4826E01B4824E066
S11307600020032921D8081C05F072FE021C04068F
S113077017481AE0174818E0174816E00020032924
S113078013D8081C05F064FE0210040613480CE09C
S113079013480AE0134808E0002006E0124804E089
S11307A0124802E0124800E0124800BD000C00426A
S11307B0000800420010004200140042030004003C
S11307C0030006000300070003001E0003001F00CF
S11307D00300080003000A0003000B0003001000DC
S11307E003001200030013000300050003000100CE
S11307F0030009000300110070B584B00F4A7A4465
S1130800694670CA70C112680A60031C009A824269
S11308100FD0019C844208D0029D854207D000205D
S1130820039E9E4207D1032004E0012002E002203F
S113083000E00020C0B204B070BDC0464A620000AF
S113084030B585B0884C7C44884BE3581B68002B3A
S113085000D006E1864BE3581A68D369002BFCD11B
S11308605168844B0B405360814BE358039300233E
S113087003998B71804BE35803931B78032B00D1AE
S113088073E0062B00D1BBE0012B00D0E9E07B4BE9
S1130890E3581B68002B0ED1794BE3589847794BEA
S11308A0E3581860784BE3581B68984203D3734BA2
S11308B0E35801221A60754BE3581A785B78934227
S11308C040D1724BE35803939B7893423AD1AA2ABE
S11308D038D16A4BE3581B68002B00D1C1E06C4B44
S11308E0E3581B68002B03D1694BE35801221A60BB
S11308F0614BE35803930223039A1370654BE35847
S11309001868654BE358984701280CD1634BE358AA
S1130910188863497944634BE35898478022520509
S1130920614B1A609DE0544BE35803930123039DEC
S11309302B705A4BE35818885C497944594BE35857
S113094098478EE04C4BE3580393012303990B70B3
S1130950524BE358188856497944524BE358984708
S113096080229204534B9A617BE0484BE3580393F3
S1130970181C0421504BE3589847002835D03E4BAF
S1130980E35803930523039A137080221205494BFD
S11309909A614A4BE3581D68394BE3589847021C47
S11309A000230093281C0721454D6559A847394B5E
S11309B0E3581868384BE358984701280CD1374B53
S11309C0E35818883F497944364BE35898478022C6
S11309D05205354B1A6044E0304BE35818883A49C5
S11309E07944304BE35898473BE080229204314BE2
S11309F09A61214BE35803930123039C237030E055
S1130A00224BE3580393181C04212B4BE3589847BB
S1130A10002814D0184BE35803930123039D2B7033
S1130A20264BE3581D68164BE3589847021C0023D5
S1130A300093281C0721224D6559A84711E0174B44
S1130A40E358188821497944164BE3589847802283
S1130A509204184B9A61084BE358039301230399BA
S1130A600B7005B030BDC046DE740000B00100005C
S1130A7088010000FFFFFDFF0C01000000000000E2
S1130A8040010000480000003C0100003C00000060
S1130A9014010000D8010000B0000000EC000000C8
S1130AA044610000C002000004ED00E02A6100007F
S1130AB02861000000440041680200009801000021
S1130AC08401000092600000846000003A6000002D
S1130AD030B585B03A4C7C443A4BE35802931B78CA
S1130AE0022B02D0052B35D068E0364BE358029335
S1130AF0032302990B70344BE3581D68334BE358BE
S1130B009847021C00230093281C0721304D655987
S1130B10A847304BE3581B68DA69002AFCD15968AE
S1130B20802292020A435A602A4AA258029201225F
S1130B30029DAA71DA69002AFCD1264BE35802937C
S1130B40254BE35803930298191C0522234BE358C1
S1130B50984733E01B4BE3580293062302990B702A
S1130B60194BE3581D68194BE3589847021C00239E
S1130B700093281C0721164D6559A847154BE358C7
S1130B801B68DA69002AFCD15968802292020A4360
S1130B905A60104AA25802920122029DAA71DA698F
S1130BA0002AFCD10B4BE35802930B4BE3580393FD
S1130BB00298191C0522094BE358984705B030BD2B
S1130BC04E7200000C01000098010000400100007A
S1130BD084010000880100003C00000018020000AD
S1130BE0F0B593B0314D7D448023DB05029300239F
S1130BF002AA536000219372D37201242420145456
S1130C0025201454262013542720135493622C2097
S1130C1013542D201354536113820020D07611767F
S1130C201177132090765177E121490211621381E3
S1130C30547680235B03D3601D4B13631D4B5363B6
S1130C4001235B429363D3631B4BEF58381C1B494E
S1130C501B4BEB5898473E68301C1A4BEB5898478F
S1130C601F2318408440184B1C603A68D369002B3A
S1130C70FCD132680223134333600F4BEC58201C21
S1130C80124979440122124BEE58B0473125625D76
S1130C90022313436355201C0E4979440022B047B4
S1130CA0625D01231343635513B0F0BD3E71000030
S1130CB00200160002001700880100000014004220
S1130CC0A00100008400000000E100E0BBFBFFFF86
S1130CD01000000033FEFFFF30B500290CD0031CC8
S1130CE0421C4C1EE4B2151900221C781219D2B20F
S1130CF00133AB42F9D100E0002255231A4342717B
S1130D00405C821A5042504130BDC04610B5421872
S1130D100023137000290BD0031C01300139C9B220
S1130D2040181C7811786118117001338342F8D18E
S1130D30117855230B43137010BDC0467047C0464D
S1130D4030B50F4A7A440F4B7B441B78002B10D1EB
S1130D500D4B7B440D4D7D445D600D4C12590024B8
S1130D6014609D605460DD6094601D61D460012254
S1130D701A708000074B7B441818416030BDC04690
S1130D80E06F000044F7FF1F3AF7FF1FE3FFFFFF88
S1130D901801000016F7FF1F70B584B0061C084C3C
S1130DA07C4403AD281C074979440422064BE358CC
S1130DB09847301C054BE3589847285604B070BD3B
S1130DC0846F0000E45C00006400000088020000FE
S1130DD008B5034B7B445B680020984708BDC046B8
S1130DE0B8F6FF1F08B5034B7B449B680120984766
S1130DF008BDC046A4F6FF1F08B5034B7B44DB685F
S1130E000220984708BDC04690F6FF1F08B5034B63
S1130E107B441B690320984708BDC0467CF6FF1F2E
S1130E20F0B55F4656464D464446F0B49BB0061CAA
S1130E300C1C0892C64D7D4409953160081CC54BB5
S1130E40EB589847021C23680520DF0700D577E19B
S1130E5023681C20990700D572E1BF4B186A951CC2
S1130E600127391CA940014319622D23089D1F1C29
S1130E70EB5C19A90B701432D2B29146101CB74B1B
S1130E80099DEB5898474846B54BEB589847089D41
S1130E90E85D0021B34B099DEB589847089DEB7A18
S1130EA073712423EB5CB3712523EB5CF371EB7E4C
S1130EB033722B7F73723768B946381CA54B099D72
S1130EC0EB589847143000226B464E331A80089D25
S1130ED02D8AA8468023DB019D421CD08023DB01A0
S1130EE09D4204D880239B019D420ED007E0C0237D
S1130EF0DB019D420CD080231B029D4202D01027AF
S1130F0000250AE00327002507E01027012504E057
S1130F100827012501E008270025089909680A9196
S1130F20089AD2680C92089B5B690D930899097E14
S1130F300E912623089AD35C9B4653689A46002B4D
S1130F4017D080235B059A453CD12723D35C002B23
S1130F503CD1156AC0B2844B099AD3589847011CF6
S1130F60281C6A464E32814B099DEB589847031C56
S1130F7029E027230899CB5C002B0FD00A6A07923B
S1130F808B6A06930097101C191C6A464E322B1C60
S1130F90774D099F7F59B847031C14E00899096AE3
S1130FA01091C0B2704B099AD3589847011C00970E
S1130FB010986A464E322B1C6D4D099F7F59B847D5
S1130FC0031C00E00023181E00D0B9E0089D6B7ECE
S1130FD0002B02D0AB7E4F46BB733268089F099D3D
S1130FE0D369002BFCD1089709956B464E331B88B7
S1130FF0484683810C990A9D29430D9F39435046E5
S11310000143424611430E9D2B0219435F467B0761
S113101019432723089DEB5C002B01D104231943BA
S1131020089D287F40026B7E9B0218436B7F1B0246
S113103018432423EB5C5B0418432523EB5C1B045B
S11310401843EB7A18432B89FF2B04D080225204D7
S11310501143184306E0089DEB7E002B02D0802349
S1131060DB0419432C23089DEB5C002B03D1414B7B
S11310709B789F0701D5802319433268089F099DF7
S1131080D369002BFCD1089709954A465060326811
S1131090D369002BFCD1089709954B46196080222F
S11310A018AB1A7000225A70DA709A703D6B14955E
S11310B07F6B15970898806B16900899C96B1791E8
S11310C0002718AA099DA046141CF9B2BB0014AA53
S11310D09858002803D14046274BEB589847431CA7
S11310E006D02070000CC0B2211C244BEB5898474A
S11310F00137042FE9D10023F36033617361B361D5
S1131100F3613362B36273620022F385B3853023E3
S1131110F2543123F2543223F2543323F25430681C
S11311200C4BEB589847041C154BEB580A93191CAD
S1131130144BEB589847144BEB58A400E65000208E
S11311401BB03CBC90469946A246AB46F0BDC04697
S1131150EE6E0000880200000004004090000000D1
S1131160EC010000E801000054010000E000000070
S11311702400000000200041AC02000094020000A2
S1131180FC0100002801000018010000F0B54746EA
S113119080B482B0051C0F1C90460F4C7C4406683A
S11311A00E4BE3589847EB8D9BB2002B04D00C4BAD
S11311B0E358984705200BE04346EB85084BE3587A
S11311C09847AF6205223323EA540123B375002004
S11311D002B004BC9046F0BD886B0000A80000007B
S11311E00C000000F0B5474680B482B0041C0F1C0C
S11311F09046144D7D440668134BEB589847A38DD5
S11312009BB2002B04D0114BEB589847052015E0F6
S11312104346A3850D4BEB5898476762052232235A
S1131220E2540423B375237A002B01D02023B37531
S1131230637A0020002B01D00823B37502B004BCEC
S11312409046F0BD306B0000A80000000C000000C8
S1131250931C9B00C3185960012393401A1C30232C
S1131260C15C0A43C254704730B583B0074C7C4418
S11312701723002A07D0C5791C23002D03D0044B63
S1131280E3589847031C181C03B030BDB66A00002D
S1131290C000000030B583B0074C7C441723002AFB
S11312A007D085791C23002D03D0044BE3589847BD
S11312B0031C181C03B030BD8A6A0000D80000006B
S11312C00368002902D0012905D008E004221A7617
S11312D00023838503E002221A760023C385704726
S11312E0F0B583B0664B7B44664A9A5880008558B3
S11312F02C68E369002BFCD1237EA67D1E4031239C
S1131300EB5C3022AF5C1F40F10720D5EB8D9BB224
S1131310002B1AD0AB6A1A78D2B2591CA962697927
S1131320012904D1597809020A430233AB62D30577
S1131330DB0D2385EB8D013B9BB2EB85002B06D1A6
S1131340012323750223A37501E001232375B2074A
S113135009D50223237500223323EA54FB0702D55F
S1131360281CE968884772076AD5AB8D9BB2002BAD
S113137064D0638BDBB2190702D43F22134001E02F
S113138037221340002B37D09A0707D51A2232236D
S1131390EA54628B02231343638327E0590707D57A
S11313A01E223223EA54628B0423134363831DE019
S11313B0DA0707D513223223EA54628B012313433D
S11313C0638313E0D90607D542223223EA54628BA1
S11313D010231343638309E020221A4206D04122DA
S11313E03223EA54628B2023134363837A0727D57D
S11313F0281C6B69984723E0228DD205D20DD3B205
S1131400696A0B706B6A591C69626979012904D194
S1131410120A5A706B6A01336B62AB8D013B9BB24B
S1131420AB85002B0CD10423237500223223EA540C
S1131430BA0705D5281C2B69984701E004232375B6
S1131440F10607D5102323752376FA0602D5281C46
S1131450EB699847B10607D52023237523763A070D
S113146002D5281CAB699847310707D50823237593
S11314702376BA0602D52B6A281C984703B0F0BD20
S11314803E6A00001801000010B582B0011C164C21
S11314907C44002805D115487844154BE3589847F7
S11314A020E0144BE3581B68002B05D11248784404
S11314B00F4BE358984715E000221A630F4AA258CD
S11314C01268002A0ED10D4AA25810600C4A9818CE
S11314D050220C4BE3589847064BE3581A680121F5
S11314E0094BD15002B010BD94680000F8550000BB
S11314F020010000280000000A56000080020000BD
S1131500DC07000064010000D4070000F0B55F466A
S113151056464D464446F0B483B0514D7D44514B3C
S11315201A68514BEB581A60504BEE58504BEC581C
S11315303460BF235B019B46201C00211A1C4D4BC9
S1131540EB58984701218A4661700223A370032354
S1131550E37070232371712399466371722290465C
S1131560A2717327E771F02323720F21494261723C
S11315700E225242A2720D235B42E3723E4BA381C0
S11315800423A37359462161FA239B00A3613B4BB7
S113159063653B4BEB58984730683A4A3A4BC25024
S11315A0C82292008523DB00C250384B5246C250F9
S11315B0FE229205FA23DB00C250354AFB23DB00EE
S11315C0C250344BC018344979445022334BEB5841
S11315D0984733683249334A99500A21324A995418
S11315E00B21324A99540C21314A99540D21314A24
S11315F09954314A49469954304A41469954304A9B
S11316009F5474212F4A99542F4A0F2149429954C7
S11316102E4A0E21494299542D4A0D21494299548A
S1131620F4212C4A99542C4BEB58984731680B7889
S1131630002B08D10B1C0C311A7801321A700133BB
S11316408B42F9D104E025487844254BEB58984760
S113165003B03CBC90469946A246AB46F0BDC0469A
S11316600868000018E000E0840200002800000080
S1131670BC000000AC010000A11A0000F0F0F0F082
S11316808C020000F1F1F1F1240400002C040000AC
S1131690F2F2F2F2DC0700002455000064010000BD
S11316A0F3F3F3F32C080000D4170000D51700005F
S11316B0D6170000D7170000D8170000D91700006C
S11316C0DA170000DB170000DC170000DD1700004C
S11316D0DE170000DF17000008020000B854000005
S11316E02001000000B583B00D4A7A440D4BD35855
S11316F01B68196B002910D0D9690B48814206D99F
S11317000A4878440A4BD3589847002006E08800DA
S1131710832212018018181800E0002003B000BDD5
S11317203A66000028000000E70300002A54000085
S11317302001000010B582B0154B7B44062907D95F
S113174014487844144A9A580192904700201CE0A7
S1131750002807D0114A9A58126854186034247922
S1131760844207D20E4878440B4A9A580192904713
S113177000200AE0531870331B79013858433C3178
S1131780490052189388C01880B202B010BDC046F8
S1131790EA65000012540000200100002800000047
S11317A02E54000070B582B0564C7C44062806D9ED
S11317B055487844554BE35898470020A0E0544BD3
S11317C0E25843009B5A534979440B60D21838328B
S11317D01278002A0AD14E4AA258D5183835591C15
S11317E0061D76009219D288891A2970484AA2588F
S11317F0D11838310978051C0C356D0052199288BE
S11318009A4207D2444BE3589847404BE3589847D1
S1131810002075E001339BB23D4AA2584500AB520B
S1131820051D6D005519ED885B1B051C14356D00F5
S113183052195288934207DD354AA25801922A1C54
S1131840DBB2019DAA185380062858D804F000FE84
S113185004111F2D573B4900CA08304BE358072495
S11318600C400120A040041C985CA0439854081C20
S113187046E0081C0B30C210284BE35807242040D4
S113188001248440985CA0439854081C38E0081C48
S11318901630C210214BE358072420400124844011
S11318A0985CA0439854081C2AE0081C2130C210FC
S11318B01A4BE3580724204001248440985CA04339
S11318C09854081C1CE0081C3130C210134BE35818
S11318D00724204001248440985CA0439854081CA9
S11318E00EE0081C3430C2100C4BE358072420408F
S11318F001248440985CA0439854081C00E0081C10
S113190002B070BD7A65000022540000200100007E
S1131910B8020000E0ECFF1F3000000024010000CA
S113192070B582B01C4B7B44062806D91B4878440A
S11319301B4A9A58019290472BE0002907D0194A74
S11319409A5812681218603212798A4206D21648DE
S11319507844134A9A58019290471AE0134A9A58C5
S11319604400A45A651E061D76009219D288954239
S113197006DA0F4878440A4A9A580192904708E0D8
S1131980013CA4B2094A9B584000C4521C19383483
S1131990217002B070BDC046FE630000EA52000030
S11319A020010000280000000C530000B8020000D1
S11319B02853000070B582B0051C161C214C7C44D1
S11319C0002A05D120487844204BE358984737E053
S11319D0062805D91E4878441C4BE35898472FE045
S11319E0002905D11B487844184BE358984727E051
S11319F0194BE3581B681B1860331B798B4206D2C2
S1131A00164BE3589847114BE358984718E0081CC5
S1131A10291C134BE3589847124B7B449880124B74
S1131A20E3581B68002B0BD10B4BE3581B681818A9
S1131A308C305B1968331A79311C0C4BE358984786
S1131A4002B070BD66630000065300002001000070
S1131A50265300004253000028000000300000001C
S1131A60640200008EEAFF1F80020000640100008F
S1131A70F0B5474680B482B030497944884600289E
S1131A8004D0061C0024002806D152E02C487844D7
S1131A902C4BCB5898474CE02B4BCF583B68D8691C
S1131AA021188D005A198320000112181278101C75
S1131AB06730C0B20E2811D86832D2B25118986972
S1131AC0814233D201329200832109016D185819E1
S1131AD000211E4B4546EB58984727E0012A25D1A3
S1131AE00131986981420DD2832109016D185B1976
S1131AF000221A705A709A70DA701A715A719A71B7
S1131B00DA7113E0832212019B1800221A705A70B2
S1131B109A70DA700C4B4046C358832109016D1842
S1131B201B685D192A706A70AA70EA700134B442A5
S1131B30B4D302B004BC9046F0BDC046AA62000013
S1131B40C65200002001000028000000AC01000083
S1131B5000B583B00D4A7A440D4BD3581B68196BFA
S1131B60002910D0596901315961D9690131D9610C
S1131B700848814203D9012119620021D961012059
S1131B80054BD358984703B000BDC046CE61000052
S1131B9028000000E70300001C020000F0B54746DF
S1131BA080B484B0051C414C7C4400230393FF287B
S1131BB009D03F4B984206D03E4878443E4BE35808
S1131BC0984700206DE03D4BE3581B68586A002895
S1131BD00ED13B4AA2583B4909681268914207D08A
S1131BE0394A11680131FA2292004A4352085A6272
S1131BF003A8364BE3589847039B354A7A449168C7
S1131C005E1A93602D4AA25817687A6A9046002A91
S1131C1022D0964210D92F4BE358301C111C984700
S1131C20F96A0818F8622C4BE358301C414698476F
S1131C30BA6A5118B96202E0B86A8319BB621F4BD1
S1131C40E3581B68996A5A6A914206D3D86A0130EC
S1131C50D8628A1A9A6200E0BB62AE421FD91F4B57
S1131C60E358984700281AD0114B9D4206D1A92366
S1131C700370330C4380002343700DE0FF2D06D125
S1131C80A8230370330A4380330E437004E01448DE
S1131C907844094BE3589847124BE3589847301C53
S1131CA0284004B004BC9046F0BDC0467C610000EE
S1131CB0FFFF0000F2510000200100002800000096
S1131CC08402000018E000E014E000E0540000008A
S1131CD0ACE8FF1FC001000054020000E400000053
S1131CE05C51000044020000F0B55F4656464D4684
S1131CF04446F0B483B083469246314878448146E2
S1131D00304A82581668EA229200891849008C5B8E
S1131D105846002807D12C4878442C4B4A46D358BF
S1131D209847002044E05046002802D0201E3FD0AF
S1131D3007E027487844254B4A46D3589847002063
S1131D4036E0180A8046FF271F40251C3319214A14
S1131D509B181B78BB421AD133191F481B181B78D8
S1131D60434514D1201D331853448622D2009B18B6
S1131D701B78002B0BD18018301859465246174B4C
S1131D809C464B4663441B68984700280DD0751940
S1131D9013482B181C7824028622D200AD182B7805
S1131DA01C19A4B2002CD0D101E0201C00E0201C9E
S1131DB003B03CBC90469946A246AB46F0BDC04633
S1131DC02860000028000000F850000020010000F6
S1131DD018510000320400003304000058010000D0
S1131DE031040000F0B55F4656464D464446F0B413
S1131DF083B0061C151C314C7C44002806D13048A5
S1131E007844304BE3589847002050E0002A06D12C
S1131E102D4878442B4BE3589847002047E02B4A41
S1131E20A25812682A481758BA4604208346D34455
S1131E30A946D9442748814506D927487844214BE7
S1131E40E3589847002032E0EA27BF00C919490047
S1131E508846885A8146514650188627FF004946CD
S1131E6039541E4F4946090A39541D4F3B541D49E4
S1131E7040181B0A03708623DB001F1C5F44D01923
S1131E80311C2A1C184BE3589847104BE3581B6825
S1131E900F4A995868181C18144EA4190026267065
S1131EA04746F95205309850401B053880B203B0BC
S1131EB03CBC90469946A246AB46F0BD2C5F000060
S1131EC08450000020010000AE50000028000000F3
S1131ED02C0400001F030000BC500000310400006B
S1131EE032040000330400006401000034040000E4
S1131EF030B583B0184B7B44002806D1174878448A
S1131F00174A9A580192904724E0002906D11548AF
S1131F107844134A9A58019290471BE0002A06D14C
S1131F20114878440E4A9A580192904712E0047876
S1131F30002C09D0002501232D190133C418013CBC
S1131F402478002CF8D101E0002501233F2005402E
S1131F500D70137003B030BD2E5E00003A500000C7
S1131F60200100005C5000007A500000F0B54F469C
S1131F704646C0B485B0051C8846224C7C440022E9
S1131F806B46DA736B469A73002806D11E48784470
S1131F901E4BE358984700202EE06F460E37391C3D
S1131FA06E460F36321C1A4BE3589847194BE358C8
S1131FB098478146184BE3581A6801321A603978F9
S1131FC03278281C4346154EA659B047061E09D13F
S1131FD06B46997B6B46DA7B281C4346104D65594A
S1131FE0A847061C0C4BE3581A68013A1A60484685
S1131FF00C4BE3589847301C05B00CBC90469946EE
S1132000F0BDC046A85D0000425000002001000061
S11320107801000074020000C40200000402000001
S1132020140200003401000070B51F4B7B441F4AAA
S11320309A581268012A06D1002834D01C4A9B58A9
S11320401B6803602FE01B4A146801341A4A1168A4
S1132050611A1A4A7A441568194A9A581268D6437A
S1132060EE4202D5954207D1151C164A7A445268AD
S1132070914292415242AA18002810D06408251CAB
S1132080554305600B4C2468013401263440544305
S1132090641864086419046005481B581C600A4BE2
S11320A07B441A60596070BDF85C0000E8000000D1
S11320B09800000014E000E018E000E008E5FF1FCD
S11320C028020000F0E4FF1FBCE4FF1FF0B583B05A
S11320D0051C2A4C7C4400284ED0294B7B441B68A9
S11320E0002B49D00F2805D926487844264BE358BD
S11320F0984741E0254BE3581B68002B05D0244842
S11321007844214BE358984736E0224BE3589847EC
S1132110061C1E4BE3581A6801321A601E4BE35822
S11321201B681B6B002B1ED02B1C21331B4AA2588F
S11321300192DA1001998A5C07210B401A41131CA1
S1132140DA0710D41648174BE3589847071C164B68
S1132150E3589847002806D0022202704780457051
S1132160124BE3589847094BE3581A68013A1A602E
S1132170301C0F4BE358984703B0F0BD505C00008F
S113218024DFFF1F164F000020010000C4020000DE
S1132190404F0000740200002800000024010000E9
S11321A0FFFF000080010000E40000004402000082
S11321B034010000F0B5474680B482B0061C0D1C03
S11321C0171C3F4C7C44FE2805D93E4878443E4BBE
S11321D0E35898476FE0062905D93C4878443A4BC0
S11321E0E358984767E03A4BE3581B685B18603341
S11321F01B79934205D237487844334BE3589847C8
S113220059E0354BE3581B68002B05D0334878441C
S11322102D4BE35898474EE0314BE35801931B781C
S1132220002B48D02F4BE358984780462A4BE3585D
S11322301A6801321A60264BE3581B681B6B002B8B
S113224030D0294BE35801931B785BB2002B05D1A6
S1132250264BE35801931B78002B23D1FFB2281C93
S1132260391C234BE358984700281BD1214BE358D2
S11322700193F3080199CA5C072333401A41131CE4
S1132280DA070FD41C481D4BE3589847051C1C4B18
S1132290E3589847002805D0458006704770194BCD
S11322A0E35898470C4BE3581A68013A1A604046C1
S11322B0154BE358984702B004BC9046F0BDC046A5
S11322C0605B0000E44E000020010000084F0000A5
S11322D028000000304F0000C40200005E4F0000E0
S11322E02C00000074020000C8020000300200004C
S11322F0A401000098020000FFFF0000800100001C
S1132300E40000004402000034010000F0B5574628
S11323104E464546E0B482B0061C0D1C171C984678
S11323204A4C7C44FE2805D949487844494BE35833
S1132330984785E0062905D947487844454BE35832
S113234098477DE0454BE258126852186032127982
S1132350BA4205D2424878443E4BE35898476FE06E
S1132360404BE3581B68002B05D03F487844394B59
S1132370E358984764E03D4BE35898478146394B0E
S1132380E3581A6801321A60344BE3581B681B6B1C
S1132390002B4CD0364BE35801931B78002B46D0CE
S11323A0344BE35801931B78002B06D0324BE3588F
S11323B001931B785BB2002B39D0FFB2281C391C67
S11323C02E4BE3589847002831D12D4BE358019305
S11323D0F3080199CA5C072333401A41131CDA0736
S11323E025D4FF20274BE358984782464546FF2DC6
S11323F010D9254BE3589847002808D001230370CF
S11324002B0A43702B0C4380204BE3589847FF253D
S113241043461D401C4BE3589847002807D05146BB
S1132420C170067047708570184BE35898470D4B80
S1132430E3581A68013A1A604846154BE35898471E
S113244002B01CBC90469946A246F0BD025A000058
S11324507A4E000020010000A24E00002800000077
S1132460D24E0000C40200000C4F000074020000B1
S11324702C00000030020000C8020000A40100008B
S11324809802000080010000E40000004402000003
S113249034010000F0B54F464646C0B483B0051C75
S11324A00E1C3C4C7C44FE2805D93B4878443B4BED
S11324B0E358984768E03A4BE3581B68002B05D073
S11324C038487844354BE35898475DE0364BE35839
S11324D09847071C324BE3581A6801321A60334B91
S11324E0E3581B681B6B002B45D0314BE358019319
S11324F01B78002B3FD02F4BE35801931B78002B04
S113250006D02D4BE35801931B785BB2002B32D0DD
S11325102A4BE3580193EB080199CA5C07232B402B
S11325201A41131CDA0726D4FF20254BE358984799
S11325308146B046234B9E4210D9234BE35898471B
S1132540002808D00123037000234370330C438018
S11325501E4BE35898473604360CB0461A4BE358E2
S11325609847002807D04B46437005704146418088
S1132570164BE35898470A4BE3581A68013A1A6015
S1132580381C134BE358984703B00CBC904699464B
S1132590F0BDC04680580000044E00002001000039
S11325A0C4020000424E0000740200002800000033
S11325B02C00000030020000C80200009802000055
S11325C080010000FFFF0000E4000000440200005E
S11325D034010000F0B583B0071C0D1C194C7C4479
S11325E0062905D918487844184BE358984726E03B
S11325F0174BE3581E68731860331B79834205D266
S113260014487844114BE358984718E0336B002B77
S113261015D0114BE358984730188C3000210F4BDC
S1132620E3589847061C0E4BE3589847002806D0F9
S113263008350570477046800A4BE358984703B045
S1132640F0BDC04646570000564D00002001000072
S1132650280000008A4D000064020000F000000021
S1132660E400000044020000F0B583B0061C0D1C19
S1132670244C7C44062905D923487844234BE35849
S113268098473DE0224BE3581B685A186032127990
S1132690824205D21F4878441C4BE35898472FE0E8
S11326A01B6B002B2CD01C4BE3589847071E27D0DC
S11326B0032D10D1301C0321184BE3589847144BB9
S11326C0E25813685A19683212791B189B18893317
S11326D01B797B700FE0301C291C104BE358984782
S11326E00B4BE25813685A19683212791B189B185D
S11326F088331B797B7010353D70094BE35898473C
S113270003B0F0BDB25600005E4D00002001000091
S1132710280000009A4D0000E4000000640200005C
S11327204402000070B582B0051C161C144C7C4495
S1132730062805D913487844134BE35898471CE0FE
S1132740124BE3581B681B1860331B798B4205D26C
S11327500F4878440C4BE35898470EE0081C291C9A
S11327600C4BE3589847094BE25813685D196835D8
S11327702A791B189B1889331E7102B070BDC0469C
S1132780F65500004A4D000020010000280000001A
S1132790764D00006402000030B583B0051C154C72
S11327A07C44062806D914487844144BE3589847C7
S11327B000201DE0124BE3581B681B1860331B7983
S11327C08B4206D20F4878440C4BE35898470020BC
S11327D00EE0081C291C0C4BE3589847084BE258A0
S11327E013685D1968352A791B189B188933187981
S11327F003B030BD84550000604D0000200100008E
S1132800280000008A4D00006402000070B582B008
S1132810051C161C144C7C44062805D9134878441E
S1132820134BE35898471CE0124BE3581B681B18E2
S113283060331B798B4205D20F4878440C4BE35824
S113284098470EE0081C291C0C4BE3589847094B89
S1132850E25813685D1968352A791B189B18883368
S11328601E7102B070BDC0460E550000724D0000CE
S113287020010000280000009A4D000064020000BE
S113288030B583B0051C154C7C44062806D9144881
S11328907844144BE358984700201DE0124BE3584A
S11328A01B681B1860331B798B4206D20F4878448F
S11328B00C4BE358984700200EE0081C291C0C4BD5
S11328C0E3589847084BE25813685D1968352A792C
S11328D01B189B188833187903B030BD9C54000032
S11328E0804D00002001000028000000A64D0000DB
S11328F064020000F0B583B0051C344C7C440F28FE
S113290005D933487844334BE35898475CE0031CBB
S11329102133314AA2580192DA1001998A5C0721C5
S11329200B401A41131CDA0707D52C4BE3580193CB
S1132930012301990B70012106E0284BE358019310
S11329400023019A13700021254BE3581A680132C1
S11329501A60244BE35801931B78AB422FD0224BCF
S1132960E3581B681B6B002B29D0002927D11F4873
S11329701F4BE3589847071C1A4BE3581D701D4B17
S1132980E3589847061E1AD0164BE35819780320CB
S1132990194BE3589847012802D10723337001E00B
S11329A006233370778075700E4BE3581978032033
S11329B00122124BE3589847114BE3589847084BB0
S11329C0E3581A68013A1A6003B0F0BD28540000B5
S11329D08C4D0000200100002401000030020000A2
S11329E0C40200002C00000028000000FFFF0000CB
S11329F080010000E40000005C010000A40200006B
S1132A004402000010B582B00F4C7C440F4BE358D5
S1132A101A686723D35C834205D20D4878440D4B72
S1132A20E35898470DE003210B4BE3589847074BB5
S1132A30E25813686F229A5C1B189B188833002293
S1132A401A7102B010BDC0461A53000028000000DD
S1132A50B84C0000200100006402000000B583B0FF
S1132A60044B7B44044A9A5801929047C0B203B085
S1132A7000BDC046C25200009400000000B583B0FF
S1132A80034B7B44034A9A580192904703B000BD1C
S1132A90A2520000C801000000B583B0044B7B447F
S1132AA0044A9A5801929047C0B203B000BDC04690
S1132AB086520000A801000000B583B0034B7B449C
S1132AC0034A9A580192904703B000BD6652000031
S1132AD0DC01000010B5294B7B44294A9B581B6834
S1132AE00722DA650A2264215A5465215A54662160
S1132AF05A540F2267215A54052068215854022140
S1132B00692019546A2019546C215A546D215A545D
S1132B106E215A546F215A5470215A5471215A54B7
S1132B2072215A54102274215A5475215A54762110
S1132B305A54132177201954112478201C547920D5
S1132B401A547A22995400217C229952A0217E227F
S1132B509952490080229952F021490082229952C7
S1132B6008498422995208498622995207498822A1
S1132B709952E62292001A6610BDC0464C520000DB
S1132B8028000000FD020000520300007203000050
S1132B90134B7B44134A9B580022DA811A800A2281
S1132BA01A825A8014225A829A801E229A82DA80C9
S1132BB02D22DA821A8132221A835A8134225A83CC
S1132BC09A8109229A831322DA831D221A842C22E1
S1132BD05A8431229A843322DA8435221A85704742
S1132BE092510000B802000000B5062817D803F07F
S1132BF02FFC0D070A04191013000C48784413E045
S1132C000B48784410E00B4878440DE00A487844B7
S1132C100AE00A48784407E00948784404E009488F
S1132C20784401E00848784400BDC046204B0000C9
S1132C308A4B0000C84B0000FE4B0000344C0000DF
S1132C406A4C0000A84C00002E4B000000B583B075
S1132C50384B7B44062806D937487844374A9A5873
S1132C609047012063E0364A9A581268121860327D
S1132C7012798A4206D233487844304A9A589047A7
S1132C80012054E006284CD803F0E2FB28101C0471
S1132C904B333F0021310720084001228240101CA1
S1132CA0294A9A58C910535C184040E00B31072058
S1132CB0084001228240101C234A9A58C910535CD0
S1132CC0184034E016310720084001228240101CCD
S1132CD01D4A9A58C910535C184028E00720084040
S1132CE001228240101C184A9A58C908535C1840A3
S1132CF01DE031310720084001228240101C124A95
S1132D009A58C910535C184011E034310720084028
S1132D1001228240101C0C4A9A58C910535C184076
S1132D2005E00A487844054A9A589047012003B0C0
S1132D3000BDC046D25000009E4C0000200100009F
S1132D4028000000C84C0000240100005C4C000076
S1132D5010B582B0031C134C7C44002806D08807AD
S1132D6012D0232919D80024032008E00E487844FF
S1132D700E4BE3589847002012E024290FD05C54EE
S1132D800131C9B20842F8D10C1DFF20242C07DC04
S1132D9088088000C250E0B202E0FF2000E0FF207B
S1132DA002B010BDCC4F0000464C000020010000D2
S1132DB010B582B0031C134C7C44002806D0C8070D
S1132DC012D5232919D80024012008E00E4878449C
S1132DD00E4BE3589847002012E024290FD05C548E
S1132DE00131C9B20842F8D18C1CFF20242C07DC25
S1132DF048084000C252E0B202E0FF2000E0FF2099
S1132E0002B010BD6C4F0000124C00002001000005
S1132E1000B583B0034B7B44034A9A580192904710
S1132E2003B000BD0E4F00001C01000000B583B0CC
S1132E30094B7B44002807D108487844084A9A582B
S1132E4001929047002004E00021064A9A5801921A
S1132E50904703B000BDC046F24E0000DE4D0000B6
S1132E6020010000F0000000F0B55F4656464D46D4
S1132E704446F0B493B002900D1C141CB84E7E442A
S1132E80002905D1B7487844B74BF358984702E274
S1132E90B64BF35898478046B54BF3581A6801323D
S1132EA01A60B44BF3581B681B6B002B00D1E9E18B
S1132EB0B14BF35800931B78002B07D0AF4BF3585A
S1132EC000931B785BB2002B00D1DBE1AC4BF358D1
S1132ED000931B78002B00D1D4E1AA2209AB1A700D
S1132EE0A2460427002000249B46A64A7A44049262
S1132EF0331C061C994662E1252B00D053E10136B0
S1132F00F6B20F2E07D94E469F487844964BF35895
S1132F10984700275EE10134A4B201E00134A4B271
S1132F20285D031C303B092BF8D92328F6D02E2822
S1132F30F4D0231C002800D145E15838202800D9BA
S1132F4031E103F08FFA2F003001300130013001FC
S1132F5030013001300130013001E3003001210043
S1132F60300150003001C0003001300130018800D0
S1132F703001300130013001300130013D003001B9
S1132F802F00300130012F00534604330093504684
S1132F9002685846391C7D4B7B449847071C0099AE
S1132FA08A4600E152460432009253461A68584653
S1132FB0391C774B7B449847071C00988246F2E003
S1132FC051460431009152461068724B4946CB5821
S1132FD09847021C5846391C6F4B7B449847071C82
S1132FE0009A9246DFE053460733072293430820B2
S1132FF0C018824619685A6800910192BA070ED027
S1133000232F21D800220323584601E0242F1DD06A
S1133010C1190A700137FFB23B42F7D183463B1D09
S1133020242B16DCFF239B003B4012A8C318243B2F
S113303003935A4B4946CB58009801999847039AF1
S113304010600437FFB2AEE0FF27ACE08346FF27F1
S1133050A9E0FF27A7E001339CB22B5D662B00D0CB
S1133060A1E053460733072293430820C018824641
S113307019685A6806910792BA070ED0232F1BD8F5
S113308000210322584601E0242F17D0C3191970D8
S11330900137FFB23A42F7D183463B1C0833242B55
S11330A00FDCFF239B003B405B44069818600799A4
S11330B059600837FFB276E0FF2774E08346FF27A4
S11330C071E0FF276FE001339CB22B5D642B02D0CB
S11330D0752B0DD067E052460432009253461A888D
S11330E05846391C049B9847071C009882465AE0AE
S11330F051460431009153461A885846391C284BCE
S11331007B449847071C009882464CE001339CB2EC
S11331102B5D642B02D0752B12D044E0534604334C
S113312051460A68232F07D85846C2557A1CFF27F0
S1133130242A03DCD7B201E0FF27FFE79A4632E0F6
S11331405346043351460A68232F07D85846C255BC
S11331507A1CFF27242A25DCD7B223E0FF2721E0AD
S1133160A64E0000C24D00002001000074020000C1
S1133170C40200002800000030020000C802000061
S11331802C000000C1FEFFFF6E4D0000B5FDFFFFE7
S113319099FDFFFF44010000D3FDFFFFFC00000088
S11331A0ADFCFFFF9A460134A4B2FF2F07D14E466F
S11331B03C4878443C4BF358984700270AE02B5D81
S11331C0002B00D098E64E460337FB179B0FDF1900
S11331D0BF10FFB2281C0299344BF358984709AC2E
S11331E06080FF20324BF35898476070314BF3589E
S11331F01B68196B002945D03C1CD9699A69781859
S1133200904214D9521A920088008321090140186F
S113321018180021284BF3589847264BF3581B687D
S11332200022DA6101221A621B6B002B26D0381CA3
S1133230224BF35898471F4BF5582B68DA699000D6
S11332408321090140181818A20009A91C4BF3583E
S113325098472B68DA6991005918832000010918EE
S1133260693F0F70A218DA6159690C195C6115493C
S11332708A4203D901221A620022DA6101200F4B2B
S1133280F3589847104BF3581A68013A1A604046AD
S11332900E4BF358984713B03CBC90469946A2464F
S11332A0AB46F0BDFA4A000020010000F000000027
S11332B08001000028000000AC0100001C02000096
S11332C064000000E7030000C402000034010000B1
S11332D00EB410B585B007AA08CA064B7B44039206
S11332E00799054C1C590194A04705B010BC08BCB3
S11332F003B01847484A000090010000031C08333B
S11333004360012252428260C36003610023036070
S11333107047C046002303617047C04643684B6052
S11333209A688A609A6851609960086103680133F9
S11333300360704730B50C68021C0832631C01D16D
S1133340026905E053681D68AC4201D31A1CF9E711
S113335053684B6099608A60516008610368013367
S1133360036030BD03694268816891608268416886
S113337051605A68824201D192685A600022026107
S11333801868013818607047044B7B441B6801338C
S113339001D072B6FEE772B6FEE7C04682CCFF1FCC
S11333A0064A13681868203080F30988022080F3E5
S11333B014883FBCAE4662B600BDC0461C16002051
S11333C010B5031F802464041C60043B1960043B93
S11333D0034979441960143B1A60403810BDC04653
S11333E0B3FFFFFF7047C04680225205034B1A60AB
S11333F0BFF34F8FBFF36F8F7047C04604ED00E0FB
S113340072B6054B7B441A6801321A60BFF34F8FC2
S1133410BFF36F8F7047C04608CCFF1F074B7B4438
S11334201B68002B01D172B6FEE7013B044A7A44C3
S11334301360002B00D162B67047C046EECBFF1F6D
S1133440DECBFF1FEFF3108072B670470020C0463A
S113345080F310887047C046EFF309800E4B1A685A
S113346020381060F0C044464D4656465F46F0C0D2
S113347008B572B601F020FC62B60CBC116808688D
S11334801030F0C8A046A946B246BB4680F309886E
S11334902038F0C81847C0461C16002030B583B049
S11334A00A4C7C440A4BE3589847051C094BE358E3
S11334B09847002803D080225205074B1A60281C25
S11334C0064BE358984703B030BDC046824800001D
S11334D0740200004802000004ED00E03401000022
S11334E00022044B1A60044A044B1A600722044B5E
S11334F01A60704718E000E07FBB000014E000E0B1
S113350010E000E000B583B00C4A7A440C4B186814
S1133510FF210904014319601868FF2109060143CA
S11335201960084BD35898470022074B7B441A6014
S1133530064B7B449847064B7B4498471A48000047
S113354020ED00E078000000E0CAFF1F6BFEFFFFE3
S11335504DFEFFFF70B582B0051C184C7C44430738
S113356002D007239D430835154BE3589847154B64
S11335707B441B68002B06D1134B7B441A1C0C3272
S113358007218A431A60114B7B445B6AED18104A89
S1133590954209D8AB4209D20E4A7A441668F61805
S11335A00D4B7B445D6202E0002600E000260B4BDD
S11335B0E3589847301C02B070BDC046C8470000AD
S11335C03801000008D0FF1FFECFFF1F70DFFF1F70
S11335D0970F0000DECFFF1F56DFFF1F0002000021
S11335E0002801D072B6FEE77047C04670B582B0BD
S11335F0041C161C1E4B7B44026C002A09D1006873
S113360000282FD160681B4A9A58904700236360B2
S113361028E0002E0ED18068174D5D590195A8470A
S1133620A168226C8B18A360606883421AD3216856
S1133630A16017E0C068104D5D590195A847236C3F
S11336405A42E0688318E36021688B4202D26368BF
S11336509A18E260022E05D1A36B002B02D0A36B53
S1133660013BA363A36B0133A36302B070BDC046E7
S11336702E4700005001000064000000F0B55F46D2
S113368056464D46E0B484B0039089462D4D7D44A2
S1133690446D002C01D172B6FEE7A26BE36B9A4233
S11336A001D372B6FEE7A26B0020934243D9201CDB
S11336B0254BEE58B047254BEB5800931B5C203349
S11336C0DBB29B46201CB047009A175C201C204BA1
S11336D0EB5801939847021C5846391C1D4BEB5874
S11336E09847201CB047009B185C8246201C019A16
S11336F09047071C201CB047009A135C022B03D090
S1133700A36B0133DAB200E000225046391C124B9D
S1133710EB589847201C03A94A46104B7B44984712
S11337200020636A002B06D0201C24300C4BEB587D
S11337309847431E984104B01CBC91469A46A34640
S1133740F0BDC046964600009C010000A80200009F
S11337506C00000050020000A4020000CDFEFFFF38
S11337601001000070B582B00A4B7B440568002D3F
S11337700DD0026CC668B418C4604668B44200D365
S1133780C560C468081C211C034C1C59A04702B026
S113379070BDC046BA45000064000000F0B583B0B7
S11337A0041C2B4D7D442B4BEB589847A36C002BEA
S11337B021DD271C2437284E7E44636D002B08D05E
S11337C0201C0021B04701280FD1244BEB58984707
S11337D00BE0636A002B0ED0381C214BEB58984742
S11337E0002802D01D4BEB589847A36C013BA364FF
S11337F0A36C002BE1DC01235B42A364194BEB585F
S11338009847144BEB589847636C002B17DD2369DA
S1133810002B14D0271C1037114BEE5802E02369FB
S1133820002B0CD0381CB047002802D00B4BEB58AF
S11338309847636C013B6364636C002BEFDC0123EA
S11338405B426364074BEB58984703B0F0BDC04636
S113385080450000B4020000C1FEFFFF3C020000EE
S1133860100100001400000070B582B0041C0E1C8E
S11338701B4D7D44002801D172B6FEE7194BEB586D
S113388098472368226CE06B50431918616000214B
S1133890A163A360821A9B18E36001235B42636403
S11338A0A364002E0DD12169002912D0201C1030F0
S11338B00D4BEB58984701280BD10C4BEB5898470C
S11338C007E0201C10300A4BEE58B047201C24306F
S11338D0B047084BEB589847012002B070BDC04672
S11338E0B2440000B4020000100100009401000082
S11338F0F400000014000000F0B557464E4645465B
S1133900E0B482B0051C8846161C324F7F44002860
S11339101ED05820304BFB589847041E18D0404600
S1133920684301302C4BFB5898472060002811D184
S11339302A4BFB58995D081C4030C0B20022284B2A
S1133940FB589847201C274BFB58984700E0FEE79C
S113395072B6FCE7E56343462364201C0121224B35
S1133960FB5898475023E65400236365201C1F4BE3
S1133970FE58B047194BFD58285C1D4BFB5898471F
S1133980E064201CB0472B5C1833DBB29A46201C41
S1133990B047285C8146201C164BFB58009398477F
S11339A0021C504649460E4BFB589847201CB04712
S11339B02D5C201C009B9847011C281C00220E4BE8
S11339C0FB589847201C02B01CBC90469946A2465E
S11339D0F0BDC04618440000DC000000A80200004E
S11339E050020000880000005C0200009C010000FE
S11339F0BC0200006C000000A4020000F0B55F46A9
S1133A0056464D464446F0B489B0051C8846059296
S1133A101E1C9C4C7C44002801D172B6FEE7002990
S1133A2004D1036C002B01D072B6FEE7022E04D140
S1133A30EA6B012A01D072B6FEE7934BE35898472C
S1133A40002802D1059B002B07D1002292468F4B00
S1133A50E358029306AB994601E072B6FEE7029A78
S1133A609047AB6BEA6B934201D3022E5CD1281CC6
S1133A70874BE35801939847864BE35802931B5CAA
S1133A802033DBB29A46281C019B9847029A175CA4
S1133A90281C814BE35803939847021C5046391C59
S1133AA07E4BE3589847281C019B9847029A105C68
S1133AB08146281C039B9847071C281C019A9047A1
S1133AC0029A135C022B03D0AA6B0132D2B200E03B
S1133AD000224846391C724BE3589847281C41463B
S1133AE0321C704B7B4498476B6D002B0AD0281C0A
S1133AF0311C6D4B7B449847012810D16B4BE35824
S1133B0098470CE06A6A002A09D0281C2430684BC4
S1133B10E3589847012802D1644BE3589847654B12
S1133B20E35898470120A5E0059B002B1CD1614B6D
S1133B30E3589847281C564BE35801939847554B34
S1133B40E658335C4833DFB2281C019A9047365C50
S1133B50281C514BE3589847021C381C311C4F4B0E
S1133B60E3589847002085E05346002B05D148468A
S1133B70514BE3589847012292464E4BE3589847DD
S1133B804E4BE3589847414BE35898476B6C0133CD
S1133B9001D100236B64AB6C013301D10023AB640E
S1133BA0444BE3589847484605A9454BE358984782
S1133BB000283FD1354BE3589847AB6B9B46EF6BDE
S1133BC03C4BE3589847BB452CD1281C304BE35859
S1133BD0019398472F4BE7583B5C7033DBB29B460D
S1133BE0281C019A90473F5C281C2B4BE3589847AC
S1133BF0021C5846391C294BE3589847281C10309E
S1133C000599304BE3589847281C2F4B7B44984721
S1133C102E4BE3589847002800D020E7234BE35865
S1133C2098471CE7281C2A4B7B449847274BE358AA
S1133C30984714E7281C274B7B449847234BE358A9
S1133C409847281C124BE35801939847114BE658A8
S1133C50335C4833DFB2281C019B9847365C281C30
S1133C600D4BE3589847021C381C311C0B4BE3588E
S1133C709847002009B03CBC90469946A246AB4602
S1133C80F0BDC046104300007C020000B4020000F6
S1133C909C010000A80200006C000000500200001B
S1133CA0A402000005FBFFFF85FBFFFF9401000059
S1133CB01001000014000000B002000038010000F0
S1133CC030010000680000008DFBFFFF00020000CF
S1133CD071FBFFFF61FBFFFFF0B55F4656464D46A3
S1133CE04446F0B485B0041C0F1C161C9846564D6F
S1133CF07D44002801D172B6FEE7002904D1026C8C
S1133D00002A01D072B6FEE74346022B00D07FE0C2
S1133D10E26B012A00D184E072B6FEE7201C4B4B13
S1133D20EB58009398474A4BEB5801931B5C303394
S1133D30DBB29B46201C009B9847019A105C82468C
S1133D40201C444BEB5802939847021C584651469A
S1133D50414BEB589847201C009B9847019A105CF4
S1133D608346201C029B9847011CA26B0132D2B2ED
S1133D7058463A4BEB589847201C391C4246384B5E
S1133D807B449847A36C01331FD1626D002A0CD089
S1133D90201C4146334B7B4498470127012846D1D8
S1133DA0002E31D00123336041E00127636A002BE8
S1133DB03DD0201C24302C4BEB589847002836D09B
S1133DC0002E23D00123336031E0A36C0133A364BC
S1133DD001272CE0201C1D4BEB58009398471C4BEB
S1133DE0EE58335C5833DFB2201C009A9047365C9F
S1133DF0201C184BEB589847021C381C311C164BDE
S1133E00EB589847002712E0012710E001270EE045
S1133E10164BEB5898478146A36BE26B9342D9D279
S1133E207CE7124BEB5898478146A36B76E74846EC
S1133E300F4BEB589847381C05B03CBC904699464C
S1133E40A246AB46F0BDC046344000009C010000D1
S1133E50A80200006C00000050020000A402000050
S1133E6069F8FFFFE3F8FFFF10010000740200008F
S1133E7034010000F0B55F4656464D464446F0B462
S1133E8089B0051C0F1C05920393BA4C7C4400288E
S1133E9001D172B6FEE7002904D1026C002A01D0D8
S1133EA072B6FEE7B44BE3589847002802D1059B4D
S1133EB0002B07D100229146B04BE358049306AB84
S1133EC0984601E072B6FEE7049A9047AB6B002B6C
S1133ED000D186E0EB689846281C391CA84B7B442B
S1133EE09847039A002A50D1281CA64BE658B0479D
S1133EF0A54BE35801931B5C2833DBB29946281C7D
S1133F00B047019B1F5C281CA04BE35803939847C0
S1133F10021C4846391C9E4BE3589847281CB0475E
S1133F20019A105C8046281C039B9847071C281C98
S1133F30B047019A135C022B07D1964BE35898477C
S1133F40954BE3589847021C02E0AA6B013AD2B29F
S1133F504046391C914BE3589847AB6B013BAB632C
S1133F602B68002B03D18E4BE358984768602A696D
S1133F70002A31D0281C10308A4BE3589847012876
S1133F802AD1894BE358984726E0281C7D4BE358F7
S1133F90019398477C4BE658335C7833DFB2281C96
S1133FA0019B9847365C281C784BE3589847021CC1
S1133FB0381C311C764BE35898474246EA606B6ADA
S1133FC0002B09D0281C2430764BE358984700284E
S1133FD002D0754BE3589847744BE3589847012037
S1133FE0C0E0059A002A1CD1704BE3589847281C5E
S1133FF0644BE35801939847634BE658335C503362
S1134000DFB2281C019B9847365C281C5F4BE358A1
S11340109847021C381C311C5D4BE358984700201C
S1134020A0E04A46002A05D14046614BE358984730
S1134030012399465D4BE35898475E4BE3589847F4
S11340404E4BE35898476B6C013301D100236B64EA
S1134050AB6C013301D10023AB64544BE358984754
S1134060404605A9544BE358984700285AD1434B7E
S1134070E3589847AE6B4D4BE3589847002E49D10F
S1134080281C404BE358019398473F4BE658335C58
S11340906833DBB29B46281C019A9047305C824609
S11340A0281C3A4BE3589847021C58465146384B53
S11340B0E3589847281C019B9847335C022B08D08F
S11340C0344BE3589847344BE35898473B4BE358F9
S11340D098472A68002A09D1284BE358984768680A
S11340E0374BE3589847314BE3589847281C243002
S11340F00599344BE3589847281C334B7B44984725
S1134100324BE3589847002800D0DDE6264BE358AD
S11341109847D9E6281C2E4B7B4498472B4BE358F1
S11341209847D1E6281C2B4B7B449847274BE358F0
S11341309847281C134BE35801939847124BE658B1
S1134140335C5033DFB2281C019B9847365C281C33
S11341500E4BE3589847021C381C311C0C4BE35897
S11341609847002009B03CBC90469946A246AB460D
S1134170F0BDC046983E00007C020000B40200007E
S113418083F8FFFF9C010000A80200006C000000FF
S1134190500200000800000080000000A40200009B
S11341A0DC01000010010000940100001400000074
S11341B0B002000038010000300100002C020000B1
S11341C060010000680000009DF6FFFF000200008F
S11341D081F6FFFF71F6FFFFC06C70475023C05C8F
S11341E07047C04670B582B0041C0E1C104D7D444F
S11341F0104BEB589847636C013301D1002363647F
S1134200A36C013301D10023A3640B4BEB589847F3
S1134210A36B002B05D1201C2430311C074BEB5819
S11342209847201C064B7B44984702B070BDC0469B
S1134230363B0000B40200001400000070010000CE
S113424073F5FFFF002801D172B6FEE70023084A88
S11342507A444169914209D1836A064A7A44143204
S1134260934202D05A42534100E00023181C704785
S1134270D0D2FF1FC4D2FF1F0A4B7B449B6A1B682A
S1134280002B05D101225242074B7B441A6008E0FF
S1134290064B7B449B6ADB68DB685A68044B7B44AF
S11342A01A607047A6D2FF1F86BDFF1F8ED2FF1F64
S11342B072BDFF1F10B582B0041C164B7B44164A16
S11342C09A5812685060154A7A44D26A90420BD2C6
S11342D0134A7A44106B104A9A5811680431114AEF
S11342E09A580192904712E00F4A7A44906A0A4A17
S11342F09A58116804310B4A9A58019290470B4B13
S11343007B441B689C4202D2094B7B441C6002B074
S113431010BDC046683A00005000000058D2FF1F8C
S11343204ED2FF1FBC01000036D2FF1F10BDFF1F7D
S113433006BDFF1FF0B55F4656464D464446F0B4F1
S113434085B081460F1C161C9A468E4D7D4400286C
S113435001D172B6FEE70E9A042A01D972B6FEE7BD
S11343604820894BEB589847041E00D1C8E0109BA5
S1134370002B00D0C0E0B000834BEB58984720637B
S1134380002804D1201C814BEB589847B8E0B200B8
S1134390A5217F4BEB5898477E4AB3189B00226BAC
S11343A0D318072293439B463A783423E2543B784C
S11343B0002B0AD00123F95CE21834321170FA5C44
S11343C0002A02D00133052BF5D100223823E25410
S11343D00E9E042E00D90426E6626664231D9846C8
S11343E0181C6D4BEF58B847201C1830B84724618F
S11343F005239E1BA6616462584649465246674B94
S1134400EB58984720600F9A002A00D01460644B40
S1134410EB589847634B7B445A6B01325A63624BA7
S1134420EB581B68002B34D15F4BEB581C605F4B7F
S11344307B445B6B012B6CD15D4B7B441E1C38367B
S11344401F1C9C375B4BEB580193301C019B984716
S11344501436BE42F9D1584A7A4491461C239B46ED
S1134460CB445846534BEE58B04730229246CA4488
S11344705046B047514F7F44381C1430B04748462B
S11344804430B047381CB0475B46BB6252463A637F
S11344903FE04B4B7B449B6D002B3AD1424BEB5896
S11344A01B68DB6A0E9A9A4233D33F4BEB581C606D
S11344B02FE0444A7A44D3659A00D3189B004248BB
S11344C078443830C0184146404BEB589847404B2D
S11344D0EB5898473F4B7B449B6D0120002B49D000
S11344E0314BEB581B68DB6A0E9A9A4242D93A4B1D
S11344F0EB58984701203DE0109B0363181C46E7E6
S1134500432003210022354BEB58984701204042B9
S113451030E0334F7F443B6E01333B66E36303205B
S1134520304BEB5898472064201C2F4BEE58B04773
S1134530011C221C343203202C4BEB589847201CBE
S1134540B047011CE36ADAB20320294BEB589847C1
S1134550201CB047021C1B200321204BEB5898471A
S1134560201CB047234BEB589847E36AFA6D9342FB
S11345709FD8A1E705B03CBC90469946A246AB46FD
S1134580F0BDC046D8390000DC00000088000000FF
S1134590AC010000FFFFFF3FB40000009C020000DC
S11345A0B40200000AD1FF1F50000000F0D0FF1F2A
S11345B0E6D0FF1FF400000048D1FF1FAAD0FF1F60
S11345C00CD1FF1FECD0FF1F60D0FF1F9C00000028
S11345D014000000CAD0FF1F940100005002000024
S11345E08CD0FF1FBC020000800000004C010000C2
S11345F070020000D4010000F0B583B0051C254C06
S11346007C44002801D172B6FEE7234BE3581B68B3
S113461098423DD0214BE3589847281C204B7B44BB
S11346209847012831D1281C1E4BE658B047021C7C
S11346308B2003211C4BE35898472F1D381C1B4B20
S1134640E3589847281CB047194BE3589847EB6A3E
S1134650184A7A44D26D934202D9174A7A44D365F0
S11346609A00D3189B00154878443830C018391C78
S1134670134BE3589847084BE3581B68EA6ADB6A14
S11346809A4202D30F4BE35898470F4BE35898478D
S113469003B0F0BD2437000050000000B402000055
S11346A023FCFFFF800000005002000048010000CE
S11346B0D40100004ECFFF1F44CFFF1FB8CEFF1F11
S11346C09C0000009401000014000000F0B547466F
S11346D080B482B0051C2D4C7C44002801D172B6F4
S11346E0FEE72B4BE35898478046281C294B7B4414
S11346F09847002601283FD1281C274BE3589847A8
S1134700021C8C200321254BE3589847244B7B44FF
S11347109B6E002B27D1234BE3581B68DB6AEA6AA4
S11347209A4276412F1D381C1F4BE3589847281C8A
S1134730194BE35898471D4BE3589847EB6A1C4ABA
S11347407A44D26D934202D91A4A7A44D3659A00C4
S1134750D3189B00184878443830C018391C174BBC
S1134760E358984708E0291C183115487844143058
S1134770124BE358984700264046124BE35898479B
S1134780301C02B004BC9046F0BDC0464C3600005C
S11347907402000053FBFFFF800000005002000081
S11347A092CEFF1F5000000048010000D401000019
S11347B060CEFF1F56CEFF1FCACDFF1F9C00000016
S11347C0B4CDFF1F3401000030B587B0144C7C44D5
S11347D000230093019302930393124878441249EF
S11347E079448C22114D6559A847012811D1104BE9
S11347F0E358984701280CD172B601220D4B7B4433
S11348009A6500220C4B7B44DA620C4BE3589847C0
S113481003E0002801D172B6FEE707B030BDC04600
S11348205635000021040000083500007000000027
S1134830C4010000A2CDFF1F1ACDFF1F60000000BD
S1134840024B7B449A6E01329A6670475ECDFF1F1D
S113485030B583B0064C7C44064BE3589847064B6E
S11348607B44DD6A054BE3589847281C03B030BDF0
S1134870CE340000B4020000C0CCFF1F14000000BE
S113488030B583B0064C7C44064BE3589847064B3E
S11348907B44DD6A054BE3589847281C03B030BDC0
S11348A09E3400007402000090CCFF1F340100000D
S11348B0F0B557464E464546E0B482B0584C7C4469
S11348C0584B7B449B6E012B04D0574B7B44DB6ECF
S11348D0002B08D1554BE3581A6801321A600020A6
S11348E0534BE3589847534B7B449A6E9B6E002B73
S11348F000D07FE0504B7B44DA6A0132DA62DF6A2F
S1134900002F15D14D4B7B449B6A1B68002B01D0B3
S113491072B6FEE74A4B7B449A6A196B99621A6332
S1134920484B7B441A6F01321A67474B7B449847C4
S1134930464B7B441B6800269F424DD3444A7A442D
S11349409246444B7B443833994600E00126524654
S1134950936A1B68002B05D1012252423E4B7B44D3
S11349601A6039E03D4B7B449B6ADB68DD686B6809
S11349709F4203D23A4A7A4413602DE02B1D984695
S1134980181C384BE3589847AA6A002A04D0281CFC
S11349901830344BE3589847281C334BE358984756
S11349A0324BE3589847EB6A314A7A44D26D9342CA
S11349B002D9304A7A44D3659800C018800048442C
S11349C041462D4BE35898472C4BE3581B68EA6A41
S11349D0DB6A9A42BAD2BAE7284BE3581B68DB6A0F
S11349E09A00D3189B00264A7A44D3189B6B012B58
S11349F007D807E0234B7B44DA6E0132DA660026DF
S1134A0000E00126204B7B445B6F002B00D0012685
S1134A10301C02B01CBC90469946A246F0BDC0466C
S1134A2066340000DECCFF1FD4CCFF1F2802000038
S1134A3054000000B8CCFF1F2ACCFF1F1ACCFF1F64
S1134A400ACCFF1F7ECCFF1F49F9FFFFDEB6FF1F14
S1134A50E2CBFF1FDCCBFF1FB2B6FF1FBACBFF1F99
S1134A609AB6FF1F4801000080000000D401000036
S1134A70F6CBFF1FECCBFF1F9C0000005000000092
S1134A8038CBFF1FAACBFF1F9ACBFF1FF0B54F46B1
S1134A9080B482B0424C7C44424B7B449B6E002BDE
S1134AA001D172B6FEE7404BE35898473F4B7B4435
S1134AB09A6E013A9A669B6E0025002B68D13C4B96
S1134AC07B445B6B002B63D03A4A7A4491463A4B61
S1134AD07B441E1C383630E0384B7B441B6ADD684F
S1134AE0281C1830364BE358019398472F1D381C67
S1134AF0019B9847281C334BE3589847324BE358A3
S1134B009847EB6A314A7A44D26D934202D9304ACB
S1134B107A44D3659800C01880003018391C2D4B96
S1134B20E35898472C4BE3581B68EA6ADB6A9A42BD
S1134B3003D30122294B7B445A674A465269002A0F
S1134B40CAD1274B7B44DB6E002B17D0254B7B440B
S1134B50DB6E002B12D0244BE3580193234E7E448A
S1134B600125019B9847002800D07567204B7B44A2
S1134B70DA6E013ADA66DB6E002BF2D11D4B7B4410
S1134B805B6F0025012B03D11B4BE358984701258C
S1134B901A4BE3589847281C02B004BC9146F0BD58
S1134BA08E32000006CBFF1FB4020000F2CAFF1FC2
S1134BB060CAFF1F56CAFF1F50CAFF1F46CAFF1F05
S1134BC04801000080000000D40100009ACAFF1FC1
S1134BD090CAFF1F9C000000500000006ACAFF1F1B
S1134BE05CCAFF1F52CAFF1F4802000042CAFF1FCF
S1134BF032CAFF1F22CAFF1F9401000014000000E4
S1134C00F0B54F464646C0B483B01E4C7C441E4E9D
S1134C107E441E4A7A4490461D4F7F4427E01D4B34
S1134C20E35898477D6C1C4BE3589847002D1ED0E1
S1134C301A4BE35898471A4D7D442B6DDA68914618
S1134C40101C0430174BE3589847174B7B445A6B9E
S1134C50013A5A636B6E013B6B66144BE3589847F9
S1134C604B46186B124BE558A8474846A847736E45
S1134C70002BD4D14246926B012AF8D90D4BE3584C
S1134C809847F4E71831000090C9FF1F0CC9FF1FB3
S1134C9086C9FF1F3801000000020000B4020000B2
S1134CA068C9FF1F48010000D4C8FF1F140000009A
S1134CB0880000009401000030B583B02C4C7C4483
S1134CC02C4B7B449B6E002B04D001222A4B7B444B
S1134CD05A674AE0294B7B4400225A67DB6D9A00ED
S1134CE0D3189B00264A7A44D3189B6B002B1BD104
S1134CF0244B7B44DB6D002B05D102E0C26D002AFE
S1134D0007D172B6FEE7204B7B44204D7D442048FA
S1134D107844DA6D013ADA65DA6D91008A18920006
S1134D20AA18926B002AE9D01A4B7B44DB6D9A00D7
S1134D30D3189B00184A7A443832D3185A685268F8
S1134D405A60191C08318A4201D152685A605B6862
S1134D50DA68124BE3581A60114BE3589847114B29
S1134D60E3589847104BE358984703B030BDC0460A
S1134D7066300000DEC8FF1FD2C8FF1FCAC8FF1F6D
S1134D803AC8FF1FAEC8FF1F98C8FF1F14C8FF1FF3
S1134D9090C8FF1F76C8FF1FEAC7FF1F500000001E
S1134DA008000000800000004C00000070B582B0D4
S1134DB0051C314C7C44314BE3589847002D02D1FB
S1134DC02F4BE3581D68281C2E4BE658B047021C95
S1134DD08A2003212C4BE3589847281CB0472B4BBF
S1134DE0E35898472E1D301C294BE3589847AB6A6B
S1134DF0002B04D0281C1830254BE358984725482D
S1134E007844311C244BE3589847244BE358984783
S1134E101B4BE3581B689D421ED1214B7B449B6D69
S1134E20002B0AD01F4B7B449B6E002B01D072B623
S1134E30FEE71D4BE35898471CE01C4B7B445A6B20
S1134E401B68934204D10E4BE35800221A6011E010
S1134E50174BE35898470DE0164B7B449B6D002B92
S1134E6008D0064BE3589847134B7B4498470B4BA9
S1134E70E358984702B070BD702F0000B4020000E0
S1134E805000000080000000500200002C020000CE
S1134E904801000020C7FF1F9C0000001400000010
S1134EA084C7FF1F7AC7FF1F94010000E4C6FF1FD9
S1134EB06C01000046C7FF1F0BF4FFFF70B582B002
S1134EC00D1C134C7C44002801D172B6FEE7114B33
S1134ED0E65831681831104BE3589847306804306D
S1134EE00E4BE35898476B1C09D10A4BE3581968D9
S1134EF004310B4878440B4BE358984706E00A4BBF
S1134F007B44D86A2818094B7B44984702B070BD8B
S1134F10602E000050000000BC01000048010000A9
S1134F202CC6FF1F9C00000020C6FF1FA9F3FFFF33
S1134F30F0B583B00E1C164C7C44002801D172B627
S1134F40FEE7144BE55829681831134BE35898478A
S1134F5028680430114BE3589847114B7B44DF6AAF
S1134F60F7198820391C0F4BE358984728680E4BD3
S1134F70E658B0470D4BE558A8470D4BE358984702
S1134F80B047A847381C0B4B7B44984703B0F0BD8F
S1134F90EC2D0000500000009C00000048010000BF
S1134FA0C4C5FF1F1C000000800000002C0200008C
S1134FB00800000029F3FFFF70B582B0244C7C4444
S1134FC0C368DD68002D01D172B6FEE72E1C1836C9
S1134FD0301C204BE35898471F4B7B449B6E002B9F
S1134FE020D12E1D301C1B4BE3589847281C1B4B0B
S1134FF0E35898471A4BE3589847EB6A194A7A449E
S1135000D26D934202D9184A7A44D3659A00D318D0
S11350109B00164878443830C018311C144BE358B0
S1135020984706E0134878441430311C104BE35879
S11350309847114BE3581B68EA6ADB6A00209A42DE
S113504004D901220D4B7B445A67012002B070BD84
S1135050662D000048010000C6C5FF1F8000000047
S1135060D4010000A2C5FF1F98C5FF1F0CC5FF1F78
S11350709C000000FAC4FF1F500000005AC5FF1F27
S1135080002801D172B6FEE7044B7B441B6F03601A
S1135090034B7B44DB6A43607047C04616C5FF1F61
S11350A08EC4FF1FF0B583B0041C0F1C184E7E4441
S11350B0002801D172B6FEE7002901D172B6FEE7DD
S11350C0144BF3589847144B7B44DA6A3B68581CDA
S11350D017D012497944096F2068884203D001250A
S11350E061688A420ED26168501A0125834209D947
S11350F08A1AD3183B60201C094BF35898470025A3
S113510000E00025074BF3589847281C03B0F0BD76
S1135110762C0000B402000058C4FF1FCCC4FF1F4B
S1135120B0020000140000000122024B7B445A67C5
S11351307047C04674C4FF1F002801D0006C00E013
S113514000207047024B7B44024A9B581868704702
S1135150DE2B000050000000064B7B449B6D0120B9
S1135160002B05D0044B7B44986E434258414000C9
S11351707047C04646C4FF1F3AC4FF1FF0B583B052
S1135180051C354C7C44002864D0C36A334AA258B9
S11351901268D26A93425DD28269002A06DB2F4AE2
S11351A0A2581268D26A05218A1A82619A00D31819
S11351B09B002B4A7A443832D3186F699F4225D119
S11351C02E1D301C274BE3589847244BE3581B688B
S11351D0DB6AEB62281C244BE3589847234BE358C3
S11351E09847EB6A224A7A44D26D934202D9214A03
S11351F07A44D3659800C3189B001F48784438301C
S1135200C018311C1D4BE358984704E0134BE35876
S11352101B68DB6AEB62281C134BE658B047071C7B
S1135220281CB047011C0320154BE3589847031C66
S11352308E2003213A1C134FE759B847281CB04766
S1135240011C064BE3581B68DA6AD2B203200E4BEA
S1135250E358984703B0F0BDA02B000050000000B5
S11352606CC3FF1F4801000080000000D40100004F
S1135270BAC3FF1FB0C3FF1F24C3FF1F9C0000005D
S1135280D4000000F401000070020000F0B583B007
S1135290041C284D7D4400284AD0C26A436C9A42BB
S11352A046D0071D381C244BEB589847201C234B31
S11352B0EB5800939847061C201C009A9047011C49
S11352C003201F4BEB589847031C8F200321321CEB
S11352D01C4EAE59B047201C009EB047011C636CA5
S11352E0DAB20320184BEB589847636CE362A66963
S11352F0002E02DB0522D31AA361201C0F4BEB58AE
S11353009847124BEB589847E36A114A7A44D26D96
S1135310934202D90F4A7A44D3659800C3189B007C
S11353200D4878443830C018391C0C4BEB5898475A
S113533003B0F0BD902A0000480100008000000086
S1135340D4000000F401000070020000D401000049
S113535094C2FF1F8AC2FF1FFEC1FF1F9C000000F2
S113536030B583B0041C114D7D44416020619142ED
S11353700DD8D21A0120A3699A4215D20C4B7B4452
S11353801868211D0B4BEB58984700200CE09A42FB
S113539002D20120994207D2074B7B445868211D51
S11353A0044BEB589847002003B030BDBC290000E3
S11353B09EC2FF1FBC01000082C2FF1FF0B583B074
S11353C0164C7C44164BE3589847164B7B449B6819
S11353D0002B1DD1144D7D442E1C0C36301C134B58
S11353E0E358019398472F1C2037381C019B98479A
S11353F06E602F6002200C2100220D4BE358984769
S1135400002803D00B4B7B44986001E072B6FEE7A2
S1135410094BE358984703B0F0BDC0466229000029
S1135420B402000050C2FF1F46C2FF1FF400000078
S1135430E001000016C2FF1F1400000030B587B061
S1135440104C7C44104B7B449847104B7B449B6826
S1135450002B13D0032300930D4B7B44343301936F
S11354600023029303930B4878440B497944AA22FE
S11354700A4D65590595A847002801D172B6FEE783
S113548007B030BDE228000073FFFFFFD0C1FF1F4B
S1135490C2C1FF1FF1020000842800007000000058
S11354A0F0B54F464646C0B483B081460E1C9046C4
S11354B01F1C204D7D44002933D02C201E4BEB585B
S11354C09847041E22D01D4B7B4498474B462360CB
S11354D0A6614346E36127620A9B6362201D184B61
S11354E0EB5898470520174BEB589847011CA062CE
S11354F005202268144BEB589847FF22A36A1A40F0
S1135500B0200521114BEB5898470CE000239A6A10
S1135510FF231A40B92005210C4BEB58984702E0B1
S1135520FEE772B6FCE7201C03B00CBC904699461B
S1135530F0BDC04670280000DC000000F1FEFFFF53
S1135540B4000000BC0200004C0100005002000046
S1135550F0B5474680B486B0071C0C1C9046394D04
S11355607D44394979448868002865D003940492BD
S11355700597052C1ADC354BEB58984702280AD1BD
S1135580334B7B44986803A90C9A0023314EAE59DF
S1135590B047061C11E0304B7B44986803A90022F5
S11355A000232C4EAE59B047061C06E003A91A1C72
S11355B000232A4EAE59B047061C002C3DDD042CB6
S11355C00CD1BD20012E00D1B420BA6AFF231A40A9
S11355D005214346224C2C59A0472EE0052C1DD111
S11355E0B524012E1ED1FF22BB6A1A40B520052125
S11355F01C4BEB589847BC6AE0B205211A4BEB5898
S11356009847BA6AD0B20521184BEB589847B96A43
S1135610C9B20520164BEB5898470EE0B03400236E
S1135620012E00D00923E018BA6AFF231A4005218D
S11356300C4BEB58984700E00026301C06B004BC25
S11356409046F0BDC4270000B8C0FF1F7C020000D4
S11356509AC0FF1F0401000084C0FF1F3400000033
S1135660F4010000500200007C0000008C000000E7
S1135670A0000000F0B55F4656464D464446F0B4DF
S113568085B082462B4E7E442B4BF3589847814677
S11356902A4B7B449B6B98423DD2294979448846E6
S11356A000229346274C7C44039426E0DB681F6861
S11356B0DC68251D281C244BF3589847201C616A7C
S11356C08847E269012A18D1A1697B18BB4208D92D
S11356D063602461039C6068291C1C4BF358984741
S11356E00BE059460091201C3A1C5B46184C345977
S11356F0A047002801D172B6FEE7424653681C68F1
S1135700002CD3D1134A7A441168516013600123E9
S11357105246136002E00023544623600E4B7B4440
S113572049469963484605B03CBC90469946A24612
S1135730AB46F0BD9E260000000100008ABFFF1F9B
S113574080BFFF1F76BFFF1F48010000BC0100009F
S11357508401000016BFFF1FFEBEFF1FF0B55F46A9
S113576056464D464446F0B489B069487844834669
S113577068497944894605AC674A7A4492464D465D
S11357806B681E68002E00D1B5E0DB681D68634BB2
S11357905F46FB589847201C614B7B449847061C86
S11357A00598002840D1B5422DD85E4BFB58984748
S11357B05D4B7B445B68DB68D9688846081C043011
S11357C05A4BFB5898474246D269012A16D14346A0
S11357D09B69E9184046321C2B1C554E7E44B04749
S11357E001280BD100230093404600212A1C514D6F
S11357F07D59A847002801D172B6FEE745466B6A79
S11358004046984714E04C4B7B449868A91B4B4B8B
S11358105E46F3589847434BF3589847002807D1FE
S1135820474BF358984703E03E4B5F46FB58984775
S1135830444E7E44444B5846C55854E021680029E0
S113584051DBA26890465369002B05D0101C04302C
S1135850364B5F46FB58984704A83C4B7B4498471B
S1135860031C206809283ED800F0F2FD0505053D1B
S11358702A3805053D2A676840468069391840463C
S11358801A1C3B1C324F7F44B84701282BD1404699
S1135890416A88474246D269012A24D143469B691A
S11358A06768DA190023009340460021214FBC4663
S11358B05F4667443F68B847002814D172B6FEE7D4
S11358C0616840468161002901D172B6FEE759182A
S11358D040461A1C1F4F7F44B84704E040461E4B05
S11358E05946CB589847B068211C00220023A8478A
S11358F00028A3D143E7094B5A46D3589847201CA4
S1135900D047061C0025059BAB4200D17BE78BE703
S1135910B8250000AABEFF1FF7FEFFFF38010000F4
S1135920D7FEFFFF000200006ABEFF1F480100000F
S113593081FBFFFF8401000014BEFF1F2000000054
S113594094010000EABDFF1F4002000015FEFFFFA6
S1135950D7FAFFFF87FAFFFF88000000FEE7C04682
S1135960F0B583B03B4C7C443B4BE35800933B4B3A
S1135970E3580098984207D0384BE3580093384BCB
S1135980E358009A9A4208D3364BE3580093364BB7
S1135990E358009D9D4218D326E0314BE358009311
S11359A02E4BE358D943009809188908013189001E
S11359B000232A4AA2580192274AA258D058019D8E
S11359C0E85004338B42F9D1DEE7264BE3581A1D25
S11359D02549615800910331891A890889005218B0
S11359E0002102C39342FCD1204BE3580093FF23D0
S11359F0009A9A431E4B9A60022190235B001D4A31
S1135A00D1501D4BD8780321884302221043D8700B
S1135A10DE780C25AE4308200643DE70174B9F7BCF
S1135A203026B74320263E439E739E7BAE433043CD
S1135A309873987B884302439A73114B5968802268
S1135A400A435A600F4BE35898470F4BE358984763
S1135A50FEE7C046BE2300005800000074000000AA
S1135A60580200005C000000CC010000400000006F
S1135A7000ED00E00070004100500041004800418A
S1135A8000400041D0000000B401000000B583B024
S1135A90234B7B4408283ED800F0DAFC083D3D0542
S1135AA005140C1833008020000237E01D4B7B44A2
S1135AB0186933E01C4B186A8005800F1B4BC340E8
S1135AC0181C2BE01A4B7B44586927E0194A7A4486
S1135AD012680220104021D013481021C2681142DC
S1135AE0FCD0154A7A441268510716D50020134A8F
S1135AF09A589047124B7B449B681B041B0C5843D9
S1135B000CE05023084AD35C00205A0706D50D4BFD
S1135B107B44D86802E0002000E00B4803B000BDDD
S1135B2092220000AABBFF1F0008004000127A0066
S1135B3092BBFF1F8ABBFF1F74BBFF1F54010000F1
S1135B4062BBFF1F48BBFF1F006CDC0270B50C4B2F
S1135B501C6A017885784078012210408001402633
S1135B60B44304432A40D00180229443221C0243BC
S1135B70032001400902034802400A431A6270BD2F
S1135B8000080040FFFCFFFFF0B55F4656464D4657
S1135B904446F0B4264A948A4578037859425941D8
S1135BA08A4683789C46C178884603799946467B21
S1135BB0077B817B8B4680681E4B7B4458610123A5
S1135BC05146880004218C43044348461840C000D1
S1135BD008218C43044340461840000110218C43A3
S1135BE0044360461840400120218C430443181CA0
S1135BF0384080014027BC430443181C3040C00196
S1135C008026B44304430720284000020A4D2C4058
S1135C10044359460B4019030848231C03400B4313
S1135C2093823CBC90469946A246AB46F0BDC04622
S1135C30000800409EBAFF1FFFF8FFFFFFEFFFFFC1
S1135C40F0B583B0041C264E7E44C568037D012B49
S1135C5007D1018A01314900224BF358281C984787
S1135C60051CA36818011F4BF358291C98470F22E1
S1135C70024000096678B6012378DB011E43F6B2C0
S1135C80194B44215E541604411E0905090D314384
S1135C909964E678F600A178090331432679B600C1
S1135CA03143A67C03273E403143268A36040F4FF6
S1135CB03E403143E77C3F02E026F6003E4031435C
S1135CC0247D2401302634402143D9640001121874
S1135CD055432D09064B7B44DD6003B0F0BDC0463F
