S01E00004261737469616E5F6672656552544F532D54524143452E737265635F
S1130000A03E0020154C0000114C0000114C0000D3
S113001000000000000000000000000000000000DC
S1130020000000000000000000000000192E000085
S113003000000000000000008D2E0000D12E000002
S1130040114C0000114C0000114C0000114C000038
S1130050114C0000114C0000114C0000114C000028
S1130060114C0000792600008D260000A126000016
S1130070B52600000000000000000000114C000044
S1130080114C0000114C0000114C0000114C0000F8
S1130090114C00000000000000000000114C0000A2
S11300A0114C0000114C0000114C0000114C0000D8
S11300B010B5064C2378002B07D1054B002B02D03A
S11300C0044800E000BF0123237010BD3804002061
S11300D0000000004C5A000008B5084B002B03D068
S11300E00748084900E000BF07480368002B03D015
S11300F0064B002B00D0984708BDC0460000000006
S11301004C5A00003C0400204C5A0000000000003F
S1130110F0B557464E464546E0B484B0614C7C4445
S1130120614BE3580293012302990B705E4BE25832
S1130130924642239846002556463378022B3BD0FC
S1130140052B00D17AE0012B00D09AE0574BE358FD
S11301501D6080221205564B5A61564BE3581E68A7
S1130160554BE3589847021C0095301C02212B1C68
S1130170524EA659B047524BE3581A68D369002B24
S1130180FCD1516880239B020B4353604C4BE358D2
S113019002930123029FBB71D1690029FCD1484B12
S11301A0E3580293474BE35803930298191C032224
S11301B0454BE358984764E0444BE35802931B785B
S11301C0434AA2581370434BE358029341465B5C85
S11301D0002B0AD03F4BE2584423D15C3C4BE358FC
S11301E059704321525C9A7003E0394BE3585D70B7
S11301F09D70384BE35842469D549B78344AA75827
S1130200FB70381C0421344BE3589847294BE358BE
S11302101E68294BE3589847021C0095301C0221A4
S11302202B1C264EA659B047254BE3580393181CA4
S1130230391C0522294BE358984722E0244BE65801
S1130240DD2333707370B370F370301C0421224BC0
S1130250E3589847174BE3581F68174BE3589847E0
S1130260021C0095381C02212B1C144FE759B84777
S1130270134BE3580293181C311C0522174BE35807
S11302809847174BE65801233370BFF35F8F62B66C
S1130290281C144BE358984772B6BFF35F8F357030
S11302A04AE7C0462A590000C4000000300100009B
S11302B00044004128010000BC00000018010000B7
S11302C01C0100002C000000880100002000000038
S11302D09C000000A801000050010000E40100009F
S11302E0900000002001000010B582B0234C7C4433
S11302F072B6BFF35F8F224BE35801930023019A38
S11303001370002801D172B6FEE71E4BE35818782B
S11303100138052826D805F0F5F90F25032503092A
S1130320194BE35801930023019A1371154BE358B9
S113033001930123019A1370144BE35801221A60AC
S113034080221205124B5A61124BE3580193181C78
S11303500021114BE3589847104BE3581868104B91
S1130360E358984772B6BFF35F8F054BE358019388
S11303700023019A137002B010BDC0465A57000002
S113038090000000C4000000A8010000300100003B
S1130390004400411C01000034000000580100002A
S11303A00401000082B02D4B7B442D4A9A580192DF
S11303B0002201990A702B4A126A110405D5284AB1
S11303C09A581078802101431170264A126A510705
S11303D005D5234A9A581078402101431170214AC7
S11303E0126A110705D51E4A9A5810782021014334
S11303F011701C4A126AD10605D5194A9A58107808
S1130400102101431170174A126A910605D5144A46
S11304109A581078082101431170124A126A510641
S113042005D50F4A9A5810780421014311700D4ADA
S1130430126A110605D50A4A9A5810780221014316
S11304401170084A126AD10005D5054A9B581978DB
S113045001220A431A7002B07047C046A056000039
S11304602000000000440041F0B5474680B488B045
S11304703B4C7C443B4BE35898470122904607ADE4
S11304806A700027AF702A701B20291C364BE6586F
S1130490B0471920291CB04706AD2F70AF70022356
S11304A06B701C20291CB0470720291CB04706206C
S11304B0291CB0470520291CB0470420291CB0473B
S11304C00320291CB0470220291CB0470F20291CF7
S11304D0B0470E20291CB047244BE3589847244BBF
S11304E0E3589847234BE3589847234BE358049326
S11304F003230093214BE358019302970397049835
S11305001F497944D222520000231E4D6559A84741
S11305101D4BE35898471D4BE35845461D70BFF3E8
S11305205F8F62B61A4BE35800931A48784402214D
S113053000220023184D6559A847051C174BE358A2
S11305401860174BE3589847021C0097281C012198
S11305500023144D6559A847134BE3589847FEE709
S1130560D65500002800000074010000B40100000A
S113057038010000CC010000840100005801000093
S1130580DA5400005C000000480100009000000004
S113059070010000B854000014000000280100009D
S11305A0BC000000180100008001000010B5031C0D
S11305B04908402099420CD30024C91A601C80B217
S11305C08B4201D8041CF8E74020FF2C01D814808A
S11305D0002010BD00000000F0B55F4656464D46B1
S11305E04446F0B487B0061C0D1C049210AA10787F
S11305F0674A7A44311C41434024A94200D9BAE0F5
S1130600002B4FD1634BD35802930021321C00239B
S1130610029CA04783462E1C0027002000210022B4
S113062000233F25AC460124A04602900391614675
S1130630203903D445468D40A94605E02020614673
S1130640441A4546E540A9464046614688408246EC
S1130650101C191C80185941021C0B1C5C464D4689
S11306602C4202D0424602430B1C9F420CD801D1BB
S1130670964209D8921BBB41504602990843494609
S1130680039C2143029003916546013DAC46CED2C2
S1130690029803993D4B3C4A121A8B41110C1B04DE
S11306A0194365E00021012B62D16C0FED00AB46CC
S11306B0384BD3580293321C0023029EB047061CC9
S11306C00F1C00230125029603979A46A14657461C
S11306D0FFB2059700208046002200233F24271CF8
S11306E0203F03D4291CB940019104E02026371B84
S11306F0281CF8400190291CA1400091101C191CD1
S113070080185941021C0B1C5E46009F3E40B446B3
S1130710019E4F463E4067463E4302D02A1C024398
S11307200B1C039898420BD802D10299914207D826
S1130730029E039F921BBB41474600980743B8465D
S1130740013CCCD2414652468B1ADB08124CA342E0
S113075008D9059A0132D2B205920126B24457460D
S1130760082FB4D140240598082804D04103194324
S1130770049C21800024201C07B03CBC9046994670
S1130780A246AB46F0BDC0460000000001000000D8
S113079056540000A0000000FF1F0000C046C046E1
S11307A030B585B0051C124C7C44124B7B441B783D
S11307B0002B01D0002910D003A90D7013200E4B7B
S11307C0E358984713200D4BE35898470C4B7B4450
S11307D05D7001221A70002008E00A4B7B445A78AD
S11307E01D20551B6A1E95416D42284005B030BD41
S11307F0A0520000B8FCFF1F700000006C01000054
S113080096FCFF1F88FCFF1F00B5284B984219D0A7
S113081003D8274B984207D03EE0264B98421FD07E
S1130820254B98422AD037E0002003293DD8081CE4
S113083004F068FF02340406204836E0204834E01F
S1130840204832E0002003292FD8081C04F05AFF66
S113085002280406032028E01B4826E01B4824E065
S11308600020032921D8081C04F04CFF021C0406B4
S113087017481AE0174818E0174816E00020032923
S113088013D8081C04F03EFF0210040613480CE0C1
S113089013480AE0134808E0002006E0124804E088
S11308A0124802E0124800E0124800BD000C004269
S11308B0000800420010004200140042030004003B
S11308C0030006000300070003001E0003001F00CE
S11308D00300080003000A0003000B0003001000DB
S11308E003001200030013000300050003000100CD
S11308F0030009000300110070B584B00F4A7A4464
S1130900694670CA70C112680A60031C009A824268
S11309100FD0019C844208D0029D854207D000205C
S1130920039E9E4207D1032004E0012002E002203E
S113093000E00020C0B204B070BDC046EE5000001C
S1130940F0B585B0A54C7C44A54BE3581B68002B3F
S113095000D041E1A34BE3581A68D369002BFCD1C2
S11309605168A14B0B4053609E4BE3580393002303
S113097003998B719D4BE35803931B78032B00D190
S113098078E0062B00D1CAE0012B00D024E1984B7B
S1130990E3581B68002B1ED1964BE3589847964B9F
S11309A0E3581860954BE3581B68984213D3944B53
S11309B0E35803933F23039AD35C002B0BD1904B52
S11309C0E35803934023039DEB5C002B03D1884B36
S11309D0E35801221A608B4BE3581A785B789342F0
S11309E041D1884BE35803939B7893423BD1AA2A85
S11309F039D1834BE35803933F230399CB5C002BFA
S1130A0031D17F4BE35803934023039AD35C002BEB
S1130A1029D1774BE3581B68002B00D1DCE07A4BDB
S1130A20E3581B68002B00D0C6E0774BE358012243
S1130A301A606E4BE35803930223039D2B70734B90
S1130A40E3581868724BE3589847012804D1802270
S1130A505205704B1A60BFE0644BE35803930123C3
S1130A6003990B70B8E0614BE35803930123039A95
S1130A701370B1E0634BE3580393181C0421664BD5
S1130A80E3589847002843D05E4BE35803931B7800
S1130A90002B18D05A4AA25803924122039DAA5C03
S1130AA0002A10D1564AA2582D215354554BE358CD
S1130AB058782E21505498782F215054D9783023C7
S1130AC0D15401231371494BE3580393052303992C
S1130AD00B7080221205514B9A61514BE3581D68EB
S1130AE0444BE3589847021C00230093281C072119
S1130AF04C4D6559A847454BE3581868444BE35897
S1130B009847012868D180225205424B1A6063E05D
S1130B10364BE35803930123039A13705CE0394B7B
S1130B20E3580393181C04213B4BE35898470028CF
S1130B303BD02E4BE35803930123039D2B70304B82
S1130B40E35803931B79002B14D02E4BE2581078F2
S1130B502B4BE35831215854507832215854907813
S1130B6033215854D1783422995400221A71012126
S1130B703F2299541E4BE35800261E601D4BE55836
S1130B80A8471E4BE35818601A68F532FF321A6002
S1130B90234BE3581F68A847021C0096381C072102
S1130BA00023204D6559A84716E0104BE3580393E2
S1130BB0012303990B700FE00C4BE35803930223BA
S1130BC0039A1370114BE3581868114BE358984774
S1130BD0012800D040E73AE705B0F0BD025100001B
S1130BE0300100001C010000FFFFFDFFC4000000F5
S1130BF000000000F000000038000000EC000000DD
S1130C00A80100002C000000CC00000058010000E6
S1130C108800000004ED00E0C4010000004400412D
S1130C20280100001801000030B585B03A4C7C441E
S1130C303A4BE35802931B78022B02D0052B35D094
S1130C4068E0364BE3580293032302990B70344B4C
S1130C50E3581D68334BE3589847021C0023009364
S1130C60281C0721304D6559A847304BE3581B68B1
S1130C70DA69002AFCD15968802292020A435A6038
S1130C802A4AA25802920122029DAA71DA69002A14
S1130C90FCD1264BE3580293254BE3580393029867
S1130CA0191C0522234BE358984733E01B4BE358A8
S1130CB00293062302990B70194BE3581D68194BD4
S1130CC0E3589847021C00230093281C0721164D63
S1130CD06559A847154BE3581B68DA69002AFCD10B
S1130CE05968802292020A435A60104AA25802921A
S1130CF00122029DAA71DA69002AFCD10B4BE35848
S1130D0002930B4BE35803930298191C0522094BD9
S1130D10E358984705B030BD1A4E0000C4000000E7
S1130D2028010000F0000000180100001C01000070
S1130D302C00000088010000F0B593B0314D7D44D3
S1130D408023DB050293002302AA536000219372DF
S1130D50D37201242420145425201454262013541F
S1130D602720135493622C2013542D2013545361C1
S1130D7013820020D0761176117713209076517764
S1130D80E121490211621381547680235B03D3600D
S1130D901D4B13631D4B536301235B429363D36366
S1130DA01B4BEF58381C1B491B4BEB5898473E68AC
S1130DB0301C1A4BEB5898471F2318408440184B9B
S1130DC01C603A68D369002BFCD1326802231343B8
S1130DD033600F4BEC58201C124979440122124B0A
S1130DE0EE58B0473125625D022313436355201C3E
S1130DF00E4979440022B047625D012313436355D1
S1130E0013B0F0BD0A4D00000200160002001700E6
S1130E101C010000001400422C01000068000000C6
S1130E2000E100E063FBFFFF0C00000033FEFFFF66
S1130E3030B500290CD0031C421C4C1EE4B2151919
S1130E4000221C781219D2B20133AB42F9D100E06E
S1130E500022435C55200243981A4242504130BD5F
S1130E6010B542180023137000290BD0031C013065
S1130E700139C9B240181C78117861181170013316
S1130E808342F8D1117855230B43137010BDC0462B
S1130E9030B583B0694C7C4472B6BFF35F8F684B46
S1130EA0E3580193002301990B70002801D172B615
S1130EB0FEE7644BE35801931B78DBB2712B14D823
S1130EC0702B3DD2102B3BD008D8012B68D0002BBF
S1130ED000D1A7E0043B0A2B6CD9A3E0112B3DD031
S1130EE0503B032B00D99DE064E09B2B09D89A2B3F
S1130EF060D27A2B0AD07B2B15D0722B00D091E0D4
S1130F0073E0ED2B56D0EE2B28D08BE04D4BE358FD
S1130F1001937023019A13704B4BE35818684B4BA1
S1130F20E35898477EE0474BE358019371230199B6
S1130F300B70454BE3581868444BE358984771E0ED
S1130F40404BE358002240215A543E215A543F2139
S1130F505A549A70802292043D4B9A61394BE3585B
S1130F6001931B78102B06D1364BE35801930123D0
S1130F70019A137005E0334BE35801931023019950
S1130F800B70344BE3580193181C0021324BE35887
S1130F9098472D4BE35818682C4BE358984741E089
S1130FA0284BE35801930023019A93708022920402
S1130FB0274B9A61234BE55801232B70254BE358AB
S1130FC00193181C0021244BE35898472B78DBB27B
S1130FD0ED2B03D01B4BE35801931B781A4BE358BA
S1130FE018681A4BE35898471CE0164BE358102234
S1130FF01A70002240215A543F215A54012142229E
S1131000995443229B5C002B06D10E4BE358019369
S1131010FF2243230199CA540B4BE35818680B4B26
S1131020E358984772B6BFF35F8F054BE3580193BB
S11310300023019A137003B030BDC046B24B0000C8
S113104090000000A8010000EC0100000401000071
S113105000440041A00100003400000030B587B016
S11310600B4C7C440B4BE3580493022300930A4B30
S1131070E3580193002302930393049807497944A6
S11310808C225200064D65590495A84707B030BD1F
S1131090E649000054010000EC0100007E49000014
S11310A05C0000008022D200014B9A617047C04668
S11310B0004400418022D200014B5A617047C0466F
S11310C00044004110B582B03D4C7C443D4BE35894
S11310D098473D4BE3581B68DA69002AFCD15968EC
S11310E0802292020A435A60374AA258009201228F
S11310F000998A71DA69002AFCD1344BE3580093D1
S11311001B78DBB2102B19D00BD8052B04D8042B79
S11311102ED2012B12D051E00D2B43D90E2B34D0FB
S11311204CE0712B05D8702B15D2503B032B39D9C9
S113113044E06633DBB2012B27D93FE0224BE3586E
S11311400093224BE358191C053100980522204BCB
S1131150E358984732E01C4BE35800931B4BE35889
S1131160191C053100980D22194BE358984725E0C6
S1131170154BE3580093154BE358191C053100989F
S11311800822134BE358984718E00F4BE358009399
S11311900E4BE358191C0531009804220C4BE358FC
S11311A098470BE0084BE3580093084BE358191C8D
S11311B0053100980A22064BE358984702B010BD47
S11311C07E490000D4010000A0010000A801000035
S11311D08801000080221201014B5A617047C04609
S11311E00044004180221201014B9A617047C046BD
S11311F000440041F0B54F4680B494B03E4F7F4464
S11312000121894613AD697000240026AC70297051
S11312100A20291C394BFB58019398470B20291CA1
S1131220019B9847364BFB5898478023DB05039373
S113123003AB5C609C72DC722422494699542522DB
S1131240995426229C5427229C549C622C229C5400
S11312502D229C545C611C820022DA761E761E7755
S11312605E7613229A765E77E12252021A621C811C
S113127080225203DA60234A1A63234A5A63012202
S113128052429A63DA63214BFE58214D214BFC589C
S1131290301C291C03AAA0470028F9D11B4BFD5878
S11312A02C68201C1C4BFB5898471F231840012313
S11312B08340181C194B18602A68D369002BFCD191
S11312C02268022313432360104BFC58201C14494A
S11312D079440022134BFD58A847201C1249794435
S11312E00122A8473123E15C03220A43E25414B0EB
S11312F004BC9146F0BDC0464A4800007401000099
S1131300740000000200080002000900A0010000AF
S1131310000800422C0100006800000000E100E029
S1131320F1FDFFFF0C0000004B00000030B585B05C
S11313309E4C7C449E4BE35803931B78DBB20E2BEC
S113134000D106E310D80B2B01D900F03FFC062B8B
S113135000D360E3042B00D14AE200D9ACE2012BB4
S113136000D187E000F06DFC712B0DD8702B00D3F9
S1131370F3E0102B0FD001D200F063FC503B032BA1
S113138000D8A9E100F05DFC6633DBB2012B00D884
S1131390DFE200F056FC864BE358181C05300421AC
S11313A0844BE3589847002801D100F04AFC824B53
S11313B0E3581D68814BE3589847021C00230093AF
S11313C0281C07217E4D6559A847794BE3580393A0
S11313D01B7A002B31D1764BE358DA79D2B29A706A
S11313E09B7819070DD5774BE3589847704BE35812
S11313F001221A70802080047349886141215A5463
S113140021E06B4BE35803939B785A060DD56D4B43
S1131410E3589847664BE35801221A7080208004F1
S11314206949886141215A540DE0614BE358112206
S11314301A7000214122995405E05D4BE35803934F
S1131440EE23039D2B70614BE3581868604BE358FF
S11314509847012801D000F0F4FB5C4BE3581B686B
S1131460002B01D100F0EDFB80225205594B1A608C
S113147000F0E7FB4E4BE358181C053004214D4B9C
S1131480E3589847002801D100F0DBFB4A4BE358AE
S11314901D684A4BE3589847021C00230093281CFC
S11314A00721474D6559A847414BE35803931B7ADD
S11314B0002B35D13E4BE358DA79D2B29A709B783F
S11314C019070FD53F4BE3589847394BE35801228E
S11314D05A700D211970802080043B498861412194
S11314E05A5423E0324BE35803939B785A060FD5A2
S11314F0344BE35898472E4BE35801225A700C2181
S11315001970802080043049886141215A540DE0CB
S1131510274BE35804221A7000214122995405E014
S1131520234BE35803939A23039D2B70274BE358D3
S11315301868274BE3589847012801D000F081FB35
S1131540224BE3581B68002B01D100F07AFB802268
S11315505205204B1A6000F074FB154BE358181C1D
S113156005300C21134BE3589847002800D168E359
S1131570114BE3581D68114BE3589847021C002394
S11315800093281C07210E4D6559A847084BE358C2
S1131590DA7BD2B29A709A7848231A421CD0044B50
S11315A0E3580393722303990B7081E016470000FC
S11315B0A8010000C401000044000000F000000085
S11315C0180100007400000000440041EC01000018
S11315D08800000004ED00E0AC4BE35800221A80C0
S11315E0AB4AA258517A1888090201431980927AA9
S11315F019880A431A801A8891008A18520092B2F4
S11316001A801B881BB2002B05DAA04BE3581A88FA
S1131610524292B21A809E4BE35803931B78702B6C
S113162033D19B4BE3580393DB79002B2DD1984B9B
S1131630E35803931B7A002B27D1944BE3581A8861
S1131640934BE35803936223039DEB5A9BB212B26C
S11316509A421ADD802292048E4B9A618C4BE35895
S1131660EE22DA7100225E215A545F215A54432239
S11316709B5C002B06D1864BE3580393CC22432377
S11316800399CA54844BE3589847814BE358039316
S11316901B78702B06D17E4BE35803937A23039A6D
S11316A0137005E07A4BE35803937B23039D2B705F
S11316B07A4BE35818687A4BE3589847012800D0CE
S11316C0BFE2764BE3581B68002B00D1B9E28022BD
S11316D05205744B1A60B4E26D4BE358181C053084
S11316E00921714BE3589847002800D1A9E26F4BB8
S11316F0E3581D686E4BE3589847021C002300937F
S1131700281C07216B4D6559A847614BE358039387
S11317105B7B002B4BD15E4BE3585A7A5C215B5CBC
S1131720D2B29A423CD15A4BE3589A7A5D215B5C1F
S1131730D2B29A4234D1564BE35818785038032821
S113174042D803F0DFFF02091017514BE35803930B
S1131750512303990B7037E04D4BE3580393522305
S1131760039A137030E04A4BE35803935323039DC9
S11317702B7029E0464BE358039341230399CB5C38
S1131780002B06D0424BE35803931023039A1370A3
S11317901AE03F4BE35803937023039D2B7013E02F
S11317A03B4BE3580393012303990B700CE0384B34
S11317B0E35803935B7B102B06D1354BE3581A781F
S11317C0D2B25A709B221A70344BE3581868344BC7
S11317D0E3589847012800D033E2304BE3581B68A4
S11317E0002B00D12DE2802252052E4B1A6028E2F4
S11317F0274BE358181C053007212B4BE358984717
S1131800002800D11DE2294BE3581D68284BE358FA
S11318109847021C00230093281C0721254D655975
S1131820A8471B4BE3580393DB7A002B13D1184BC7
S1131830E35803939B7A092B06D1154BE358039382
S11318400523039A13700CE0114BE358039306230A
S1131850039D2B7005E00E4BE35803939A230399E1
S11318600B700E4BE35818680D4BE358984701284A
S113187000D0E6E1094BE3581B68002B00D1E0E1FE
S113188080225205074B1A60DBE1C046D4000000F9
S1131890A80100000044004174000000EC010000B5
S11318A08800000004ED00E0C401000044000000D2
S11318B0F000000018010000B04BE358181C05307C
S11318C00721AF4BE3589847002800D1B9E1AD4B4D
S11318D0E3581D68AC4BE3589847021C002300935F
S11318E0281C0721A94D6559A847A44BE358039325
S11318F0DB7A002B13D1A14BE35803939B7A012B82
S113190006D19E4BE35808225A700D221A700CE03F
S11319109A4BE35803930623039A137005E0974BFD
S1131920E35803939A23039D2B70994BE35818684B
S1131930984BE3589847012800D082E1944BE35830
S11319401B68002B00D17CE180225205924B1A6067
S113195077E18A4BE358181C05300321884BE35880
S11319609847002800D16CE1864BE3581D68864BEC
S1131970E3589847021C00230093281C0721834D39
S11319806559A8477D4BE3580393DB79002B05D0B9
S11319907A4BE3580393DB79082B35D1774BE35823
S11319A003931B78DBB29A2B06D1744BE358039351
S11319B0012303990B7013E0704BE35803931B78D6
S11319C0DBB29B2B05D16D4BE3585A78D2B21A7017
S11319D006E06A4BE35801213E22995410221A7002
S11319E06B4BE35818686B4BE3589847012800D0B9
S11319F027E1674BE3581B68002B00D121E18022CB
S1131A005205654B1A601CE15C4BE35803939A231F
S1131A10039A137015E1594BE358181C053009213A
S1131A20574BE3589847002800D10AE1554BE35837
S1131A301D68554BE3589847021C00230093281C4B
S1131A400721524D6559A8474C4BE358187806387E
S1131A50052800D9A8E003F055FE03172B46617C46
S1131A60464BE35803939B7A092B06D1434BE35827
S1131A7003930723039D2B7096E0404BE358039395
S1131A80012303990B708FE03C4BE35803939B7A3B
S1131A90012B06D1394BE35803930823039A13709F
S1131AA082E0364BE35803930123039D2B707BE0C4
S1131AB0324BE35803935B7A002B0DD12F4BE35841
S1131AC003939B7ADBB2FF2B06D12C4BE358039391
S1131AD0092303990B7067E0284BE3580393012310
S1131AE0039A137060E0254BE35803935B7A002B51
S1131AF00DD1224BE35803939B7ADBB2FF2B06D123
S1131B001E4BE35803930A23039D2B704CE01B4B9D
S1131B10E3580393012303990B7045E0174BE358F3
S1131B2003935B7A002B0DD1144BE35803939B7AF8
S1131B30DBB2FF2B06D1114BE35803930B23039A1B
S1131B40137031E00D4BE35803930123039D2B7075
S1131B502AE00A4BE35803935B7A002B1ED1074B10
S1131B60E35803939B7ADBB2FF2B17D1034BE35863
S1131B7003930E2303990B7016E0C046A8010000DE
S1131B80C401000044000000F0000000180100003F
S1131B90EC0100008800000004ED00E02A4BE3584B
S1131BA003930123039A1370284BE3581868284BB6
S1131BB0E3589847012844D1244BE3581B68002B71
S1131BC03FD080225205234B1A603AE01E4BE35863
S1131BD0181C05300921204BE3589847002830D0C1
S1131BE01E4BE3581D681E4BE3589847021C002304
S1131BF00093281C07211B4D6559A847124BE35835
S1131C0003935B7B102B06D10F4BE35803939B2369
S1131C10039D2B7004E00C4BE3585A78D2B21A702F
S1131C200A4BE35818680A4BE3589847012808D12F
S1131C30064BE3581B68002B03D080225205054B4A
S1131C401A6005B030BDC046A8010000EC010000D8
S1131C508800000004ED00E0C4010000440000001E
S1131C60F000000018010000F0B55F4656464D46EE
S1131C704446F0B485B0BD4C7C44BD4BE3580122CE
S1131C801A7000253E215D5440215D543F215D546E
S1131C9041215D541D7142215A54B64BE3580093BF
S1131CA0B5487844142100220023B44EA659B04705
S1131CB0B34BE6583060C820B24BE35898473668B7
S1131CC0B14BE3589847021C0095301C01210023B6
S1131CD0AE4D6559A847A64BE65800250820804616
S1131CE03278D2B2112A01D100F0E0FB19D80B2AC4
S1131CF00DD8062A00D313E3012A32D0002A01D1D9
S1131D0000F052FC042A00D376E200F04DFC0E2AC7
S1131D1000D172E301D200F0FDFB102A21D000F0C3
S1131D2043FC7B2A10D87A2A01D300F09CFB502A6A
S1131D3001D200F039FC532A00D8FDE1703A012A9F
S1131D4000D887E100F030FC9A2A01D200F02CFC84
S1131D509B2A00D8AEE2EE2A01D100F0C8FB00F0C5
S1131D6023FC834BE35803933F230399CB5C002B61
S1131D7000D11DE17E4BE35803933E23039AD35CC9
S1131D80002B00D114E17A4BE35803934123039FC2
S1131D90FB5C002B00D00BE1754BE7583423FA5C55
S1131DA0D2B26023FA542D23FA5CD2B24423FA54FB
S1131DB03023FB5CDBB2FB86FB8E1B019BB2FB86F4
S1131DC02F22B95C0F2081460B1C0340F98E1B03A4
S1131DD00B43FB863321795CC9B23987398F0901FA
S1131DE089B2398732217B5C18403B8F000318434A
S1131DF038873120385C00027887795C788F4B46CD
S1131E009943014379872E21795C0902B987B95C2A
S1131E10BA8F0B1C484683431343BB875A4BE35882
S1131E209847B864BB6CBA8FD318BB64FB8E3A8FE7
S1131E305B00D318FB64FB6CBA6CD318FB64FB6CBB
S1131E40F533FF337B65FB8E3A8FD3183B653B6DCF
S1131E50BA6CD3183B65FA8EFA239B00101C5843C6
S1131E607B8F1BB2002B08DA414BE358598F494250
S1131E7089B2474BE358984706E03D4BE358598FE6
S1131E8009B2434BE358984783B2394AA7585A22B8
S1131E90BB52798F5823F952402101207854B95A02
S1131EA0090A8C465C218B46614658463954BA5A15
S1131EB0FF208446011C11405D203954FA5A120A4D
S1131EC05E217A54FB5A62461A405F23FA54602317
S1131ED0FB5C9C463223614659436223F9525023EA
S1131EE03B704323FD5403237B760123BB76FD76AD
S1131EF01A233B7759467B5CDBB27B773B5CDBB2D6
S1131F00BB77244BE358984780229204224B5A61B2
S1131F10381C19300621214BE3589847184BE358D5
S1131F201F68194BE3589847021C0095381C02217E
S1131F302B1C164FE759B847194BE3589847194BD0
S1131F40E3581A68D369002BFCD15168164B0B4037
S1131F505360144BE0588571054BE358191C193133
S1131F600722124BE35898471EE3C046D03D0000B9
S1131F70A8010000B00100005E3D00001400000054
S1131F8044000000D8010000BC000000180100005B
S1131F9040010000480000000044004150010000DE
S1131FA0F0010000A0010000FFFFFDFFE4010000BC
S1131FB0B44BE35803931B78012B0ED1B14BE75874
S1131FC03B78DBB27B700F233B70FA204000AE4BB2
S1131FD0E35898477B78DBB23B70AA4BE3580393F2
S1131FE09B785BB2002B03DA80229204A74B5A61E0
S1131FF0A44BE0580523437601238376193002214C
S1132000A34BE3589847A34BE3581F68A24BE358EC
S11320109847021C0095381C02212B1C9F4FE7593E
S1132020B8479F4BE35898479E4BE3581A68D369C7
S1132030002BFCD151689C4B0B405360994BE058EA
S11320408571904BE358191C19310322974BE358BF
S11320509847A9E28B4BE7587D760123BB768E4BDC
S1132060E3589847BB6C984204D2864BE358DD761C
S11320701D772EE0834BE3581B6D98420AD8814BA1
S1132080E3585E229A5CD2B2DA765F229A5CD2B2CC
S11320901A771EE07B4BE358DB6C984204D8794BEB
S11320A0E358DD761D7714E0764BE3585B6D984278
S11320B009D8744BE358DD761D7771221A707C4B76
S11320C0E358984705E06F4BE358DD761D7772229D
S11320D01A706C4BE05845776023C35CDBB283779E
S11320E0193006216A4BE35898476A4BE3581F6836
S11320F0694BE3589847021C0095381C02212B1C9D
S1132100664FE759B847664BE3589847654BE35821
S11321101A68D369002BFCD15168634B0B405360A0
S1132120604BE0588571574BE358191C193107224D
S11321305E4BE358984737E2524BE35803225A76F2
S113214001229A76DD761878503803281ED803F0D9
S1132150D9FA020910174B4BE35803931A23039A35
S1132160137713E0474BE35803931B23039F3B77F9
S11321700CE0444BE35803931C230398037705E0D6
S1132180404BE35803931D2303990B773D4BE058D1
S11321905C23C35CDBB243775D23C35CDBB2837730
S11321A0193006213A4BE35898473A4BE3581F68D5
S11321B0394BE3589847021C0095381C02212B1C0C
S11321C0364FE759B847364BE3589847354BE358F1
S11321D01A68D369002BFCD15168334B0B40536010
S11321E0304BE0588571274BE358191C19310722ED
S11321F02E4BE3589847D7E1224BE35804225A76F2
S113220001229A76DD761B78042B06D11D4BE35808
S113221003930123039A137705E01A4BE3580393BE
S11322200223039F3B77174BE358181C19300421F2
S1132230174BE3589847174BE3581F68164BE3585E
S11322409847021C0095381C02212B1C134FE75998
S1132250B847134BE3589847124BE3581A68D369AD
S1132260002BFCD15168104B0B4053600D4BE058D0
S11322708571044BE358191C193105220B4BE358A3
S1132280984791E1A8010000D801000000440041F2
S11322905001000044000000BC00000018010000D0
S11322A0F0010000A0010000FFFFFDFFE4010000B9
S11322B074000000BF4BE058092343760123837662
S11322C0C57605774577857719300621BA4BE358EB
S11322D09847BA4BE3581F68B94BE3589847021C18
S11322E00095381C02212B1CB64FE759B847B64B52
S11322F0E3589847B54BE3581A68D369002BFCD1CF
S11323005168B34B0B405360B04BE0588571A94BF7
S1132310E358191C19310722AE4BE358984743E19F
S1132320A44BE35803225A7601229A76DD765D7730
S113233018780638052831D803F0E4F9030A11198E
S113234021299C4BE35801221A7709229A7725E028
S1132350984BE35802221A7701229A771EE0954B94
S1132360E3581A221A775D77FF229A7716E0914B89
S1132370E3581B221A775D77FF229A770EE08D4B84
S1132380E3581C221A775D77FF229A7706E0894B7F
S1132390E3581D221A775D77FF229A77854BE3581D
S11323A0181C19300621844BE3589847834BE35893
S11323B01F68834BE3589847021C0095381C022180
S11323C02B1C804FE759B8477F4BE35898477F4B06
S11323D0E3581A68D369002BFCD151687C4B0B403D
S11323E053607A4BE0588571724BE358191C1931CC
S11323F00722784BE3589847D6E06E4BE058022307
S1132400437601238376C57605774577857719303A
S11324100621694BE3589847684BE3581F68684B9B
S1132420E3589847021C0095381C02212B1C654F69
S1132430E759B847644BE3589847644BE3581A6824
S1132440D369002BFCD15168614B0B4053605F4B47
S1132450E0588571574BE358191C193107225D4B1D
S1132460E3589847A0E0554BE3581F68544BE35892
S11324709847021C0095381C02212B1C514FE75928
S1132480B8474C4BE35803939B78DBB2802B00D1C5
S11324908AE0484BE35803939B784046034200D1BB
S11324A082E0802292044C4B9A617DE0434BE358D6
S11324B01F68434BE3589847021C0095381C0221BF
S11324C02B1C404FE759B8473A4BE35803939B788A
S11324D0DBB2802B68D0374BE35803939B7841469B
S11324E00B4261D0802292043B4B9A615CE0334BF7
S11324F0E3581F68324BE3589847021C0095381C78
S113250002212B1C2F4FE759B84780229204324BEB
S11325109A6149E0274BE35803225A7601229A76BE
S1132520DD761B780C2B06D1224BE35806221A7752
S11325305D779D7707E01F4BE35806225A77722296
S11325409A774B221A77254BE3589847194BE3584F
S1132550181C19300621184BE3589847174BE358B9
S11325601F68174BE3589847021C0095381C02213A
S11325702B1C144FE759B847134BE3589847134B98
S1132580E3581A68D369002BFCD15168104B0B40F7
S113259053600E4BE0588571064BE358191C1931F2
S11325A007220C4BE3589847281C0D4BE3589847D7
S11325B0FFF796FBA8010000500100004400000052
S11325C0BC00000018010000F0010000A0010000A0
S11325D0FFFFFDFFE401000000440041480000004B
S11325E0200100007047C04630B50F4A7A440F4BB3
S11325F07B441B78002B10D10D4B7B440D4D7D4447
S11326005D600D4C1259002414609D605460DD60BF
S113261094601D61D46001221A708000074B7B44D2
S11326201818416030BDC0465C3400008CDEFF1FCA
S113263082DEFF1FE3FFFFFFD00000005EDEFF1F0E
S113264070B584B0061C084C7C4403AD281C0749B3
S113265079440422064BE3589847301C054BE35851
S11326609847285604B070BD00340000B833000009
S113267054000000E001000008B5034B7B445B6894
S11326800020984708BDC04600DEFF1F08B5034B75
S11326907B449B680120984708BDC046ECDDFF1FC2
S11326A008B5034B7B44DB680220984708BDC0464D
S11326B0D8DDFF1F08B5034B7B441B6903209847F3
S11326C008BDC046C4DDFF1FF0B55F4656464D4603
S11326D04446F0B49BB0061C0C1C0892C64D7D44C5
S11326E009953160081CC54BEB589847021C2368B8
S11326F00520DF0700D577E123681C20990700D562
S113270072E1BF4B186A951C0127391CA94001438B
S113271019622D23089D1F1CEB5C19A90B70143240
S1132720D2B29146101CB74B099DEB5898474846C6
S1132730B54BEB589847089DE85D0021B34B099DC4
S1132740EB589847089DEB7A73712423EB5CB371C3
S11327502523EB5CF371EB7E33722B7F7372376846
S1132760B946381CA54B099DEB58984714300022F4
S11327706B464E331A80089D2D8AA8468023DB01C0
S11327809D421CD08023DB019D4204D880239B0101
S11327909D420ED007E0C023DB019D420CD0802374
S11327A01B029D4202D0102700250AE003270025C2
S11327B007E01027012504E00827012501E0082788
S11327C00025089909680A91089AD2680C92089B16
S11327D05B690D930899097E0E912623089AD35CB0
S11327E09B4653689A46002B17D080235B059A4575
S11327F03CD12723D35C002B3CD1156AC0B2844B57
S1132800099AD3589847011C281C6A464E32814BBA
S1132810099DEB589847031C29E027230899CB5CB2
S1132820002B0FD00A6A07928B6A06930097101C3C
S1132830191C6A464E322B1C774D099F7F59B847A5
S1132840031C14E00899096A1091C0B2704B099AEC
S1132850D3589847011C009710986A464E322B1C97
S11328606D4D099F7F59B847031C00E00023181ED3
S113287000D0B9E0089D6B7E002B02D0AB7E4F46A2
S1132880BB733268089F099DD369002BFCD108975C
S113289009956B464E331B88484683810C990A9DE3
S11328A029430D9F394350460143424611430E9D2F
S11328B02B0219435F467B0719432723089DEB5CD2
S11328C0002B01D104231943089D287F40026B7E0D
S11328D09B0218436B7F1B0218432423EB5C5B04AD
S11328E018432523EB5C1B041843EB7A18432B890C
S11328F0FF2B04D0802252041143184306E0089DA4
S1132900EB7E002B02D08023DB0419432C23089D8B
S1132910EB5C002B03D1414B9B789F0701D58023AF
S113292019433268089F099DD369002BFCD108978D
S113293009954A4650603268D369002BFCD1089748
S113294009954B461960802218AB1A7000225A7000
S1132950DA709A703D6B14957F6B15970898806BAD
S113296016900899C96B1791002718AA099DA046CB
S1132970141CF9B2BB0014AA9858002803D140468D
S1132980274BEB589847431C06D02070000CC0B26C
S1132990211C244BEB5898470137042FE9D100231D
S11329A0F36033617361B361F3613362B362736281
S11329B00022F385B3853023F2543123F2543223B9
S11329C0F2543323F25430680C4BEB589847041CF0
S11329D0154BEB580A93191C144BEB589847144B9E
S11329E0EB58A400E65000201BB03CBC904699462E
S11329F0A246AB46F0BDC0466A330000E0010000C9
S1132A0000040040700000006C0100006801000038
S1132A10FC000000B00000001C0000000020004189
S1132A20FC010000E801000078010000D80000006B
S1132A30D0000000F0B5474680B482B0051C0F1CDE
S1132A4090460F4C7C4406680E4BE3589847EB8D38
S1132A509BB2002B04D00C4BE358984705200BE0A5
S1132A604346EB85084BE3589847AF62052233236E
S1132A70EA540123B375002002B004BC9046F0BDB3
S1132A80043000008000000008000000F0B5474654
S1132A9080B482B0041C0F1C9046144D7D4406681B
S1132AA0134BEB589847A38D9BB2002B04D0114BCA
S1132AB0EB589847052015E04346A3850D4BEB588A
S1132AC09847676205223223E2540423B375237ABC
S1132AD0002B01D02023B375637A0020002B01D092
S1132AE00823B37502B004BC9046F0BDAC2F0000BF
S1132AF08000000008000000931C9B00C31859606C
S1132B00012393401A1C3023C15C0A43C25470470A
S1132B1030B583B0074C7C441723002A07D0C5790D
S1132B201C23002D03D0044BE3589847031C181CA6
S1132B3003B030BD322F00009400000030B583B0E4
S1132B40074C7C441723002A07D085791C23002DC9
S1132B5003D0044BE3589847031C181C03B030BD42
S1132B60062F0000A80000000368002902D00129F4
S1132B7005D008E004221A760023838503E00222AC
S1132B801A760023C3857047F0B583B0664B7B4447
S1132B90664A9A58800085582C68E369002BFCD15A
S1132BA0237EA67D1E403123EB5C3022AF5C1F40A8
S1132BB0F10720D5EB8D9BB2002B1AD0AB6A1A78A3
S1132BC0D2B2591CA9626979012904D15978090240
S1132BD00A430233AB62D305DB0D2385EB8D013B46
S1132BE09BB2EB85002B06D1012323750223A37529
S1132BF001E001232375B20709D5022323750022BE
S1132C003323EA54FB0702D5281CE9688847720776
S1132C106AD5AB8D9BB2002B64D0638BDBB21907F2
S1132C2002D43F22134001E037221340002B37D057
S1132C309A0707D51A223223EA54628B02231343DC
S1132C40638327E0590707D51E223223EA54628B97
S1132C500423134363831DE0DA0707D513223223C9
S1132C60EA54628B01231343638313E0D90607D527
S1132C7042223223EA54628B10231343638309E014
S1132C8020221A4206D041223223EA54628B2023A6
S1132C90134363837A0727D5281C6B69984723E07D
S1132CA0228DD205D20DD3B2696A0B706B6A591C9E
S1132CB069626979012904D1120A5A706B6A013375
S1132CC06B62AB8D013B9BB2AB85002B0CD1042313
S1132CD0237500223223EA54BA0705D5281C2B6930
S1132CE0984701E004232375F10607D510232375C3
S1132CF02376FA0602D5281CEB699847B10607D556
S1132D002023237523763A0702D5281CAB699847FC
S1132D10310707D5082323752376BA0602D52B6A13
S1132D20281C984703B0F0BDBA2E0000D000000064
S1132D30031C08334360012252428260C360036172
S1132D40002303607047C046002303617047C046F8
S1132D5043684B609A688A609A6851609960086118
S1132D60036801330360704730B50C68021C0832F5
S1132D70631C01D1026905E053681D68AC4201D3AC
S1132D801A1CF9E753684B6099608A6051600861C6
S1132D9003680133036030BD036942688168916050
S1132DA08268416851605A68824201D192685A60CF
S1132DB0002202611868013818607047044B7B4494
S1132DC01B68013301D072B6FEE772B6FEE7C04657
S1132DD042D2FF1F064A13681868203080F309881E
S1132DE0022080F314883FBCAE4662B600BDC046E4
S1132DF00C1D002010B5031F802464041C60043BD8
S1132E001960043B034979441960143B1A60403843
S1132E1010BDC046B3FFFFFF7047C0468022520575
S1132E20034B1A60BFF34F8FBFF36F8F7047C046D9
S1132E3004ED00E072B6054B7B441A6801321A6057
S1132E40BFF34F8FBFF36F8F7047C046C8D1FF1FCA
S1132E50074B7B441B68002B01D172B6FEE7013B94
S1132E60044A7A441360002B00D162B67047C0460E
S1132E70AED1FF1F9ED1FF1FEFF3108072B67047D3
S1132E800020C04680F310887047C046EFF30980E5
S1132E900E4B1A6820381060F0C044464D46564622
S1132EA05F46F0C008B572B601F086F962B60CBC94
S1132EB0116808681030F0C8A046A946B246BB465F
S1132EC080F309882038F0C81847C0460C1D00203C
S1132ED030B583B00A4C7C440A4BE3589847051C30
S1132EE0094BE3589847002803D080225205074B2A
S1132EF01A60281C064BE358984703B030BDC046FF
S1132F00722B0000D0010000A401000004ED00E0D9
S1132F10E40000000022044B1A60044A044B1A60C7
S1132F200722044B1A60704718E000E07FBB0000E2
S1132F3014E000E010E000E000B583B00C4A7A44ED
S1132F400C4B1868FF210904014319601868FF211C
S1132F50090601431960084BD35898470022074BD0
S1132F607B441A60064B7B449847064B7B44984746
S1132F700A2B000020ED00E064000000A0D0FF1F39
S1132F806BFEFFFF4DFEFFFF70B582B0051C184CB1
S1132F907C44430702D007239D430835154BE3586F
S1132FA09847154B7B441B68002B06D1134B7B447D
S1132FB01A1C0C3207218A431A60114B7B445B6F45
S1132FC0ED18104A954209D8AB4209D20E4A7A4408
S1132FD01668F6180D4B7B445D6702E0002600E09E
S1132FE000260B4BE3589847301C02B070BDC04616
S1132FF0B82A0000E8000000F4D4FF1FEAD4FF1F41
S1133000DCEBFF1F67170000CAD4FF1FC2EBFF1FD2
S11330107C010000002801D072B6FEE77047C0466C
S113302070B582B0041C161C1E4B7B44026C002A33
S113303009D1006800282FD160681B4A9A5890472C
S11330400023636028E0002E0ED18068174D5D597F
S11330500195A847A168226C8B18A360606883421D
S11330601AD32168A16017E0C068104D5D5901951D
S1133070A847236C5A42E0688318E36021688B42B6
S113308002D263689A18E260022E05D1A36B002B6A
S113309002D0A36B013BA363A36B0133A36302B010
S11330A070BDC0461E2A0000F80000005400000055
S11330B030B583B001900A1C114D7D44C46C002CC2
S11330C001D172B6FEE7A16BE36B994201D372B6EC
S11330D0FEE7A16B00208B420FD9201C01A9094BEC
S11330E07B4498470020636A002B06D0201C2430C0
S11330F0054BEB589847431E984103B030BDC0467A
S11331008E2900003DFFFFFFC800000070B582B0AB
S11331100A4B7B440568002D0DD0026CC668B418B8
S1133120C4604668B44200D3C560C468081C211C4E
S1133130034C1C59A04702B070BDC046362900009C
S113314054000000F0B583B0041C2B4D7D442B4B80
S1133150EB589847A36C002B21DD271C2437284EFD
S11331607E44E36C002B08D0201C0021B0470128CA
S11331700FD1244BEB5898470BE0636A002B0ED019
S1133180381C214BEB589847002802D01D4BEB58B4
S11331909847A36C013BA364A36C002BE1DC0123DF
S11331A05B42A364194BEB589847144BEB58984770
S11331B0636C002B17DD2369002B14D0271C1037F8
S11331C0114BEE5802E02369002B0CD0381CB04799
S11331D0002802D00B4BEB589847636C013B6364A7
S11331E0636C002BEFDC01235B426364074BEB58F9
S11331F0984703B0F0BDC046FC280000040200005C
S11332004DFFFFFF98010000C800000010000000FF
S113321070B582B0041C0E1C1B4D7D44002801D1E6
S113322072B6FEE7194BEB5898472368226CE06BA3
S11332305043191861600021A163A360821A9B188E
S1133240E36001235B426364A364002E0DD1216912
S1133250002912D0201C10300D4BEB589847012840
S11332600BD10C4BEB58984707E0201C10300A4B4D
S1133270EE58B047201C2430B047084BEB58984711
S1133280012002B070BDC0462E28000004020000D8
S1133290C800000024010000B40000001000000079
S11332A0F0B583B0061C0F1C134D7D44002814D0C8
S11332B05020124BEB589847041E0ED0381C704314
S11332C001300E4BEB5898472060002807D1201C92
S11332D00B4BEB58984700E0FEE772B6FCE7E66359
S11332E02764201C0121074BEB5898470023E36413
S11332F0201C03B0F0BDC0469E270000AC000000B7
S11333006C000000BC010000F0B55F4656464D4617
S11333104446F0B487B0051C0F1C03921E1C5C4C81
S11333207C44002801D172B6FEE7002904D1026C66
S1133330002A01D072B6FEE7022E04D1EB6B012BFA
S113334001D072B6FEE7534BE3589847002802D1E8
S1133350039A002A07D1002399464F4BE35802935E
S113336004AA904601E072B6FEE7029B9847AB6B55
S1133370EA6B934201D3022E25D1281C391C321C3E
S1133380464B7B449847EB6C002B0AD0281C311C1D
S1133390434B7B449847012810D1424BE35898474C
S11333A00CE06A6A002A09D0281C24303E4BE358FA
S11333B09847012802D13B4BE35898473B4BE358CD
S11333C0984701205DE0039B002B04D1374BE35861
S11333D09847002055E04A46002A05D14046344B20
S11333E0E358984701239946304BE3589847314BAB
S11333F0E3589847284BE35898476B6C013301D145
S113340000236B64AB6C013301D10023AB64274B05
S1133410E3589847404603A9274BE35898470028A8
S113342027D11D4BE3589847AA6B9346EB6B9A46FA
S11334301E4BE3589847D34513D1281C10300399E9
S11334401E4BE3589847281C1D4B7B4498471D4B43
S1133450E3589847002800D087E7124BE358984771
S113346083E7281C184B7B449847164BE35898472E
S11334707BE7281C154B7B449847124BE35898472D
S1133480002007B03CBC90469946A246AB46F0BD2E
S113349028270000DC010000040200009BFCFFFF61
S11334A01BFDFFFF24010000C80000001000000005
S11334B000020000E8000000E000000058000000E6
S11334C0F7FCFFFF7C010000DBFCFFFFCBFCFFFFF0
S11334D0F0B54F464646C0B483B0041C8946171C59
S11334E01D1C304E7E44002801D172B6FEE700292F
S11334F004D1036C002B01D072B6FEE7022D36D145
S1133500E26B012A3DD072B6FEE7201C49462A1C14
S1133510254B7B449847A36C01331FD1E36C002BEC
S11335200CD0201C291C214B7B44984701250128E1
S11335302DD1002F17D001233B6028E00125626ABA
S1133540002A24D0201C2430194BF3589847002813
S11335501DD0002F09D001233B6018E0A36C013378
S1133560A364012513E0012511E001250FE0114BAF
S1133570F35898478046A36BE26B9342C5D300256A
S113358005E00C4BF35898478046A36BBDE74046D3
S1133590094BF3589847281C03B00CBC9046994635
S11335A0F0BDC046642500000BFBFFFF85FBFFFF59
S11335B0C8000000D0010000E4000000F0B55F4640
S11335C056464D464446F0B487B0051C0E1C039283
S11335D09946644C7C44002801D172B6FEE7002968
S11335E004D1036C002B01D072B6FEE75E4BE358A6
S11335F09847002802D1039B002B08D1002398464A
S11336005A4BE358029304AF01239A4601E072B681
S1133610FEE7029B9847AB6B002B33D0EF68281C66
S1133620311C534B7B4498474B46002B17D1AB6B53
S1133630013BAB632B68002B03D14E4BE3589847F7
S113364068602B69002B18D0281C10304A4BE358B3
S11336509847012811D1494BE35898470DE0EF6092
S11336606B6A002B09D0281C2430434BE35898473D
S1133670002802D0414BE3589847414BE358984700
S1133680012068E0039B002B04D13D4BE35898478D
S1133690002060E04346002B04D1381C394BE3582A
S11336A09847D046364BE3589847374BE3589847EA
S11336B02E4BE35898476B6C013301D100236B64A4
S11336C0AB6C013301D10023AB642D4BE358984715
S11336D0381C03A92D4BE3589847002833D1234BBA
S11336E0E3589847AB6B9B46254BE35898475B469A
S11336F0002B20D12B68002B09D11C4BE358984791
S11337006868234BE35898471D4BE3589847281C97
S1133710243003991F4BE3589847281C1E4B7B44C5
S113372098471E4BE3589847002800D071E7134B85
S1133730E35898476DE7281C194B7B449847174B6F
S1133740E358984765E7281C164B7B449847134B6E
S1133750E3589847002007B03CBC90469946A246DF
S1133760AB46F0BD74240000DC010000040200003C
S1133770E5FAFFFF5C010000C8000000240100001E
S11337801000000000020000E8000000E00000005B
S1133790000100005800000023FAFFFF7C01000034
S11337A007FAFFFFF7F9FFFF70B582B0041C0E1C87
S11337B0104D7D44104BEB589847636C013301D195
S11337C000236364A36C013301D10023A3640B4B76
S11337D0EB589847A36B002B05D1201C2430311CD7
S11337E0074BEB589847201C064B7B44984702B084
S11337F070BDC046962200000402000010000000C4
S11338000C01000057F9FFFF002801D172B6FEE752
S11338100023084A7A444169914209D1836A064ADD
S11338207A441432934202D05A42534100E00023B6
S1133830181C7047FCE3FF1FF0E3FF1F0A4B7B4497
S11338409B6A1B68002B05D101225242074B7B4423
S11338501A6008E0064B7B449B6ADB68DB685A68A5
S1133860044B7B441A607047D2E3FF1FB6C7FF1FA7
S1133870BAE3FF1FA2C7FF1F10B582B0041C164B8A
S11338807B44164A9A5812685060154A7A44D26AA0
S113389090420BD2134A7A44106B104A9A5811681A
S11338A00431114A9A580192904712E00F4A7A441F
S11338B0906A0A4A9A58116804310B4A9A5801923C
S11338C090470B4B7B441B689C4202D2094B7B44C0
S11338D01C6002B010BDC046C82100003C000000BE
S11338E084E3FF1F7AE3FF1F3C01000062E3FF1F34
S11338F040C7FF1F36C7FF1FF0B55F4656464D460B
S11339004446F0B485B080460F1C161C9B46754D8A
S11339107D44002801D172B6FEE70E9A042A01D92B
S113392072B6FEE74020704BEB589847041E00D156
S1133930CEE0109B002B00D0B7E0B0006A4BEB58F0
S113394098472063002800D0B1E0201C674BEB5857
S11339509847BDE0F95CE21834321170FA5C002A31
S113396002D00133052BF5D100223823E2540E9FF7
S1133970042F00D90427E762E763221D9146101C37
S11339805B4BEB5801939847201C1830019B9847D8
S113399024610523DF1BA7616462301C41465A463B
S11339A0544BEB58984720600F9A002A00D01460BB
S11339B0514BEB589847514B7B445A6B01325A6335
S11339C04F4BEB581B68002B34D14D4BEB581C600C
S11339D04C4B7B445B6B012B3BD14B4B7B441E1C00
S11339E038361F1C9C37494BEB580093301C009B06
S11339F098471436BE42F9D1454A7A4490461C236E
S1133A009B46C3445846414BEE58B0473022924639
S1133A10C2445046B0473F4F7F44381C1430B0472F
S1133A2040464430B047381CB0475B46BB62524600
S1133A303A630EE0384B7B449B6D002B09D1304B2D
S1133A40EB581B68DB6A0E9A9A4202D32C4BEB5854
S1133A501C60324A7A44D36D0133D365E36A126E33
S1133A60934202D92E4A7A4413669A00D3189B00D3
S1133A702C4878443830C01849462B4BEB589847AB
S1133A802A4BEB5898472A4B7B449B6D0120002B13
S1133A9020D01B4BEB581B68DB6A0E9A9A4219D94B
S1133AA0244BEB589847012014E0109B0363224AEF
S1133AB0B3189B00226BD31807221E1C96433A7836
S1133AC03423E2543B78002B00D14DE7012341E736
S1133AD00120404205B03CBC90469946A246AB4604
S1133AE0F0BDC04638210000AC0000006C000000AE
S1133AF08C000000F40100000402000058E2FF1FE3
S1133B003C0000003EE2FF1F34E2FF1FB40000004F
S1133B1096E2FF1FF8E1FF1F5AE2FF1F3CE2FF1F7E
S1133B202AE2FF1F9EE1FF1F780000001000000042
S1133B3008E2FF1F24010000FFFFFF3F70B582B0C1
S1133B40051C1E4C7C44002801D172B6FEE71C4BB8
S1133B50E3581B6898422ED01A4BE3589847281C08
S1133B60194B7B449847012822D12E1D301C174B3A
S1133B70E3589847EB6A164A7A44126E934202D984
S1133B80144A7A4413669A00D3189B001248784466
S1133B903830C018311C114BE3589847084BE35890
S1133BA01B68EA6ADB6A9A4202D30D4BE3589847D2
S1133BB00C4BE358984702B070BDC046041F000088
S1133BC03C00000004020000A3FCFFFFF40000001E
S1133BD018E1FF1F0EE1FF1F82E0FF1F78000000C5
S1133BE02401000010000000F0B5474680B482B004
S1133BF0051C244C7C44002801D172B6FEE7224BFC
S1133C00E35898478046281C204B7B44984700265D
S1133C1001282ED11E4B7B449B6E002B20D11D4BC3
S1133C20E3581B68DB6AEA6A9A4276412F1D381C06
S1133C30194BE3589847EB6A184A7A44126E934238
S1133C4002D9174A7A4413669A00D3189B00154880
S1133C5078443830C018391C134BE358984708E0AF
S1133C60291C18311148784414300F4BE3589847F5
S1133C70002640460E4BE3589847301C02B004BC63
S1133C809046F0BD541E0000D0010000FBFBFFFF76
S1133C907AE0FF1F3C000000F400000056E0FF1F24
S1133CA04CE0FF1FC0DFFF1F78000000AADFFF1FEA
S1133CB0E400000030B587B0144C7C44002300932A
S1133CC001930293039312487844124979448C2255
S1133CD0114D6559A847012811D1104BE358984755
S1133CE001280CD172B601220D4B7B449A65002247
S1133CF00C4B7B44DA620C4BE358984703E00028F2
S1133D0001D172B6FEE707B030BDC0468E1D00007B
S1133D1035040000401D00005C0000004401000068
S1133D20A6DFFF1F1EDFFF1F50000000024B7B4475
S1133D309A6E01329A66704762DFFF1F30B583B016
S1133D40064C7C44064BE3589847064B7B44DD6A9B
S1133D50054BE3589847281C03B030BD061D0000EE
S1133D6004020000C4DEFF1F1000000030B583B061
S1133D70064C7C44064BE3589847064B7B44DD6A6B
S1133D80054BE3589847281C03B030BDD61C0000EF
S1133D90D001000094DEFF1FE4000000F0B5574698
S1133DA04E464546E0B482B04A4D7D444A4B7B447E
S1133DB09B6E002B00D078E0484B7B44DA6A0132DA
S1133DC0DA62DF6A002F15D1454B7B449B6A1B687E
S1133DD0002B01D072B6FEE7424B7B449A6A196B02
S1133DE099621A63404B7B44DA6E0132DA663F4BC8
S1133DF07B4498473E4B7B441B6800249F4246D338
S1133E003C4A7A4492463C4B7B443833994600E022
S1133E1001245246936A1B68002B05D101225242A9
S1133E20364B7B441A6032E0354B7B449B6ADB683B
S1133E30DE6873689F4203D2324A7A44136026E0F4
S1133E40331D9846181C304BEB589847B26A002A29
S1133E5004D0301C18302C4BEB589847F36A2B4A8B
S1133E607A44126E934202D9294A7A44136698001E
S1133E70C018800048444146264BEB589847264BCF
S1133E80EB581B68F26ADB6A9A42C1D2C1E7224B43
S1133E90EB581B68DB6A9A00D3189B001F4A7A44CC
S1133EA0D3189B6B012B07D807E01D4B7B441A6F7B
S1133EB001321A67002400E001241A4B7B445B6F33
S1133EC0002B00D00124201C02B01CBC9046994653
S1133ED0A246F0BD9E1C0000E2DEFF1F56DEFF1F5F
S1133EE046DEFF1F36DEFF1FAADEFF1F49FAFFFF73
S1133EF00EC2FF1F0EDEFF1F08DEFF1FE2C1FF1F01
S1133F00E6DDFF1FCAC1FF1FF400000030DEFF1F03
S1133F1026DEFF1F780000003C00000072DDFF1F5A
S1133F20E4DDFF1FD4DDFF1FF0B54F4680B482B03F
S1133F303F4C7C443F4B7B449B6E002B01D172B6BB
S1133F40FEE73D4BE35898473C4B7B449A6E013A5D
S1133F509A669B6E0025002B61D1394B7B445B6BC9
S1133F60002B5CD0374A7A449146374B7B441E1C65
S1133F70383629E0354B7B441B6ADD68281C183031
S1133F80334BE358019398472F1D381C019B9847E6
S1133F90EB6A304A7A44126E934202D92E4A7A442A
S1133FA013669800C01880003018391C2B4BE35856
S1133FB098472B4BE3581B68EA6ADB6A9A4203D39F
S1133FC00122284B7B445A674A465269002AD1D1C0
S1133FD0254B7B441B6F002B17D0244B7B441B6F5A
S1133FE0002B12D0224BE3580193224E7E4401252C
S1133FF0019B9847002800D075671F4B7B441A6FBC
S1134000013A1A671B6F002BF2D11C4B7B445B6F88
S11340100025012B03D11A4BE35898470125194B6E
S1134020E3589847281C02B004BC9146F0BDC04632
S1134030161B00005ADDFF1F0402000046DDFF1FAF
S1134040B4DCFF1FAADCFF1FA4DCFF1F9ADCFF1FE8
S1134050F4000000FCDCFF1FF2DCFF1F780000000E
S11340603C000000CCDCFF1FBEDCFF1FB4DCFF1FE4
S1134070A4010000A4DCFF1F94DCFF1F84DCFF1FED
S1134080240100001000000030B583B0051C134C5F
S11340907C4400281DD0124B7B449B6E002B01D026
S11340A072B6FEE70F4BE35898470F4B7B44DB6A2D
S11340B0ED180E4BE358186804300D4BE35898473D
S11340C0281C0C4B7B4498470B4BE358984700281B
S11340D002D10A4BE358984703B030BDB819000029
S11340E0F8DBFF1FE800000064DBFF1F3C0000005A
S11340F0F4000000B1F7FFFF7C0100002401000080
S1134100F0B54F464646C0B483B01E4C7C441E4EA8
S11341107E441E4A7A4490461D4F7F4427E01D4B3F
S1134120E35898477D6C1C4BE3589847002D1ED0EC
S11341301A4BE35898471A4D7D442B6DDA68914623
S1134140101C0430174BE3589847174B7B445A6BA9
S1134150013A5A636B6E013B6B66144BE358984704
S11341604B46186B124BE558A8474846A847736E50
S1134170002BD4D14246926B012AF8D90D4BE35857
S11341809847F4E73C19000080DBFF1FFCDAFF1FAF
S113419076DBFF1FE80000007C0100000402000041
S11341A058DBFF1FF4000000C4DAFF1F10000000FA
S11341B06C0000002401000030B527487844274BE8
S11341C07B449B6E002B04D00122254B7B445A6711
S11341D041E0244B7B4400225A671B6E9A00D3189B
S11341E09B00214A7A44D3189B6B002B1BD11F4B95
S11341F07B441B6E002B05D102E0226E002A07D1FE
S113420072B6FEE71A4B7B441A4D7D441A4C7C442B
S11342101A6E013A1A661A6E91008A189200AA1848
S1134220926B002AE9D0154B7B441B6E9A00D3187D
S11342309B00134A7A443832D3185A6852685A6039
S1134240191C08318A4201D152685A605B68DA68E5
S11342500C4BC3581A6030BD8C180000D0DAFF1F15
S1134260C4DAFF1FBCDAFF1F2CDAFF1FA0DAFF1F1E
S11342708ADAFF1F06DAFF1F82DAFF1F68DAFF1FE0
S1134280DCD9FF1F3C00000070B582B0051C2A4C2D
S11342907C442A4BE3589847002D02D1284BE3581D
S11342A01D682E1D301C274BE3589847AB6A002B22
S11342B004D0281C1830234BE358984722487844EC
S11342C0311C224BE3589847214BE35898471C4B29
S11342D0E3581B689D421ED11E4B7B449B6D002BF3
S11342E00AD01D4B7B449B6E002B01D072B6FEE7B7
S11342F01A4BE35898471CE0194B7B445A6B1B68D4
S1134300934204D10E4BE35800221A6011E0154B7E
S1134310E35898470DE0144B7B449B6D002B08D069
S1134320064BE3589847114B7B449847084BE35896
S1134330984702B070BDC046B817000004020000E0
S11343403C000000F400000052D9FF1F7800000078
S113435010000000B6D9FF1FACD9FF1F24010000D4
S113436016D9FF1F0801000078D9FF1F11F5FFFFC0
S113437070B582B00D1C134C7C44002801D172B678
S1134380FEE7114BE65831681831104BE358984753
S1134390306804300E4BE35898476B1C09D10A4B24
S11343A0E358196804310B4878440B4BE358984799
S11343B006E00A4B7B44D86A2818094B7B4498478B
S11343C002B070BDD01600003C0000003C010000AB
S11343D0F400000068D8FF1F780000005CD8FF1FBD
S11343E0B9F4FFFF70B582B00E1C0D4C7C4400285C
S11343F001D172B6FEE70B4BE558296818310A4B18
S1134400E358984728680430084BE3589847084B0A
S11344107B44D86A3018074B7B44984702B070BD80
S11344205C1600003C00000078000000F40000006E
S113443000D8FF1F5DF4FFFF70B582B0214C7C44AF
S1134440C368DD68002D01D172B6FEE72E1C183654
S1134450301C1D4BE35898471C4B7B449B6E002B30
S113446019D12E1D301C184BE3589847EB6A184A93
S11344707A44126E934202D9164A7A4413669A0019
S1134480D3189B00144878443830C018311C134B9F
S1134490E358984706E0124878441430311C0F4B17
S11344A0E35898470F4BE3581B68EA6ADB6A00201D
S11344B09A4204D901220C4B7B445A67012002B072
S11344C070BDC0460A160000F400000036D8FF1F75
S11344D020D8FF1F16D8FF1F8AD7FF1F78000000BF
S11344E078D7FF1F3C000000D8D7FF1F002801D158
S11344F072B6FEE7044B7B44DB6E0360034B7B44E4
S1134500DB6A43607047C0469AD7FF1F12D7FF1F6C
S1134510F0B583B0041C0F1C184E7E44002801D152
S113452072B6FEE7002901D172B6FEE7144BF358C8
S11345309847144B7B44DA6A3B68581C17D01249DD
S11345407944C96E2068884203D0012561688A4293
S11345500ED26168501A0125834209D98A1AD318E8
S11345603B60201C094BF3589847002500E00025C8
S1134570074BF3589847281C03B0F0BD2E150000D4
S113458004020000DCD6FF1F50D7FF1F000200000A
S1134590100000000122024B7B445A677047C0465A
S11345A0F8D6FF1F024B7B44024A9B581868704799
S11345B0A21400003C000000064B7B449B6D0120CC
S11345C0002B05D0044B7B44986E43425841400075
S11345D07047C046D6D6FF1FCAD6FF1F70B582B03B
S11345E0041C224D7D4400283DD0C36A204AAA58A9
S11345F01268D26A934236D28269002A06DB1C4AC8
S1134600AA581268D26A05218A1A82619A00D318BC
S11346109B00184A7A443832D31862699A421DD1F1
S1134620261D301C144BEB589847114BEB581B6854
S1134630DB6AE362114A7A44126E934202D9104A49
S11346407A4413669800C3189B000E4878443830A7
S1134650C018311C0C4BEB58984704E0044BEB5842
S11346601B68DB6AE36202B070BDC04664140000DC
S11346703C000000FCD5FF1FF40000005AD6FF1FC9
S113468050D6FF1FC4D5FF1F7800000070B582B05C
S1134690041C154D7D44002823D0C26AC36B9A4282
S11346A01FD0061D301C114BEB589847E36BE36297
S11346B0A269002A02DB0522D21AA2610C4A7A44BA
S11346C0126E934202D90B4A7A4413669800C318B7
S11346D09B00094878443830C018311C074BEB580C
S11346E0984702B070BDC046B4130000F400000047
S11346F0D2D5FF1FC8D5FF1F3CD5FF1F780000008F
S113470030B583B0041C114D7D4441602061914259
S11347100DD8D21A0120A3699A4215D20C4B7B44BE
S11347201868211D0B4BEB58984700200CE09A4267
S113473002D20120994207D2074B7B445868211DBD
S1134740044BEB589847002003B030BD40130000E1
S1134750EED5FF1F3C010000D2D5FF1FF0B583B09A
S1134760164C7C44164BE3589847164B7B449B6885
S1134770002B1DD1144D7D442E1C0C36301C134BC4
S1134780E358019398472F1C2037381C019B984706
S11347906E602F6002200C2100220D4BE3589847D5
S11347A0002803D00B4B7B44986001E072B6FEE70F
S11347B0094BE358984703B0F0BDC046E612000029
S11347C004020000A0D5FF1F96D5FF1FB40000000F
S11347D06001000066D5FF1F1000000030B587B0EF
S11347E00F4C7C440F4B7B4498470F4B7B449B6896
S11347F0002B10D00323009300230193029303930F
S11348000A4878440A497944AA220A4D655905950B
S1134810A847002801D172B6FEE707B030BDC046F4
S11348206612000073FFFFFF20D5FF1F0B0200007C
S11348300E1200005C000000F0B54F464646C0B4BE
S113484083B081460E1C90461F1C114D7D440029E7
S113485016D028200F4BEB589847041E12D00E4B4D
S11348607B4498474B462360A6614346E361276235
S11348700A9B6362201D094BEB58984702E0FEE750
S113488072B6FCE7201C03B00CBC90469946F0BD00
S1134890FC110000AC000000F9FEFFFF8C000000DA
S11348A070B586B0194C7C44194D7D44AE68002E19
S11348B028D003910492059005291ADC154BE3587E
S11348C0984702280AD1144B7B44986803A90A9A92
S11348D00023124D65590195A84714E0104B7B4401
S11348E0986803A9002200230C4D65590195A84737
S11348F009E0301C03A91A1C00230A4D65590195CF
S1134900A84700E0002006B070BDC046A211000018
S113491062D4FF1FDC01000044D4FF1FC00000006C
S11349202ED4FF1F24000000F0B55F4656464D46C6
S11349304446F0B485B082462B4E7E442B4BF3584C
S1134940984781462A4B7B445B6B98423DD2294968
S11349507944884600229346274C7C44039426E0FD
S1134960DB681F68DC68251D281C244BF358984716
S1134970201C616A8847E269012A18D1A1697B1861
S1134980BB4208D963602461039C6068291C1C4BEA
S1134990F35898470BE059460091201C3A1C5B469B
S11349A0184C3459A047002801D172B6FEE742469C
S11349B053681C68002CD3D1134A7A44116851609F
S11349C0136001235246136002E00023544623601F
S11349D00E4B7B4449465963484605B03CBC90465F
S11349E09946A246AB46F0BD0E110000BC00000083
S11349F0C6D3FF1FBCD3FF1FB2D3FF1FF4000000B8
S1134A003C0100001801000052D3FF1F3AD3FF1FDE
S1134A10F0B55F4656464D464446F0B489B0694801
S1134A207844834668497944894605AC674A7A44A0
S1134A3092464D466B681E68002E00D1B5E0DB68D7
S1134A401D68634B5F46FB589847201C614B7B44B1
S1134A509847061C0598002840D1B5422DD85E4BD6
S1134A60FB5898475D4B7B445B68DB68D968884694
S1134A70081C04305A4BFB5898474246D269012A15
S1134A8016D143469B69E9184046321C2B1C554EEF
S1134A907E44B04701280BD10023009340460021F7
S1134AA02A1C514D7D59A847002801D172B6FEE752
S1134AB045466B6A4046984714E04C4B7B449868E3
S1134AC0A91B4B4B5E46F3589847434BF358984702
S1134AD0002807D1474BF358984703E03E4B5F4605
S1134AE0FB589847444E7E44444B5846C55854E0BE
S1134AF02168002951DBA26890465369002B05D038
S1134B00101C0430364B5F46FB58984704A83C4BB6
S1134B107B449847031C206809283ED800F0F2FD26
S1134B200505053D2A3805053D2A67684046806924
S1134B30391840461A1C3B1C324F7F44B8470128A1
S1134B402BD14046416A88474246D269012A24D182
S1134B5043469B696768DA190023009340460021A5
S1134B60214FBC465F4667443F68B847002814D1CC
S1134B7072B6FEE7616840468161002901D172B6D0
S1134B80FEE7591840461A1C1F4F7F44B84704E0FB
S1134B9040461E4B5946CB589847B068211C00220A
S1134BA00023A8470028A3D143E7094B5A46D3580A
S1134BB09847201CD047061C0025059BAB4200D11A
S1134BC07BE78BE728100000E6D2FF1FF7FEFFFF0C
S1134BD0E8000000D7FEFFFF7C010000A6D2FF1F03
S1134BE0F40000006DFCFFFF1801000050D2FF1F0D
S1134BF0180000002401000026D2FF1F9C010000C1
S1134C0015FEFFFFC3FBFFFF73FBFFFF6C000000FB
S1134C10FEE7C046F0B583B03B4C7C443B4BE358C5
S1134C2000933B4BE3580098984207D0384BE35825
S1134C300093384BE358009A9A4208D3364BE35812
S1134C400093364BE358009D9D4218D326E0314B28
S1134C50E35800932E4BE358D94300980918890868
S1134C600131890000232A4AA2580192274AA258F6
S1134C70D058019DE85004338B42F9D1DEE7264B2E
S1134C80E3581A1D2549615800910331891A89088E
S1134C9089005218002102C39342FCD1204BE358EF
S1134CA00093FF23009A9A431E4B9A60022190239B
S1134CB05B001D4AD1501D4BD87803218843022242
S1134CC01043D870DE780C25AE4308200643DE700E
S1134CD0174B9F7B3026B74320263E439E739E7B13
S1134CE0AE4330439873987B884302439A73114BC5
S1134CF0596880220A435A600F4BE35898470F4B78
S1134D00E3589847FEE7C0462E0E0000400000001E
S1134D1060000000B80100004C0000004C010000DD
S1134D203000000000ED00E0007000410050004140
S1134D300048004100400041A4000000340100008C
S1134D4000B583B0234B7B4408283ED800F0DAFC3E
S1134D50083D3D0505140C1833008020000237E09F
S1134D601D4B7B44186933E01C4B186A8005800F87
S1134D701B4BC340181C2BE01A4B7B44586927E09B
S1134D80194A7A4412680220104021D01348102195
S1134D90C2681142FCD0154A7A441268510716D5EC
S1134DA00020134A9A589047124B7B449B681B047B
S1134DB01B0C58430CE05023084AD35C00205A07CC
S1134DC006D50D4B7B44D86802E0002000E00B4878
S1134DD003B000BD020D0000E2CFFF1F0008004039
S1134DE000127A00CACFFF1FC2CFFF1FACCFFF1F34
S1134DF0FC0000009ACFFF1F80CFFF1F006CDC0275
S1134E0070B50C4B1C6A01788578407801221040FB
S1134E1080014026B44304432A40D00180229443B5
S1134E20221C0243032001400902034802400A43B2
S1134E301A6270BD00080040FFFCFFFFF0B55F463A
S1134E4056464D464446F0B4264A948A457803783B
S1134E50594259418A4683789C46C17888460379E9
S1134E609946467B077B817B8B4680681E4B7B443F
S1134E70586101235146880004218C430443484669
S1134E801840C00008218C430443404618400001E8
S1134E9010218C43044360461840400120218C4378
S1134EA00443181C384080014027BC430443181CA9
S1134EB03040C0018026B443044307202840000248
S1134EC00A4D2C40044359460B4019030848231C3F
S1134ED003400B4393823CBC90469946A246AB46A2
S1134EE0F0BDC04600080040D6CEFF1FFFF8FFFF0C
S1134EF0FFEFFFFFF0B583B0041C264E7E44C56867
S1134F00037D012B07D1018A01314900224BF3585B
S1134F10281C9847051CA36818011F4BF358291C2B
S1134F2098470F22024000096678B6012378DB0116
S1134F301E43F6B2194B44215E541604411E090562
S1134F40090D31439964E678F600A17809033143E9
S1134F502679B6003143A67C03273E403143268A96
S1134F6036040F4F3E403143E77C3F02E026F60013
S1134F703E403143247D2401302634402143D9640A
S1134F800001121855432D09064B7B44DD6003B024
S1134F90F0BDC0464C0B000040010000000800407A
S1134FA00000FF07BACDFF1F00B508284FD800F056
S1134FB0A9FB154E4E050E1C07234600002047E0B2
S1134FC0244B196A02220A431A62002040E0214B52
S1134FD0996902220A439A61002039E01D4B198A1B
S1134FE002220A431A82002032E01A4B998A0222D2
S1134FF00A439A8200202BE0174A7A44116802235C
S113500019431160134A9384111C1022CB681A426D
S1135010FCD0124A7A4491680E4BD96252689A6263
S113502000229A84191C1022CB681A42FCD00C4B23
S11350307B441A6892B2074B9A84002008E0054A20
S11350404423D05C02210143D154002000E0172006
S113505000BDC046000800404ACDFF1F30CDFF1FF1
S113506014CDFF1F00B5082823D800F04BFB0722FE
S113507022051909170B0D0001201BE0012310E084
S113508002230EE010230CE050230B4AD05C0323D0
S11350901840033843425841C0B20BE0082300E0F3
S11350A00423054AD0681840C01A43425841C0B28C
S11350B000E0002000BDC04600080040F0B591B0FB
S11350C0484F7F44C222D200474B9A60474A5168F6
S11350D01E23994302231943516002AA137000242A
S11350E0161C434BFD58E0B2311CA8470134252C53
S11350F0F9D100230CA8037083708022120282600D
S1135100C3700122027103738373062242704373D6
S1135110384BFB5898470520374BFB589847374B7B
S1135120FC580520A0470028FBD02F4B998A8022E9
S11351300A439A8200240BA84470012686700470E6
S11351402F4BFB58984706202B4BFD58A8472D4B57
S1135150FB58984702A94E604C700C724C720523A0
S11351600B700120284BFB5898470120274BFB5814
S1135170984705A844708470C4700471244B8360FC
S113518080231B02C36006820475C4748474047093
S1135190204BFB5898470820A847184BFC58082078
S11351A0A0470028FBD0104A4423D05C8021494208
S11351B00143D154184A0023137253729372D37269
S11351C0012202A94A604B700B724B7208230B70C8
S11351D000200D4BFB58984700200C4BFB58984778
S11351E011B0F0BD860900000008004000400041F5
S11351F0700000006401000094010000C001000080
S1135200B8000000F801000098000000140100003C
S1135210006CDC020400000000040040064B9969A5
S113522008220A439A610122044B1A70191C0B7854
S11352301342FCD17047C04600040040000C0040FB
S1135240F0B5474680B482B0071C2D4E7E4480469C
S11352500D782D0205434B78002B02D08023DB020E
S11352601D434B7A002B02D080231B031D434C6843
S1135270012C19D9631E1C4210D1022C06D9022319
S1135280002201325B009C42FBD800E000221202A3
S11352903A43904680235B031D4305E024023C43CC
S11352A0A04680239B021D430B7A002B02D080234F
S11352B09B031D43134A53785BB2002BFBDB124B59
S11352C0F3589847114B1F700E4A53785BB2002B6A
S11352D0FBDB0C4B42469A601A1C53785BB2002BE2
S11352E0FBDB084B5968802252020A4015435D607B
S11352F0074BF358984702B004BC9046F0BDC04633
S1135300FC070000000C004080000000080C004076
S11353100800000030B583B0051C0E4C7C440E4AD6
S113532053785BB2002BFBDB0C4BE35898470C4BD8
S11353301D70094A53785BB2002BFBDB064B59689E
S1135340802252020A435A60064BE358984703B03E
S113535030BDC0462C070000000C00408000000057
S1135360040C004008000000F0B583B0051C1E4C7E
S11353707C441E4A53785BB2002BFBDB1C4BE35886
S113538098471C4B1D70194A53785BB2002BFBDB0A
S1135390164F7868C004C00E174BE3589847061C94
S11353A0144B1D707F68FF02FF0F144B1D700F4AD2
S11353B053785BB2002BFBDB0C4B9D682D0AADB21E
S11353C00F4BE3589847002F08D1012D08D90D4BF6
S11353D0E358301C291C9847061C01E00135EE40B7
S11353E0301C03B0F0BDC046D8060000000C0040DD
S11353F080000000040C0040AC010000080C0040D8
S1135400080000004001000030B583B0051C094CC1
S11354107C44094BE3589847084B1D70084B598846
S11354208022D2010A435A80064BE358984703B0BE
S113543030BDC0463806000080000000020C004069
S1135440000C00400800000030B583B0051C124C6D
S11354507C44124BE3589847114B1D70114B5888EC
S11354600005000F5988104A0A405A8059880F4A8B
S11354700A405A80191C8022D2014B881342FCD165
S1135480084B01025888084A02400A435A80084BD4
S1135490E358984703B030BDF805000080000000D1
S11354A0020C0040000C0040FFF0FFFFFFBFFFFFB5
S11354B00800000010B582B0064B7B440C7824022F
S11354C00443054A9A5801929047A4B2034B5C8066
S11354D002B010BD8E050000C8010000000C0040A1
S11354E030B583B0051C0A4C7C440A4BE3589847FA
S11354F0094B1D70094B5D882D052D0F084BE35892
S11355009847281C074BE358984703B030BDC04662
S11355106005000080000000020C0040000C004008
S113552008000000840000007047C04610B582B037
S1135530094C7C44094BE3589847094BE358984776
S1135540084BE3589847084BE3589847074BE358F0
S1135550984702B010BDC046160500009001000037
S1135560100100008C010000DC0000007C00000041
S113557082B0114B7B44114A7A441268002A13D139
S1135580EFF31082002A0BD172B6BFF35F8F0C4A7F
S11355909A580023137001220A4B7B441A7103E0CA
S11355A00022094B7B441A71084B7B441A68013270
S11355B01A6002B07047C046D4040000ECC7FF1F55
S11355C090000000CAC7FF1FC0C7FF1FBAC7FF1F54
S11355D082B00D4A7A440D4B7B4419680139196035
S11355E01B68002B0DD10A4B7B441B79002B08D080
S11355F0084BD35801930123019A1370BFF35F8FB3
S113560062B602B07047C046740400008CC7FF1F26
S11356107CC7FF1F9000000010B584B0084A7A448C
S1135620802403AB1C700C785C704C789C70897877
S1135630D970191C034BD358984704B010BDC04609
S11356402A040000E801000030B5D378002B1ED1F5
S11356501378802B04D01B0680246402234300E0CB
S1135660002354780225AC430AD19478002C03D14A
S11356708024A402234302E0C024E40223434160C3
S11356805478013C012C04D8114C234001E04160C2
S113569000230D042D0CA024E4052C431C43846238
S11356A00D0CD02424062C431C438462D478002C93
S11356B00CD15C0305D59378012B01D1816100E005
S11356C041615378013B012B00D8816030BDC04655
S11356D0FFFFFBFF08B5031C0A1CC10900200029B9
S11356E003D15809C001054940181F210B4001216D
S11356F09940034B7B44984708BDC0460044004191
S113570051FFFFFF02B4714649084900095C490092
S11357108E4402BC7047C046002934D001230022C5
S113572010B488422CD301242407A14204D281421C
S113573002D209011B01F8E7E400A14204D281422C
S113574002D249005B00F8E7884201D3401A1A43A9
S11357504C08A04202D3001B5C0822438C08A042E0
S113576002D3001B9C082243CC08A04202D3001B96
S1135770DC082243002803D01B0901D00909E3E710
S1135780101C10BC7047002801D00020C04307B48F
S1135790024802A14018029003BDC046190000004F
S11357A00029F0D003B5FFF7B9FF0EBC4243891AB4
S11357B01847C0467047C0469C460304F0B51B0C0E
S11357C017043F0C150C1E1C041C000C7E436B4379
S11357D047434543FB18300C1818874202D98023ED
S11357E05B02ED18030CED1863465C434A43360430
S11357F0360CA118000480194919F0BD70B50D4E7E
S11358000D4D0024AD1BAD1005D0A300F358013499
S11358109847A542F9D100F007F9084E084D002435
S1135820AD1BAD1005D0A300F35801349847A54231
S1135830F9D170BD345A0000345A0000345A0000C3
S11358403C5A0000F0B50F2A35D9031C0B439C07C2
S113585035D1161C103E36093501451910350C1C7E
S1135860031C27681F6067685F60A7689F60E7681C
S11358701034DF601033AB42F3D1731C1B01C51825
S1135880C9180F231340032B1BD91C1FA408013470
S1135890A4000023CE58EE500433A342FAD1ED18ED
S11358A0C91803231A4005D00023CC5CEC540133FF
S11358B09342FAD1F0BD051C002AF5D1FAE7051C84
S11358C0F2E71A1CF8E7C04608B5034B002B02D0D8
S11358D0024800F005F808BD00000000F15800007F
S11358E008B5011C00220020002300F019F808BDAF
S11358F038B5094B094DED1AAD1009D0013DAC0086
S1135900E41800E0013D23689847043C002DF9D1D8
S113591000F094F838BDC046485A00004C5A0000C4
S1135920F0B54F464646C0B498462B4BA4251B6899
S11359306D005C5983B0061C0F1C91460193002C2A
S113594044D065681F2D1ADD244B002B02D10120A1
S113595040421CE0C820400000E000BF041EF6D016
S113596000254560A42301985B00C058019920607C
S1135970CC50C4235B00E550C6235B00E550002EE9
S11359800AD16B1C0235AD00636000202F5103B0B7
S11359900CBC90469946F0BDAB00E31888224846FB
S11359A09850C4204000221810680121A9400843DF
S11359B010608422520040469850022EE1D1C62243
S11359C05200A318186801431960DAE71C1C4D340F
S11359D0FF345C51B5E7C046245A000000000000C3
S11359E0497244410000000050696E6700000000E5
S11359F000080042000C0042001000420014004263
S1135A004D4F54004D6F747200000000090A0B0CD6
S1135A1049444C4500000000546D722053766300E5
S1135A204300000010000020F8B5C046F8BC08BCD4
S1135A309E467047C9580000D9000000F8B5C0461A
S10F5A40F8BC08BC9E467047B100000092
S1135A4C00000020F54E0000D1550000F92A00009A
S1135A5C512E000039480000A9370000D905000078
S1135A6C701D0020D13400002D550000540400207A
S1135A7C00000000692B0000E41D00200C1D002018
S1135A8C605C0000EC1D0020D511000038040020DF
S1135A9C392F00004558000071430000F93800000C
S1135AAC00000020152F00004126000015300000D6
S1135ABCB5540000E5110000512D000029550000DB
S1135ACC7155000069530000E93B0000492D0000AA
S1135ADC0C000020352A0000415200005C04002018
S1135AECB9570000FD5700008D2A0000892F0000D3
S1135AFCAD050000312D0000014E00003D3D0000BD
S1135B0C09330000711D0020394400007404002086
S1135B1C901E0020F01D0020E925000029550000EE
S1135B2C11450000852E00002D3D0000E81D0020CD
S1135B3C6D3D0000992D00008D460000E1540000DD
S1135B4CDD4500003D3B0000B9410000E543000089
S1135B5C2955000015530000A1480000A81D002081
S1135B6C894200001D2E0000DC1D0020C926000007
S1135B7C7004002069040000390D0000692D000038
S1135B8C19570000DD4700005D100000A01E002026
S1135B9C610E0000691C0000E01D0020A5450000FA
S1135BACA13200003D4E0000A10700000954000082
S1135BBCE902000019560000892B0000293F00005F
S1135BCCB53C0000110100003D2B000029550000DC
S1135BDCBD500000A94F000095450000BD350000E4
S1135BECF41D00209D3D0000281E0020414D0000A6
S1135BFC910E0000A50300003804002011320000AF
S1135C0C65500000310E000049540000F5110000ED
S1135C1C792E0000B510000089400000B945000041
S1135C2CF9080000112B0000D55600008C1E002032
S1135C3CA5100000F52D00001D52000009080000FD
S10B5C4CED440000352E0000B8
S10F5C5400000000000000000000000040
S1135C6001000000AAAAAAAAFFFFFFFF010000008A
S1135C7000000000FC02002064030020CC0300208C
S1135C800000000000000000000000000000000010
S1135C900000000000000000000000000000000000
S1135CA000000000205A0000000000000000000076
S1135CB000000000000000000000000000000000E0
S1135CC000000000000000000000000000000000D0
S1135CD000000000000000000000000000000000C0
