:10000000004F0020B9480000B5480000B548000086
:1000100000000000000000000000000000000000E0
:10002000000000000000000000000000992B00000C
:100030000000000000000000012C0000452C000022
:10004000B5480000B5480000B5480000B5480000BC
:10005000B5480000B5480000B5480000B5480000AC
:10006000B54800008D0B00009D0B0000AD0B00009B
:10007000BD0B00000000000000000000B5480000BB
:10008000B5480000B5480000B5480000B54800007C
:10009000B54800000000000000000000B548000066
:1000A000B5480000B5480000B5480000B54800005C
:1000B00010B5064C2378002B07D1054B002B02D03E
:1000C000044800E000BF0123237010BD4804002055
:1000D00000000000B86C000008B5084B002B03D0EE
:1000E0000748084900E000BF07480368002B03D019
:1000F000064B002B00D0984708BDC046000000000A
:10010000B86C00004C040020B86C00000000000037
:10011000002801D172B6FEE77047C046F0B55F46D1
:1001200056464D464446F0B483B001223D4B1A700A
:100130001E1C3D4D3D4A914608235B1998462C1CD8
:100140009B463378022B30D0052B45D0012B59D15B
:1001500000239A46364B52461A60364B8022920450
:100160005A61802212055A61304B1F68324B984702
:10017000021C53460093381C0221304FB847304BC5
:100180001B68DA69002AFCD15968802292020A436E
:100190005A6001212A4A9171DA69002AFCD1284863
:1001A00021490322274B98472CE0BB232B726B720B
:1001B000AB72EB722B734A4617681F4B9847021CB1
:1001C00000230093381C02211C4FB8471C484146AD
:1001D00005221D4B984715E0DD2323726372A3723D
:1001E000E3722373114B1F68134B9847021C0023C3
:1001F0000093381C0221114FB84711485946052277
:10020000114B9847114F01233B70BFF35F8F62B6CC
:1002100000200F4B984772B6BFF35F8F00233B70EF
:100220008FE7C0468C16002064040020F8160020DA
:100230008004002000440041193C00009945000062
:10024000C4160020890F0000690F0000180000206C
:10025000C53F000008B572B6BFF35F8F00221A4B8E
:100260001A70002801D172B6FEE7184B1B78032BD9
:1002700008D0DAB2032A02D8012B06D01CE0053BD5
:10028000012B19D80122114B1A700122104B1A6050
:10029000104B18881049114B9847114B802292043B
:1002A0005A61802212055A610E4800210E4B984770
:1002B0000E4B18680E4B984772B6BFF35F8F002243
:1002C000014B1A7008BDC046180000208C16002093
:1002D000800400208416002020580000992A000085
:1002E00000440041C4160020A90F0000FC160020A5
:1002F000513A0000F0B587B0244B984705AC012671
:1003000066700025A57026701B20211C204FB84761
:100310001920211CB8471F4B98471F4B98471F486F
:100320001F4B98471F4B1880022300931E4B0193CD
:10033000029503951D481E49D222520000231D4CF0
:10034000A0471D4B1E70BFF35F8F62B61B4B00931F
:100350001B480221002200231A4EB0471A4C20608D
:100360001A4B00931A48012100220123B047194B70
:1003700018602468184B9847021C0095201C012126
:100380000023164CA047164B9847FEE70951000082
:100390009D5100003D0A0000012600002C5800007D
:1003A000BD26000084160020FC1600201D01000060
:1003B00034580000053800001800002055020000E5
:1003C0003C58000009450000F8160020110100000B
:1003D0004458000088160020193C00009945000090
:1003E000A93B000010B5031C4908402099420CD3DA
:1003F0000024C91A601C80B28B4201D8041CF8E7A3
:100400004020FF2C01D81480002010BD0000000007
:10041000F0B55F4656464D464446F0B487B0061CDC
:100420000D1C049210AA1078321C424340248A42C8
:1004300000D9B3E0002B4BD10021321C5E4CA04709
:1004400083462E1C002700200021002200233F2489
:10045000A4460125A846029003916146203903D4A1
:1004600040468840814605E0202165464C1B4046B9
:10047000E040814641466446A1408A46101C191C52
:1004800080185941021C0B1C5D464C46254202D087
:10049000424602430B1C9F420CD801D1964209D818
:1004A000921BBB415046029D28434946039C214371
:1004B000029003916546013DAC46CED20298039965
:1004C0003C4B3B4A121A8B41120C1B041A4362E04C
:1004D0000022012B5FD14F0FB946CD00AB46002162
:1004E000321C0023344CA047061C0F1C002301259E
:1004F000029603979A465046C0B20590002188465E
:10050000002200233F24271C203F03D42E1CBE4082
:10051000019604E02020071B291CF94001912E1CA4
:10052000A6400096101C191C80185941021C0B1C77
:100530005F463740BC46019E4F463E4067463E43BD
:1005400002D02A1C02430B1C039898420BD802D1FC
:100550000299914207D8029E039F921BBB414746D6
:1005600000980743B846013CCDD2414652468B1A0B
:10057000DB08124CA34208D9059A0132D2B2059287
:100580000126B2445746082FB5D1402405980828C3
:1005900004D042031A43049C22800024201C07B08C
:1005A0003CBC90469946A246AB46F0BDC046C0460C
:1005B000000000000100000019530000FF1F0000B0
:1005C00010B582B0041C0F4B1B78002B01D0002902
:1005D0000DD001A90C7013200B4B984713200B4B27
:1005E0009847084B5C7001221A70002007E0054B09
:1005F0005A781D20141B621E94416442204002B0B0
:1006000010BDC04678040020B550000029500000FD
:100610002E4B98421CD003D82D4B984207D04AE06D
:100620002C4B984225D02C4B984233D043E00129E3
:1006300043D0002904D0022906D0032906D001E0C6
:10064000264841E000203FE025483DE025483BE0CA
:10065000012934D0002904D0022906D0032906D06C
:1006600001E0032030E000202EE01F482CE01F486E
:100670002AE0012925D0002904D0022906D0032927
:1006800006D001E01A481FE000201DE019481BE0D9
:10069000194819E0012916D0002904D0022906D0F2
:1006A000032906D001E015480EE000200CE01448B4
:1006B0000AE0144808E0002006E0134804E013486C
:1006C00002E0134800E013487047C046000C0042A7
:1006D0000008004200100042001400420300040021
:1006E000030006000300070003001E0003001F00B4
:1006F0000300080003000A0003000B0003001000C1
:1007000003001200030013000300050003000100B2
:10071000030009000300110070B584B00E4A694659
:1007200070CA70C112680A60031C009A82420FD01E
:10073000019C844208D0029D854207D00020039E80
:100740009E4207D1032004E0012002E0022000E0E5
:100750000020C0B204B070BD4C58000010B582B08B
:10076000714B1B68002B00D0DCE0704B1A68D3691A
:10077000002BFCD151686E4B0B40536000226B4B39
:100780009A716C4B1B78032B56D0062B00D19BE043
:10079000012B00D0C6E0684B1B68002B0AD1674BC9
:1007A0009847674B1860674B1B68984202D3012239
:1007B000614B1A60644B1A785B7893422FD1624B7D
:1007C0009B7893422BD1AA2A29D15B4B1B68002B23
:1007D00000D1A7E0544B5B68002B04D10122524B9F
:1007E0005A605A4B98470222524B1A70584B18685D
:1007F000584B9847012809D1574B18885749584BEF
:10080000984780225205574B1A608BE00122494BD2
:100810001A70514B18885449514B984782E0012275
:10082000444B1A704C4B188850494D4B98478022C6
:1008300092044F4B9A6175E0434B1A785B78934270
:1008400035D1414B9B78934231D13F4BDB7893427A
:100850002DD13D4B1B79934229D1CC2A27D105229A
:10086000344B1A7080221205414B9A61414B1C682F
:10087000324B9847021C00230093201C07213E4C5A
:10088000A047334B1868334B9847012809D1324BA6
:1008900018883249324B984780225205314B1A60F2
:1008A00040E02D4B188830492D4B98473AE02A4BB1
:1008B00018882E492A4B9847802292042C4B9A6123
:1008C00001221C4B1A702DE01F4B1A785B78934263
:1008D0001CD11D4B9B78934218D11B4BDB78934264
:1008E00014D1194B1B79934210D1EE2A0ED101225B
:1008F000104B1A701F4B1C68104B9847021C0023AA
:100900000093201C07211C4CA0470BE0124B1888B9
:100910001649134B984780229204154B9A61012285
:10092000044B1A7002B010BD80040020C4160020D1
:10093000FFFFFDFF8C16002000000020393C000066
:100940000017002004170020640400200D2600007A
:10095000FC160020F53A0000841600205C580000C8
:10096000992A000004ED00E0685800008458000057
:1009700000440041F81600209945000010B582B0EF
:10098000274B1B78022B02D0052B24D046E00322F4
:10099000234B1A70234B1C68234B9847021C0023DF
:1009A0000093201C0721214CA047214B1B68DA69CA
:1009B000002AFCD15968802292020A435A60012120
:1009C0001B4A9171DA69002AFCD11948194905229C
:1009D000194B984722E00622114B1A70114B1C68E4
:1009E000114B9847021C00230093201C07210F4C39
:1009F000A0470F4B1B68DA69002AFCD15968802296
:100A000092020A435A600121094A9171DA69002A67
:100A1000FCD1074807490522074B984702B010BD93
:100A20008C160020F8160020393C00009945000083
:100A3000C416002064040020890F000070B590B037
:100A40008023DB0500930023019300226846837214
:100A5000C3720124242144542521445426214354A3
:100A6000272143540A932C2143542D2143540593A9
:100A700003820021C17602760277132181764277C4
:100A8000E122520208920381447680235B030393A0
:100A9000194B0C93194B0D9301235B420E930F934B
:100AA000174E301C17496A46174B98473568281C63
:100AB000164B98471F2318408440154B1C60326822
:100AC000D369002BFCD12A68022313432B600C4C02
:100AD000201C10490122104EB0473125625D0223CF
:100AE00013436355201C0D490022B047625D01236A
:100AF0001343635510B070BD0200160002001700CA
:100B0000C416002000140042CD0B0000610B000051
:100B100000E100E05D070000510F00007D090000CA
:100B20007047C04630B50B4B1B78002B0DD1094BDD
:100B3000094D5D60094A002414609D605460DD60C9
:100B400094601D61D46001221A708000014B181856
:100B5000416030BD90040020210B000008170020E8
:100B600030B583B0051C01AC201C05490422054B9F
:100B70009847281C044B9847205603B030BDC04608
:100B800090580000BD5400001907000008B5024B42
:100B90005B680020984708BD9004002008B5024B10
:100BA0009B680120984708BD9004002008B5024BBF
:100BB000DB680220984708BD9004002008B5024B6E
:100BC0001B690320984708BD90040020F0B55F46DC
:100BD00056464D464446F0B493B0051C0C1C161CFA
:100BE0002960081CA94B9847021C23680520D907D7
:100BF00000D543E123681C209F0700D53EE1A44BAC
:100C0000186A911C01278F40391C0143196211A9F0
:100C10002D27F35D0B701432D2B29046101C9D4B01
:100C2000984740469C4B9847F05D00219B4B984766
:100C3000F37A6B712423F35CAB712523F35CEB71C6
:100C4000F37E2B72337F6B7229688846081C8F4BAA
:100C50009847143000226B46DA85328A039280234B
:100C6000DB019A4221D08023DB019A4204D8802301
:100C70009B019A4211D008E0C023DB01039F9F42F1
:100C80000FD080231B029F4203D010270897002714
:100C90000EE00327089700270AE01027089701278E
:100CA00006E008270897012702E008270897002791
:100CB00031680491F268059273690693317E8A4621
:100CC0002623F35C9B4672689146002A13D080234A
:100CD0005B059A422ED12723F35C002B2ED1376A75
:100CE000C0B26F4B9847011C381C6A462E326D4BC0
:100CF0009847031C1FE02723F35C002B0AD00899B8
:100D00000091306AB16A6A462E323B1C664FB84782
:100D1000031C10E0316A0991C0B2614B9847011C75
:100D2000089A009209986A462E323B1C5E4FB847DB
:100D3000031C00E00023181E00D09FE0737E002BF0
:100D400002D0B37E41468B732A68039FD369002B80
:100D5000FCD103976B462E331B8842469381059B3B
:100D6000049F3B43069F3B4349460B43039F1F435E
:100D7000524613021F4359464B071F432723F35C78
:100D8000002B01D104231F43317F4902737E9B0254
:100D90001943737F1B0219432423F35C5B0419433B
:100DA0002523F35C1B041943F37A19433389FF2B82
:100DB00004D0802252041743194305E0F37E002B30
:100DC00002D08023DB041F432C23F35C002B03D1D0
:100DD000364B9B789A0701D580231F432A68D36935
:100DE000002BFCD1434659602A68D369002BFCD103
:100DF00041460F6010AB80221A7000225A70DA70E0
:100E00009A70326B0C92736B0D93B76B0E97F66BF7
:100E10000F96002710AEF9B2BB000CAA9858002814
:100E200002D1201C224A9047431C05D03070000C90
:100E3000C0B2311C1F4A90470137042FEBD1002369
:100E4000EB602B616B61AB61EB612B62AB626B6240
:100E50000022EB85AB853023EA543123EA54322358
:100E6000EA543323EA542868084B9847041C124973
:100E7000124B9847A400124BE550002013B03CBC25
:100E800090469946A246AB46F0BDC0461907000001
:100E900000040040B550000029500000C1050000CA
:100EA000D1500000E50300001104000000200041C3
:100EB000110600004D520000C90F0000250B000074
:100EC00008170020F8B5041C0E1C171C05680A4BF7
:100ED0009847E38D9BB2002B03D0084B9847052021
:100EE00009E0E785054B9847A66205223323E254C3
:100EF0000123AB750020F8BD355100007151000091
:100F0000F8B5041C0E1C171C05680F4B9847A38DE1
:100F10009BB2002B03D00D4B9847052013E0A7850B
:100F20000A4B9847666205223223E2540423AB75CC
:100F3000237A002B01D02023AB75637A0020002B8D
:100F400001D00823AB75F8BD355100007151000088
:100F5000931C9B00C3185960012393401A1C302333
:100F6000C15C0A43C254704710B51723002A06D04B
:100F7000C4791C23002C02D0024B9847031C181C78
:100F800010BDC046C50E000010B51723002A06D0BC
:100F900084791C23002C02D0024B9847031C181C98
:100FA00010BDC046010F00000368002902D00129CE
:100FB00005D008E004221A760023838503E002228C
:100FC0001A760023C3857047F8B58000644BC55876
:100FD0002C68E369002BFCD1237EA67D1E403123C3
:100FE000EB5C3022AF5C1F40F10720D5EB8D9BB24C
:100FF000002B1AD0AB6A1A78D2B2591CA96269794F
:10100000012904D1597809020A430233AB62D3059E
:10101000DB0D2385EB8D013B9BB2EB85002B06D1CD
:10102000012323750223A37501E001232375B20771
:1010300009D50223237500223323EA54FB0702D586
:10104000281CE968884772076AD5AB8D9BB2002BD4
:1010500064D0638BDBB2190702D43F22134001E056
:1010600037221340002B37D09A0707D51A22322394
:10107000EA54628B02231343638327E0590707D5A1
:101080001E223223EA54628B0423134363831DE040
:10109000DA0707D513223223EA54628B0123134364
:1010A000638313E0D90607D542223223EA54628BC8
:1010B00010231343638309E020221A4206D0412201
:1010C0003223EA54628B2023134363837A0727D5A4
:1010D000281C6B69984723E0228DD205D20DD3B22C
:1010E000696A0B706B6A591C69626979012904D1BC
:1010F000120A5A706B6A01336B62AB8D013B9BB273
:10110000AB85002B0CD10423237500223223EA5433
:10111000BA0705D5281C2B69984701E004232375DD
:10112000F10607D5102323752376FA0602D5281C6D
:10113000EB699847B10607D52023237523763A0734
:1011400002D5281CAB699847310707D508232375BA
:101150002376BA0602D52B6A281C9847F8BDC046EC
:101160000817002010B5011E03D10F48FFF7FAFF42
:1011700018E00E4B1B68002B03D10D48FFF7F2FF60
:1011800010E000221A63094A5268002A0AD1074C6B
:101190006060084A98185022074B9847226801213E
:1011A000064BD15010BDC046B0580000AC04002022
:1011B000D8580000DC07000095560000D407000056
:1011C000F8B55F4656464D464446F0B4484B1A685B
:1011D000484B1A60484D494C2C60BF235B019B462D
:1011E000201C00211A1C464B984701218A46617039
:1011F0000223A3700323E3707023237171239946A4
:10120000637172229046A2717327E771F0232372F3
:10121000F12666720E214942A1720D225242E272FB
:10122000384BA3810423A3735B462361FA239B00FD
:10123000A361354B6365354B98472868344A354B75
:10124000C250C82292008523DB00C250324B514667
:10125000C150FE229205FA23DB00C2502F4AFB2325
:10126000DB00C2502E4A80182E4950222E4B984740
:101270002B682E492E4A99500A212E4A99540B2147
:101280002D4A99540C212D4A99540D212C4A9954D8
:101290002C4A494699542C4A414699542B4A9F540A
:1012A00074212B4A99542B4A9E542B4A0E214942B1
:1012B00099542A4A0D2149429954F421284A9954B3
:1012C000284B984729680B78002B08D10B1C0C3150
:1012D0001A7801321A7001338B42F9D102E02248A8
:1012E000224B98473CBC90469946A246AB46F8BD77
:1012F00018E000E0F82E0020AC04002018170020B1
:1013000041550000A11A0000F0F0F0F03523000074
:10131000F1F1F1F1240400002C040000F2F2F2F2E9
:10132000DC0700000C59000095560000F3F3F3F3BE
:101330002C080000D4170000D5170000D6170000B5
:10134000D7170000D8170000D9170000DA170000DF
:10135000DB170000DC170000DD170000DE170000BF
:10136000DF170000E5230000205900006511000090
:1013700008B50B4B1B681A6B002A0ED0DA690949B5
:101380008A4204D90848094B9847002006E090009B
:10139000832212018018181800E0002008BDC04602
:1013A000AC040020E70300004C5900006511000068
:1013B00008B5062904D90F480F4B9847002018E0BC
:1013C000002806D00D4B1B685A18603212798242F1
:1013D00004D20B48084B984700200AE05A18703294
:1013E0001279013850433C3149005B189B88C01882
:1013F00080B208BD7459000065110000AC040020E3
:10140000B459000038B5062804D94E484E4B9847C9
:10141000002095E04D4A4300D3181B899367D218EA
:1014200040321278002A09D1484AD4184034591C55
:10143000051D6D005219D289891A2170434AD118AD
:1014400040310978041C0C346400121992899A42C4
:1014500005D23F4B98473C4B9847002070E0013342
:101460009BB23A4A440014192381041D64001419E4
:10147000E4891B1B041C1434640012195289934222
:1014800004DD221C314CA218DBB25381062856D849
:101490008000304B1B589F46CB082C4A7C320724D7
:1014A0000C400120A040041CD05CA043D054081C78
:1014B00046E0081C0B30C310244A7C32072420402D
:1014C00001248440D05CA043D054081C38E0081CA0
:1014D0001630C3101D4A7C3207242040012484406A
:1014E000D05CA043D054081C2AE0081C2130C31053
:1014F000164A7C320724204001248440D05CA0435B
:10150000D054081C1CE0081C3130C3100F4A7C3238
:101510000724204001248440D05CA043D054081C00
:101520000EE0081C3430C310084A7C3207242040E7
:1015300001248440D05CA043D054081C00E0081C67
:1015400038BDC046F459000065110000AC0400200D
:10155000352400009458000038B5062803D91548F2
:10156000154B984724E0002906D0144B1B681B1824
:1015700060331B798B4203D211480F4B984717E019
:101580000E4B42009A181289541E051D6D005B19FE
:10159000DB899C4203DA0B48074B984708E0013A85
:1015A00092B2064B4000181802819A18403211700E
:1015B00038BDC046385A000065110000AC04002058
:1015C0007C5A0000BC5A000038B5041C151E03D11B
:1015D0001848194B98472BE0062803D91748164B93
:1015E000984725E0002903D11548134B98471FE081
:1015F000144B1B681B1860331B798B4204D2124BAF
:1016000098470D4B984713E0081C211C0F4B984737
:101610000F4B98800B4B5B68002B09D1094B1B6863
:1016200018188C301B1968331A79291C094B9847F4
:1016300038BDC046EC5A0000651100001C5B00007C
:10164000485B0000AC04002035240000B11300000A
:101650002C05002095560000F0B583B0002804D07A
:10166000071C0024002804D14BE02748274B98474B
:1016700047E0274D2B68D86921188E009A198320DE
:10168000000112181278101C6730C0B20E280FD853
:101690006832D2B25118986981422FD20132920039
:1016A000832109017618981900211A4B984725E0E3
:1016B000012A23D10131986981420DD28321090188
:1016C00076189B1900221A705A709A70DA701A7183
:1016D0005A719A71DA7111E0832212019B1800226B
:1016E0001A705A709A70DA7083231B01F618084832
:1016F0000068861932707270B270F2700134BC42A8
:10170000B8D303B0F0BDC046745B000065110000A3
:10171000AC0400204155000008B50B4B1B681A6B48
:10172000002A0FD05A6901325A61DA690132DA614E
:1017300006498A4203D901221A620022DA61012095
:10174000034B984708BDC046AC040020E7030000E7
:1017500059160000F0B583B0041C00230193FF2844
:1017600007D0354B984204D03448354B9847002079
:1017700060E0344B1B68586A00280DD1324A11686A
:10178000324A1268914207D0314A11680131FA2277
:1017900092004A4352085A6201A82E4B9847019B77
:1017A0002D4A91685D1A9360264A1668776A002F61
:1017B0001FD0BD420ED9281C391C284B9847F26A0D
:1017C0001018F062281C391C254B9847B36A591829
:1017D000B16202E0B06A4319B3621A4B1B68996A9E
:1017E0005A6A914206D3D86A0130D8628A1A9A623C
:1017F00000E0B362A5421BD91A4B9847002817D0C6
:101800000D4B9C4206D1A92303702B0C438000236F
:1018100043700BE0FF2C06D1A82303702B0A4380F2
:101820002B0E437002E01048054B98470F4B98472A
:10183000281C204003B0F0BDFFFF0000CC5B00007F
:1018400065110000AC04002018E000E0F82E002034
:1018500014E000E0191B00002C0500207952000064
:1018600001530000711300000C5C00001917000008
:10187000F0B557464E464546E0B482469146284A62
:101880001668EA229200891849008C5B002804D16E
:101890002448254B984700203DE04A46002A02D0C4
:1018A000201E38D004E021481F4B9847002032E02A
:1018B0001A0A9046FF271F40251C33191C4A9B1803
:1018C0001B78BB4216D133191A4A9B181B78434523
:1018D00010D1201D33184B448622D2009B181B7850
:1018E000002B07D18018301851464A46124B9847B2
:1018F00000280DD07519114AAB181C7824028623D4
:10190000DB00ED182B781C19A4B2002CD4D101E017
:10191000201C00E0201C1CBC90469946A246F0BD4D
:10192000AC040020305C0000651100006C5C00001D
:101930003204000033040000DD55000031040000D3
:10194000F8B54F464646C0B4051C141C002804D107
:101950002648274B9847002043E0002A04D1254819
:10196000234B984700203CE0234A12682348105834
:10197000061D3719BC46224FBC4504D921481C4BD3
:10198000984700202DE0EA27BF00C9194900894681
:10199000895A884610188627FF0039541A49474645
:1019A0003F0A0F5419490B54194FC0191B0A0370F1
:1019B0008621C90076189019291C221C154B9847BE
:1019C0000D4B1B680D4A995860181D18124EAD1921
:1019D00000262E704F46F95205309850001B0538EE
:1019E00080B20CBC90469946F8BDC046A45C00008D
:1019F00065110000E05C0000AC0400202C04000035
:101A00001F030000185D00003104000032040000D4
:101A100033040000955600003404000038B5002857
:101A200003D11248124B98471EE0002903D11148F8
:101A30000F4B984718E0002A03D10F480C4B9847EA
:101A400012E00478002C09D0002501232D19013360
:101A5000C418013C2478002CF8D101E000250123B2
:101A60003F2005400D70137038BDC046585D000022
:101A7000651100008C5D0000BC5D0000F0B54746BC
:101A800080B482B0041C0F1C00226B46DA716B46D6
:101A90009A71002804D11848184B9847002027E075
:101AA0006E4606366D460735311C2A1C144B984786
:101AB000144B98478046144AD3680133D360317879
:101AC0002A78201C3B1C114DA847051E08D16B46E7
:101AD00099796B46DA79201C3B1C0D4CA047051CFC
:101AE000094BDA68013ADA6040460A4B9847281CED
:101AF00002B004BC9046F0BDF05D0000651100002E
:101B00001D1A0000ED2B00002C05002071180000AC
:101B100041190000F92B000030B51A4B1B68012B4E
:101B200005D100282DD0174B5B68036029E0164BC8
:101B300019680131154B1A688A1A124B9C68DB68C8
:101B4000DD43E54202D59C4206D11C1C0D4B1B69AE
:101B50009A429B415B42E31800280FD049080C1CB5
:101B60005C43046008490968013101252940594353
:101B700089184908091901600248416001498B60D0
:101B80000A6130BD6005002014E000E018E000E0CC
:101B900070B5041E3DD01F4B1B68002B39D00F2899
:101BA00003D91D481D4B984733E01D4B1B68002B84
:101BB00003D01C48194B98472BE01B4B9847051C3A
:101BC000174B1A6801321A60184B1B681B6B002BED
:101BD00018D0231C2133DA1015498A5C07210B40E9
:101BE0001A41131CDA070DD41248134B9847061CF0
:101BF000124B9847002805D002220270468044709C
:101C00000F4B9847064B1A68013A1A60281C0D4B77
:101C1000984770BD04000020205E000065110000A0
:101C200038050020605E0000ED2B0000AC040020B1
:101C300028050020FFFF0000551700007113000069
:101C400019170000F92B0000F8B5051C0C1C161C18
:101C5000FE2803D92D482E4B984755E0062903D975
:101C60002C482B4B98474FE02B4B1B685B1860337D
:101C70001B79934203D22948254B984744E0284BCF
:101C80001B68002B03D02748214B98473CE0264B8C
:101C90001B78002B38D0254B9847071C204B1A681F
:101CA00001321A601C4B1B681B6B002B25D01E4B8E
:101CB0005B785BB2002B03D11B4B9B78002B1CD1B4
:101CC000F6B2201C311C1A4B9847002815D1EB089E
:101CD000184AD25C07232B401A41131CDA070CD494
:101CE0001548164B9847041C154B9847002804D0FC
:101CF000448005704670134B9847094B1A68013AA7
:101D00001A60381C104B9847F8BDC046D05E0000E2
:101D100065110000045F0000AC040020485F000073
:101D2000380500208C5F000078050020ED2B0000B6
:101D3000852400003C050020FFFF0000551700002F
:101D40007113000019170000F92B0000F8B54F4679
:101D50004646C0B4051C0C1C161C1F1CFE2803D9CB
:101D60003848394B984768E0062903D93748364B3D
:101D7000984762E0364B1A68521860321279B242C4
:101D800003D23448304B984757E0334B1B68002B45
:101D900003D032482C4B98474FE0314B9847804650
:101DA0002D4B1A6801321A60294B1B681B6B002BE4
:101DB0003CD02C4B1B78002B38D02A4B9B78002B27
:101DC00004D0284B5B785BB2002B2FD0F6B2201CDE
:101DD000311C254B9847002828D1EB08234AD25CB8
:101DE00007232B401A41131CDA071FD4FF20204B76
:101DF000984781463C1EFF2C0DD91E4B9847002862
:101E000007D0012303703B0A43703B0C43801A4BFD
:101E10009847FF243C40174B9847002806D04B4674
:101E2000C370057046708470134B98470A4B1A684C
:101E3000013A1A604046114B98470CBC90469946AF
:101E4000F8BDC046C45F000065110000FC5F0000E3
:101E5000AC040020486000003805002098600000B5
:101E6000ED2B000078050020852400003C050020B3
:101E7000551700007113000019170000F92B00001E
:101E8000F0B5474680B4041C0D1CFE2803D92C482D
:101E90002C4B984750E02C4B1B68002B03D02B4851
:101EA000284B984748E02A4B9847061C264B1A684F
:101EB00001321A60274B1B681B6B002B35D0264B59
:101EC0001B78002B31D0244B9B78002B04D0224B65
:101ED0005B785BB2002B28D0E308204AD25C072352
:101EE00023401A41131CDA071FD4FF201C4B9847CC
:101EF00080462F1C1B4B9D420DD91B4B9847002839
:101F000007D001230370002343702B0C4380174B31
:101F100098472D042F0C144B9847002805D04346B2
:101F2000437004704780114B9847074B1A68013A79
:101F30001A60301C0E4B984704BC9046F0BDC0465A
:101F4000D060000065110000380500202461000009
:101F5000ED2B0000AC040020780500203C0500209B
:101F600055170000FFFF0000711300001917000053
:101F7000F92B000070B5061C0C1E062C03D9124864
:101F8000124B98471FE0124B1D686B1860331B798A
:101F9000834203D20F480D4B984714E02B6B002B64
:101FA00011D00D4B984728188C3000210B4B9847C7
:101FB000051C0B4B9847002805D008340470467068
:101FC0004580084B984770BD5C61000065110000BA
:101FD000AC040020AC610000B11300007D1A0000C9
:101FE000711300001917000070B5051C0C1E062C9B
:101FF00003D91D481D4B984734E01D4B1B685A18E8
:1020000060321279824203D21A48184B984729E06D
:102010001B6B002B26D0184B9847061E22D0032C92
:102020000ED1281C0321154B9847114B1B681A1918
:10203000683212791B189B1889331B7973700DE075
:10204000281C211C0D4B9847094B1B681A19683234
:1020500012791B189B1888331B79737010343470F5
:10206000074B984770BDC046F8610000651100003D
:10207000AC0400205062000071130000B113000096
:102080001917000038B5041C151C062803D90E4882
:102090000E4B984717E00E4B1B681B1860331B79DB
:1020A0008B4203D20B48094B98470CE0081C211CBB
:1020B000094B9847064B1B681C19683422791B187A
:1020C0009B1889331D7138BDA062000065110000A6
:1020D000AC040020E8620000B113000010B5041E3B
:1020E000062C04D90F48104B9847002018E00F4BDE
:1020F0001B681B1860331B798B4204D20C480A4BB7
:10210000984700200CE0081C211C0A4B9847074BFD
:102110001B681C19683422791B189B18893318799D
:1021200010BDC0462863000065110000AC0400200B
:1021300070630000B113000038B5041C151C06289C
:1021400003D90E480E4B984717E00E4B1B681B181F
:1021500060331B798B4203D20B48094B98470CE044
:10216000081C211C094B9847064B1B681C19683436
:1021700022791B189B1888331D7138BDB06300008D
:1021800065110000AC040020F4630000B1130000EE
:1021900010B5041E062C04D90F48104B9847002098
:1021A00018E00F4B1B681B1860331B798B4204D25D
:1021B0000C480A4B984700200CE0081C211C0A4BD5
:1021C0009847074B1B681C19683422791B189B1809
:1021D0008833187910BDC0463064000065110000D6
:1021E000AC04002074640000B113000070B5041E3C
:1021F0000F2C03D92548264B984746E0031C213372
:10220000DA1024498A5C07210B401A41131CDA07B3
:1022100004D50122204B9A70012103E000221E4BBD
:102220009A7000211D4B1A6801321A601A4B1B78F4
:10223000A34226D01A4B1B681B6B002B21D0002910
:102240001FD11848184B9847061C134B1C70174B8E
:102250009847051E15D0104B19780320144B98474A
:10226000012802D107232B7001E006232B706E801A
:102270006C70094B1978032001220E4B98470E4BC6
:102280009847064B1A68013A1A6070BDB0640000A6
:102290006511000028050020780500203805002081
:1022A000AC040020FFFF0000551700007113000070
:1022B00091210000392100001917000008B50B4BCF
:1022C0001A686723D35C834203D20948094B9847B5
:1022D0000BE00321084B9847044B1B686F229A5C64
:1022E0001B189B18883300221A7108BDAC0400200B
:1022F000F464000065110000B113000008B5024B42
:102300009847C0B208BDC0461137000008B5014B60
:10231000984708BD1537000008B5024B9847C0B272
:1023200008BDC0467142000008B5014B984708BD82
:102330007D42000010B5274B1B680722DA650A2290
:1023400064215A5465215A5466215A540F22672138
:102350005A540520682158540221692019546A20D2
:1023600019546C215A546D215A546E215A546F21BC
:102370005A5470215A5471215A5472215A541022BD
:1023800074215A5475215A5476215A5413217720B6
:102390001954112478201C5479201A547A22995403
:1023A00000217C229952A0217E229952490080224C
:1023B0009952F02149008222995207498422995268
:1023C000064986229952064988229952E6229200AD
:1023D0001A6610BDAC040020FD020000520300008C
:1023E00072030000124B0022DA811A800A221A823C
:1023F0005A8014225A829A801E229A82DA802D22D2
:10240000DA821A8132221A835A8134225A839A81BB
:1024100009229A831322DA831D221A842C225A84D9
:1024200031229A843322DA8435221A857047C046D5
:10243000B404002006280FD88000094B1B589F4683
:1024400008480CE008480AE0084808E0084806E0A8
:10245000084804E0084802E0084800E008487047DF
:102460003C65000074650000E4650000286600001B
:1024700064660000A0660000DC66000020670000C3
:10248000AC65000008B5062804D92E482E4B9847A5
:10249000012056E02D4B1B681B1860331B798B42C3
:1024A00004D22B48284B984701204AE0062844D8FC
:1024B0008000284B1B589F462131072008400123EC
:1024C0008340181CC910244B5B5C184039E00B3169
:1024D0000720084001238340181CC9101E4B5B5C79
:1024E00018402EE016310720084001238340181CB5
:1024F000C910194B5B5C184023E0072008400123FA
:102500008340181CC908144B5B5C184019E031313A
:102510000720084001238340181CC9100E4B5B5C48
:1025200018400EE034310720084001238340181C76
:10253000C910094B5B5C184003E00848024B984700
:10254000012008BD5067000065110000AC040020A8
:10255000986700005865000028050020D867000033
:1025600010B5031E06D0880710D0232917D80024E1
:10257000032006E00C480D4B9847002012E0242968
:102580000FD05C540131C9B20842F8D10C1DFF20B4
:10259000242C07DC88088000C250E0B202E0FF2053
:1025A00000E0FF2010BDC0469068000065110000EB
:1025B00010B5031E06D0C80710D5232917D800244C
:1025C000012006E00C480D4B9847002012E024291A
:1025D0000FD05C540131C9B20842F8D18C1CFF20E5
:1025E000242C07DC48084000C252E0B202E0FF2081
:1025F00000E0FF2010BDC046BC680000651100006F
:1026000008B5014B984708BDC111000070B51D4BBE
:102610001B68002B04D11C481C4B9847002030E05D
:102620001B4B1B68002B29D11A4B9847051C1A4BD2
:102630001A6801321A60134B1B6801221A63174B88
:102640009847174B9847041E0ED10320154B984707
:10265000061C041C0320311C134A144B984703200A
:10266000311C0022124B9847201C124B98470A4BF2
:102670001A68013A1A60281C0F4B9847014B1B68D7
:10268000186B70BDAC040020E86800006511000004
:10269000B0040020ED2B00003805002029230000A5
:1026A000192300000514000034690000C91500005A
:1026B00085200000ED210000F92B000008B500285E
:1026C00004D10448044B9847002002E00021034B4A
:1026D000984708BDF46A0000651100007D1A0000EB
:1026E000F0B55F4656464D464446F0B48FB082463C
:1026F0000D1C141C002903D19B489C4B9847B1E149
:102700009B4B9847071C9B4B1A6801321A609A4BE7
:102710001B681B6B002B00D19DE1984B1B78002B95
:1027200005D0974B1B785BB2002B00D193E1954B02
:102730001B78002B00D18EE1AA2205AB1A70A346AC
:1027400004260020814600242CE1252B00D001E145
:102750004B460133DBB299460F2B04D98A48834B91
:102760009847002628E10134A4B201E00134A4B264
:102770002B5D1A1C303A092AF8D9232BF6D02E2BC0
:10278000F4D0211C002B00D110E1583BDAB2202AF2
:1027900000D9DFE093007D4AD3589F460423984632
:1027A000D8445846026805A8311C794B9847061C46
:1027B000C346CFE004218846D8445B461A6805A882
:1027C000311C734B9847061CC346C3E00420804667
:1027D000D844594608686F4B9847021C05A8311C1D
:1027E0006D4B9847061CC346B4E05B46073307228F
:1027F00093430822D21893461868596800900191B3
:10280000B1070DD0232E1ED80022032301E0242E71
:102810001BD005A881190A700136F6B23342F6D1F1
:10282000331D242B13DCFF239B0033400EA9CB1850
:10283000243B984600980199584B984742461060AF
:102840000436F6B286E0FF2684E0FF2682E0FF260B
:1028500080E001318CB22B5D662B7BD15B46073368
:10286000072293430820C018834619685A680291CA
:102870000392B2070DD0232E1BD80021032201E0C2
:10288000242E18D005A8831919700136F6B23242E9
:10289000F6D1331C0833242B0FDCFF239B0033407D
:1028A00005A9CB18029A1A60039858600836F6B248
:1028B00050E0FF264EE0FF264CE0FF264AE00131C3
:1028C0008CB22B5D642B02D0752B0CD042E004211E
:1028D0008846D8445B461A8805A8311C2E4B984779
:1028E000061CC34636E004208046D84459460A8870
:1028F00005A8311C284B9847061CC3462AE0013125
:102900008CB22B5D642B02D0752B12D022E05B467B
:10291000043358460168232E07D805AA9155721C26
:10292000FF26242A03DCD6B201E0FF26FFE79B4600
:1029300010E05B4604335A461168232E07D805AAD7
:102940009155721CFF26242A03DCD6B201E0FF2633
:10295000FFE79B460134A4B2FF2E23D11048034B5E
:102960009847002628E0C046246B0000651100004F
:10297000ED2B000038050020AC0400207A05002073
:102980007905002078050020546B00000C680000D9
:1029900061250000BD260000B12500005D53000048
:1029A000886B00002B5D002B00D0CEE60336F317BA
:1029B0009B0F9E19B610F6B2281C51462D4B984716
:1029C00005AC6080FF202C4B984760702B4B1B6838
:1029D000186B00283FD0341CD9699A69701890424E
:1029E00012D9521A92008800832109014018181840
:1029F0000021234B9847214B1B680022DA610122FA
:102A00001A621B6B002B23D0301C1E4B98471B4DAA
:102A10002B68DA6990008321090140181818A20078
:102A200005A9194B98472B68DA699100591883203A
:102A300000010918693E0E70A218DA6159690C1973
:102A40005C6112498A4203D901221A620022DA61CA
:102A500001200C4B98470E4B1A68013A1A60381C3B
:102A60000C4B98470FB03CBC90469946A246AB46EB
:102A7000F0BDC0467D1A000055170000AC040020D0
:102A80004155000059160000BD540000E703000046
:102A900038050020F92B00000EB400B582B003AA5F
:102AA00008CA0192191C034B984702B008BC03B036
:102AB0001847C046E1260000031C0833436001228A
:102AC00052428260C3600361002303607047C046C6
:102AD000002303617047C04643684B609A688A6070
:102AE0009A68516099600861036801330360704718
:102AF00030B50C68021C0832631C01D1026905E084
:102B000053681D68AC4201D31A1CF9E753684B6047
:102B100099608A605160086103680133036030BDC9
:102B200003694268816891608268416851605A68AF
:102B3000824201D192685A6000220261186801380D
:102B400018607047034B1B68013301D072B6FEE773
:102B500072B6FEE710000020064A1368186820309D
:102B600080F30988022080F314883FBCAE4662B629
:102B700000BDC0465015002010B5031F802464041A
:102B80001C60043B1960043B02491960143B1A6045
:102B9000403810BD452B00007047C04680225205CA
:102BA000034B1A60BFF34F8FBFF36F8F7047C04660
:102BB00004ED00E072B6044B1A6801321A60BFF3EC
:102BC0004F8FBFF36F8F704710000020064B1B68BC
:102BD000002B01D172B6FEE7013B034A1360002BC4
:102BE00000D162B67047C04610000020EFF310809D
:102BF00072B670470020C04680F310887047C04608
:102C0000EFF309800E4B1A6820381060F0C044467C
:102C10004D4656465F46F0C008B572B601F07EF9E3
:102C200062B60CBC116808681030F0C8A046A9460E
:102C3000B246BB4680F309882038F0C81847C04622
:102C40005015002010B5074B9847041C064B9847B9
:102C5000002803D080225205044B1A60201C044B2C
:102C6000984710BDED2B0000593C000004ED00E03A
:102C7000F92B00000022044B1A60044A044B1A602E
:102C80000722044B1A60704718E000E07FBB000089
:102C900014E000E010E000E008B50A4B1968FF22DC
:102CA00012040A431A601968FF2212060A431A60C6
:102CB000054B98470022054B1A60054B9847054B7A
:102CC0009847C04620ED00E0752C00001000002061
:102CD000592B0000452B000038B5041C430702D0D7
:102CE00007239C430834104B9847104B1B68002B5C
:102CF00005D10E4B1A1C0C3207218A431A600C4B6B
:102D00005B6AE4180B4A944207D8A34207D2074AE9
:102D10001568ED18064B5C6202E0002500E0002516
:102D2000054B9847281C38BD093C00007C05002055
:102D3000FC140020970F0000A53D0000002801D0E2
:102D400072B6FEE77047C04638B5041C151C026C0D
:102D5000002A08D1016800292AD14068164B9847FB
:102D60000023636024E0002D0CD18068134B98474A
:102D7000A268216C5318A3606268934218D3236839
:102D8000A36015E0C0680D4B9847216C4A42E1688A
:102D90008B18E36021688B4202D263689A18E26064
:102DA000022D05D1A36B002B02D0A36B013BA363C3
:102DB000A36B0133A36338BD79430000BD54000009
:102DC000F0B557464E464546E0B482B0019088467D
:102DD000446D002C01D172B6FEE7A26BE36B9A4200
:102DE00001D372B6FEE7A26B0020934237D9201CB4
:102DF0001E4EB0471E4D2B5C2033DBB29A46201C82
:102E0000B047285C8146201C1A4FB847021C504628
:102E10004946194B9847201CB047285C8146201C26
:102E2000B847071C201CB0472B5C022B03D0A36BB8
:102E30000133DAB200E000224846391C0F4B9847B4
:102E4000201C01A942460E4B98470020636A002BC4
:102E500005D0201C24300B4B9847431E984102B0EC
:102E60001CBC90469946A246F0BDC0460D2300000A
:102E700008000020FD220000491C0000392100004C
:102E8000492D00004541000038B50468002C0CD0E5
:102E9000026CC568AB18C3604568AB4200D3C46020
:102EA000C368081C191C014B984738BDBD5400006D
:102EB000F8B5041C234B9847A36C002B1CDD224E55
:102EC000224D636D002B07D0201C0021A84701284C
:102ED0000CD11F4B984709E0636A002B0CD0201CD3
:102EE0002430B047002801D0194B9847A36C013B10
:102EF000A364A36C002BE4DC01235B42A364154BA9
:102F00009847104B9847636C002B15DD2369002B05
:102F100012D0271C10370C4E0D4D02E02369002BF8
:102F20000AD0381CB047002800D0A847636C013B8A
:102F30006364636C002BF1DC01235B426364054B2B
:102F40009847F8BDB52B000045410000C12D000099
:102F500065420000CD2B000038B5041C0D1C002874
:102F600001D172B6FEE7154B98472368226CE06BDF
:102F70005043191861600021A163A360821A9B1855
:102F8000E36001235B426364A364002D0BD12169DC
:102F900000290FD0201C1030094B9847012809D177
:102FA000084B984706E0201C1030074DA847201C0E
:102FB0002430A847054B9847012038BDB52B0000A9
:102FC000454100009D2B0000B92A0000CD2B0000D8
:102FD000F8B54F464646C0B4051C0F1C161C002809
:102FE00019D05820264B9847041E14D0381C68432B
:102FF0000130234B9847206000280ED1214B995D6A
:10300000081C4030C0B200221F4B9847201C1F4BA9
:10301000984700E0FEE772B6FCE7E5632764201CF2
:1030200001211B4B98475023E65400236365201C65
:10303000184EB047134D285C174B9847E064201C8E
:10304000B0472B5C1833DBB29946201CB047285C94
:103050008046201C114FB847021C484641460A4B87
:103060009847201CB0472D5C201CB847011C281C29
:1030700000220B4B9847201C0CBC90469946F8BD8B
:10308000D92C000008000020491C00003D2D000044
:10309000592F00000D23000005140000FD22000040
:1030A00039210000F0B55F4656464D464446F0B41F
:1030B00085B0041C884601921D1C002801D172B6FF
:1030C000FEE7002904D1036C002B01D072B6FEE7A5
:1030D000022D04D1E26B012A01D072B6FEE7734BD8
:1030E0009847002802D1019B002B03D10026704A8B
:1030F000924601E072B6FEE7D047A36BE26B9342C3
:1031000001D3022D49D1201C6A4FB8476A4E335C67
:103110002033DBB29B46201CB847305C8246201C23
:10312000664B99469847021C58465146644B98474F
:10313000201CB847305C8246201CC8478146201CB2
:10314000B847335C022B03D0A26B0132D2B200E04D
:103150000022504649465B4B9847201C41462A1C9A
:10316000594B9847626D002A08D0201C291C574BE8
:10317000984701280DD1564B98470AE0636A002B07
:1031800007D0201C2430534B9847012801D1504BC5
:103190009847514B9847012081E0019A002A15D1A8
:1031A0004D4B9847201C434EB047434D2F5C48374A
:1031B000FFB2201CB0472D5C201C404B9847021CDE
:1031C000381C291C3E4B9847002068E0002E03D194
:1031D00002A8424B984701263F4A9047404B9847E8
:1031E000334B9847636C013301D100236364A36CB4
:1031F000013301D10023A364374B984702A801A9EA
:10320000384B9847002832D1294B9847A36B9946F1
:10321000E76B314B9847B94523D1201C254A91468D
:103220009047254F3B5C7033DBB29B46201CC84760
:103230003F5C201C214B9847021C5846391C204BF0
:103240009847201C10300199274B9847201C274B8A
:103250009847274B9847002800D04DE71C4B9847CC
:103260004AE7201C214B9847214B984744E7201CF4
:103270001E4B98471E4B9847201C0E4EB0470E4DD4
:103280002F5C4837FFB2201CB0472D5C201C0B4B35
:103290009847021C381C291C094B9847002005B090
:1032A0003CBC90469946A246AB46F0BD8942000020
:1032B000B52B00000D23000008000020FD220000B7
:1032C000491C000039210000492D0000C12D0000DB
:1032D0009D2B000045410000CD2B0000D541000092
:1032E000093C0000F541000091400000B12E0000B3
:1032F000A53D0000F0B55F4656464D464446F0B445
:1033000083B0041C8A46151C1E1C002801D172B60D
:10331000FEE7002904D1036C002B01D072B6FEE752
:10332000022E69D1E26B012A6ED072B6FEE7201C34
:103330003D4B984698473D4F3B5C3033DBB20093A2
:10334000201CC047385C0190201C394A93469047A6
:10335000021C00980199374B9847201CC0473F5CDE
:10336000201CD847011CA26B0132D2B2381C324B50
:103370009847201C5146321C304B9847A36C0133B0
:103380001DD1636D002B0BD0201C311C2C4B98479A
:10339000012601283DD1002D2AD001232B6038E0E1
:1033A0000126626A002A34D0201C2430254B98471D
:1033B00000282ED0002D1DD001232B6029E0A36C06
:1033C0000133A364012624E0201C174EB047174D9B
:1033D0002F5C5837FFB2201CB0472D5C201C144BCB
:1033E0009847021C381C291C124B9847002610E0F5
:1033F00001260EE001260CE0134B98478146A36B93
:10340000E26B9342E0D292E70F4B98478146A36B61
:103410008DE748460D4B9847301C03B03CBC9046A6
:103420009946A246AB46F0BD0D23000008000020DF
:10343000FD220000491C000039210000492D000038
:10344000C12D000045410000ED2B0000F92B0000CC
:10345000F0B55F4656464D464446F0B485B0041C70
:103460000F1C01920093002801D172B6FEE70029DB
:1034700004D1036C002B01D072B6FEE78E4B984747
:10348000002802D1019B002B04D1002398468B4BCE
:10349000994601E072B6FEE7C847A36B002B6DD0DA
:1034A000E3689846201C391C854B9847009B002BED
:1034B00041D1201C834EB047834D2B5C2833DBB2B7
:1034C0009946201CB047285C8046201C7F4FB84797
:1034D000021C484641467E4B9847201CB047285C5A
:1034E0008046201CB847071C201CB0472B5C022BD1
:1034F00005D1784B9847784B9847021C02E0A26BA5
:10350000013AD2B24046391C744B9847A36B013B39
:10351000A3632368002B02D1714B98476060236935
:10352000002B27D0201C10306E4B9847012821D14A
:103530006D4B98471EE0201C624EB047624D2F5CD9
:103540007837FFB2201CB0472D5C201C5F4B98479A
:10355000021C381C291C5E4B98474346E360636A93
:10356000002B07D0201C24305E4B9847002801D048
:103570005D4B98475D4B9847012096E0019B002BDF
:1035800015D15A4B9847201C4E4EB0474E4D2F5CDC
:103590005037FFB2201CB0472D5C201C4B4B984786
:1035A000021C381C291C4A4B984700207DE04346EA
:1035B000002B04D102A84E4B9847012398464B4B51
:1035C00098474C4B98473D4B9847636C013301D16A
:1035D00000236364A36C013301D10023A364434B34
:1035E000984702A801A9444B9847002845D1334B7E
:1035F0009847A56B3D4B9847002D38D1201C314E84
:10360000B047314D2B5C6833DBB29B46201CB04782
:10361000285C8246201C2D4B9847021C5846514678
:103620002B4B9847201CB0472B5C022B05D0294B15
:103630009847294B9847314B98472368002B06D170
:103640001E4B984760682E4B9847284B9847201C84
:10365000243001992B4B9847201C2B4B98472B4B20
:103660009847002800D017E71F4B984714E7201C05
:10367000254B9847254B98470EE7201C224B98472F
:10368000224B9847201C0F4EB0470F4D2F5C5037F0
:10369000FFB2201CB0472D5C201C0C4B9847021C2D
:1036A000381C291C0A4B9847002005B03CBC9046AA
:1036B0009946A246AB46F0BD89420000B52B0000FA
:1036C000892E00000D23000008000020FD220000CC
:1036D000491C0000292300001923000039210000A3
:1036E0007D420000454100009D2B0000CD2B0000D5
:1036F000D5410000093C0000F5410000BD2200005A
:10370000A542000091400000B12E0000A53D000040
:10371000C06C70475023C05C7047C04638B5041C6D
:103720000D1C0D4B9847636C013301D1002363647A
:10373000A36C013301D10023A364084B9847A36B0A
:10374000002B04D1201C2430291C054B9847201C39
:10375000044B984738BDC046B52B0000CD2B000068
:10376000E1400000B12E0000002801D172B6FEE752
:103770000023074A4169914207D1836A1432934278
:1037800002D05A42534100E00023181C7047C04643
:1037900024150020084B9B6A1B68002B04D10122D2
:1037A0005242064B1A6006E0034B9B6ADB68DB68FB
:1037B0005A68024B1A60704724150020140000203C
:1037C00010B5041C0C4BDA6A50601B6B984206D291
:1037D000094B586BD96A0431084B98470BE0064BEC
:1037E000986AD96A0431054B9847054B1B689C427F
:1037F00001D2034B1C6010BD24150020F12A0000EB
:1038000014000020F8B55F4656464D464446F0B4D5
:1038100080460F1C161C9A460A9D002801D172B6DC
:10382000FEE7042D01D972B6FEE74820754B984794
:10383000041E00D1ACE00C99002900D0A4E0B00037
:10384000704B98472063002803D1201C6E4B98478B
:103850009EE0B200A5216D4B98476D4AB3189B00BE
:10386000216BCB18072293439B463A783423E254CA
:103870003B78002B0AD00123F95CE2183432117036
:10388000FA5C002A02D00133052BF5D1002238233F
:10389000E2542E1E042E00D90426E6626664271D1B
:1038A000381C5C4A91469047201C1830C847246158
:1038B00005239E1BA6616462584641465246564BFC
:1038C000984720600B9B002B00D01C60534B9847FF
:1038D000534B9A6B01329A63DB6A002B2DD1504B0C
:1038E000DC629B6B012B5BD14D4B1E1C3C36A03325
:1038F00099464C498846301CC04714364E45FAD18B
:10390000494A914620239B46CB445846454EB047F2
:1039100034218A46CA445046B047414A9046101C5A
:103920001430B04748464830B0474046B0475B4641
:1039300041468B6252464A6332E03B4BDB6D002BC3
:103940002ED1374BDB6ADB6A9D4229D3344BDC62D4
:1039500026E0354A13669A00D3189B0030483C3065
:10396000C018391C314B9847314B98472E4BDB6DB3
:103970000120002B40D02A4BDB6ADB6A9D423BD9F9
:103980002C4B9847012037E00C9B0363181C60E721
:10399000432003210022284B9847012040422BE07E
:1039A000214988464B6E01334B66E3630320234B6A
:1039B00098472064201C224EB047011C221C343240
:1039C0000320204B9847201CB047011CE36ADAB261
:1039D00003201D4B9847201CB047021C1B200321CD
:1039E000154B9847201CB047184B9847E36A41464F
:1039F0000A6E9342ADD8AEE73CBC90469946A246CB
:103A0000AB46F8BDD92C00003D2D0000415500000B
:103A1000FFFFFF3FD12A0000792B0000B52B0000EB
:103A200024150020B92A0000A4150020D92A00007E
:103A3000CD2B00009D2B0000491C00000514000048
:103A400019230000C915000085200000911B00000B
:103A500070B5041E01D172B6FEE71B4BDB6A9842BB
:103A600030D01A4B9847201C194B9847012827D172
:103A7000201C184DA847021C8B200321164B984789
:103A8000261D301C154B9847201CA847144B9847FF
:103A9000E36A144A126E934201D9124A13660A4D20
:103AA000281C3C309A00D3189B00C018311C0E4BC8
:103AB0009847EB6AE26ADB6A9A4201D30B4B98475C
:103AC0000B4B984770BDC04624150020B52B000055
:103AD0006937000019230000491C0000212B000059
:103AE000911B0000A4150020D92A00009D2B000086
:103AF000CD2B0000F8B5041E01D172B6FEE7204BB5
:103B00009847071C201C1F4B98470025012832D1DD
:103B1000201C1D4B9847021C8C2003211B4B9847EF
:103B20001B4BDB6E002B1FD11A4BDB6ADB6AE26A90
:103B30009A426D41261D301C174B9847201C124B92
:103B40009847164B9847E36A114A126E934201D97F
:103B50000F4A13669A00D3189B000E483C30C018D9
:103B6000311C0F4B984706E0211C183109481430CE
:103B70000B4B98470025381C0A4B9847281CF8BD6A
:103B8000ED2B00006937000019230000491C0000DC
:103B9000A415002024150020212B0000911B0000FB
:103BA000D92A0000F92B000010B584B0002300933F
:103BB0000193029303930D480D498C220D4CA047AD
:103BC00001280DD10C4B9847012809D172B601226A
:103BD0000A4BDA6500220A4B1A630A4B984703E046
:103BE000002801D172B6FEE704B010BDA13E00006E
:103BF000C46B000005380000BD440000A41500207F
:103C000024150020992C0000024BDA6E0132DA668E
:103C10007047C046A415002010B5044B9847044BCC
:103C20001C6B044B9847201C10BDC046B52B0000F0
:103C300024150020CD2B000010B5044B9847044BF1
:103C40001C6B044B9847201C10BDC046ED2B000098
:103C500024150020F92B0000F8B557464E46C0B495
:103C6000464BDB6E012B03D0444B1B6F002B06D160
:103C7000434B1A6801321A600020424B98473F4B71
:103C8000DA6EDB6E002B67D13F4B1A6B01321A6381
:103C90001F6B002F10D19B6A1B68002B01D072B6DE
:103CA000FEE7394B9A6A596B99625A63334B5A6FE4
:103CB00001325A67354B9847354B1B6800259F42A8
:103CC0003FD3314A924691463C23994400E0012576
:103CD0005246936A1B68002B04D1012252422C4B9E
:103CE0001A602EE0284B9B6ADB68DC6863689F42A1
:103CF00002D2274A136024E0261D301C254B98472A
:103D0000A36A002B03D0201C1830224B9847201C9C
:103D1000214B9847214B9847E36A184A126E934209
:103D200001D9164A13669800C01880004844311C17
:103D30001B4B9847144AD36AE26ADB6A9A42C6D29E
:103D4000C6E7114BDA6AD26A91008A1892009B1872
:103D5000DB6B012B06D806E0084B1A6F01321A679D
:103D6000002500E00125054B9B6F002B00D00125AD
:103D7000281C0CBC91469A46F8BDC046A4150020EC
:103D80006C050020191B0000241500209537000049
:103D900014000020212B000019230000911B0000BB
:103DA000D92A0000F0B5474680B4334BDB6E002BB8
:103DB00001D172B6FEE7314B98472F4BDA6E013ACC
:103DC000DA66DB6E0024002B4FD12D4B9B6B002B52
:103DD0004BD02B4DA8463C22904425E0284B1B6A33
:103DE000DC68201C1830274FB847261D301CB84708
:103DF000201C254B9847254B9847E36A1E4A126EB4
:103E0000934201D91C4A13669800C01880004044B0
:103E1000311C1F4B98471A4AD36AE26ADB6A9A42FE
:103E200002D30122144B9A676B69002BD6D1124B37
:103E30001B6F002B11D0104B1B6F002B0DD0154E9C
:103E40000D4D2C1CB047002801D00123AB67236F18
:103E5000013B2367236F002BF4D1074B9B6F00249A
:103E6000012B02D10C4B984701240C4B9847201C86
:103E700004BC9046F0BDC046A4150020B52B000040
:103E800024150020212B000019230000911B0000A5
:103E9000D92A0000593C00009D2B0000CD2B0000CA
:103EA000F8B5154E154F1DE0154B9847124B9C6CFD
:103EB000144B9847002C15D0134B98470E4D6B6D43
:103EC000DC68201D114B98470C4B9A6B013A9A63A2
:103ED000AB6E013BAB660E4B9847206B0D4DA84770
:103EE000201CA847B36E002BDED1FB6B012BF9D948
:103EF000094B9847F6E7C046A4150020241500207A
:103F0000093C0000A53D0000B52B0000212B00005E
:103F1000CD2B00003D2D00009D2B000010B5244B43
:103F2000DB6E002B03D00122214B9A673EE0204B31
:103F300000229A671B6E9A00D3189B001D4AD31863
:103F4000DB6B002B17D11A4B1B6E002B05D102E047
:103F5000026E002A04D172B6FEE7154B154C181CF0
:103F60001A6E013A1A661A6E91008A189200A21807
:103F7000D26B002AECD00E4B1B6E9A00D3189B001C
:103F80000C4A3C32D3185A6852685A60191C0831DE
:103F90008A4201D152685A605B68DA68054BDA627E
:103FA000054B9847054B9847054B984710BDC046B1
:103FB000A415002024150020292300001923000047
:103FC000ED21000070B5041C254B9847002C01D151
:103FD000244BDC6A201C244DA847021C8A200321A4
:103FE000224B9847201CA847214B9847261D301C80
:103FF000204B9847A36A002B03D0201C18301D4B80
:104000009847184D281C311C1B4B98471B4B984751
:10401000EB6A9C4218D11A4BDB6D002B08D0184B71
:10402000DB6E002B01D072B6FEE7164B984715E009
:104030000C4B9A6B1B68934203D10022094BDA6246
:104040000CE0114B984709E00D4BDB6D002B05D0C0
:10405000034B98470D4B9847084B984770BDC04697
:10406000B52B00002415002019230000491C000076
:10407000BD220000212B0000D92A0000CD2B00001A
:10408000A41500209D2B00001D3F00009537000067
:1040900038B50C1C002801D172B6FEE70B4DE96A59
:1040A00018310B4B9847E86A04300A4B9847631C59
:1040B00005D10648C16A0431074B984704E0034B19
:1040C000186B2018054B984738BDC04624150020B2
:1040D000F12A0000212B0000D92A0000C13700007E
:1040E00070B50D1C002801D172B6FEE70D4CE16AD7
:1040F00018310D4B9847E06A04300C4B9847236BFE
:10410000ED188820291C0A4B9847E06A094EB047F1
:10411000094CA047094B9847B047A047281C084BBB
:10412000984770BD24150020D92A0000212B0000DB
:10413000811E000019230000BD2200002923000079
:10414000C137000038B5C368DC68002C01D172B6F5
:10415000FEE7251C1835281C184B9847184BDB6EBA
:10416000002B19D1251D281C144B9847201C154BDA
:104170009847154B9847E36A114A126E934201D94A
:104180000F4A13669A00D3189B0010483C30C018A1
:10419000291C0F4B984704E00C481430291C0C4B89
:1041A00098470A4BDB6AE26ADB6A00209A4203D92D
:1041B0000122034B9A67012038BDC046212B000025
:1041C000A415002019230000911B000024150020D5
:1041D000D92A0000002801D172B6FEE7034B5B6FBD
:1041E0000360034B1B6B43607047C046A41500205F
:1041F0002415002070B5041C0E1C002801D172B6D5
:10420000FEE7002901D172B6FEE7114B9847114B2A
:104210001A6B3368581C15D00F49496F20688842C3
:1042200003D0012561688A420DD26168501A0125C8
:10423000834208D98A1AD3183360201C074B984749
:10424000002500E00025064B9847281C70BDC0469D
:10425000B52B000024150020A4150020D541000036
:10426000CD2B00000122014B9A677047A415002056
:10427000002801D0006C00E000207047014BD86A94
:104280007047C04624150020054BDB6D0120002B34
:1042900004D0034BD86E4342584140007047C0469B
:1042A000A415002070B5041E53D0C36A294AD26AEF
:1042B000D26A93424DD28269002A05DB254AD26A2E
:1042C000D26A05218A1A82619A00D3189B00214A7A
:1042D0003C32D31862699A421DD1251D281C1E4B01
:1042E00098471C4BDB6ADB6AE362201C1B4B984738
:1042F0001B4B9847E36A1B4A126E934201D9194A35
:1043000013669800C3189B0012483C30C018291C43
:10431000154B984703E00F4BDB6ADB6AE362201C16
:104320000E4DA847061C201CA847011C03200F4B5C
:104330009847031C8E200321321C0D4EB047201CD1
:10434000A847011C034BDB6ADA6AD2B20320094B8F
:10435000984770BD24150020212B00001923000070
:10436000911B0000A4150020D92A0000DD200000C8
:104370004D1D000085200000F8B5041E3CD0C26A27
:10438000436C9A4238D0061D301C1C4B9847201CA9
:104390001B4DA847071C201CA847011C0320194BD4
:1043A0009847031C8F2003213A1C174FB847201C45
:1043B000A847011C636CDAB20320144B9847636C66
:1043C000E362A269002A02DB0522D31AA361201C42
:1043D0000B4B98470E4B9847E36A0E4A126E934276
:1043E00001D90C4A13669800C3189B000A483C3058
:1043F000C018311C094B9847F8BDC046212B00005E
:1044000019230000DD2000004D1D00008520000064
:10441000911B0000A415002024150020D92A0000BB
:1044200010B5041C4160206191420BD8D21A0120C2
:10443000A3699A4211D2094B1868211D084B98476D
:1044400000200AE09A4202D20120994205D2034B91
:104450005868211D024B9847002010BD20160020EF
:10446000F12A0000F8B5104B9847104B9B68002BC1
:1044700017D10E4C261C0C36301C0D4FB847251C8E
:104480002035281CB8476660256002200C210022D8
:10449000084B9847002802D0044B986001E072B6A0
:1044A000FEE7054B9847F8BDB52B0000201600200D
:1044B000B92A0000D12F0000CD2B000010B584B028
:1044C0000C4B98470C4B9B68002B0ED0032300939A
:1044D000094B34330193002302930393074808499F
:1044E000AA22084CA047002801D172B6FEE704B00A
:1044F00010BDC04665440000201600204147000062
:10450000F46B000005380000F0B5474680B48046E3
:104510000D1C171C1E1C00292BD02C20184B984753
:10452000041E1CD0174B984743462360A561E761E2
:104530002662069B6362201D134B98470520134B90
:104540009847011CA06205202268114B9847FF2262
:10455000A36A1A40B02005210E4B98470BE00023B8
:104560009A6AFF231A40B92005210A4B984702E0B6
:10457000FEE772B6FCE7201C04BC9046F0BDC046C6
:10458000D92C000065440000D12A00000514000069
:10459000C9150000491C0000F0B585B0061C0C1CB4
:1045A000171C31498868002859D00194029203965B
:1045B000052C15DC2D4B9847022808D12A4B98680A
:1045C00001A90A9A00232A4DA847051C0EE0264B94
:1045D000986801A900220023254DA847051C05E085
:1045E00001A91A1C0023234DA847051C002C37DD08
:1045F000042C0BD1BD20012D00D1B420B26AFF23C1
:104600001A4005213B1C1C4CA04729E0052C19D160
:10461000B524012D1AD1FF22B36A1A40B520052115
:10462000164B9847B36AD8B20521154B9847B36A21
:10463000D8B20521134B9847B16AC9B20520124B75
:1046400098470DE0B0340023012D00D00923E01875
:10465000B26AFF231A400521084B984700E0002565
:10466000281C05B0F0BDC04620160020894200007D
:10467000A5300000F53200004D1D0000491C00006F
:10468000751F0000E91F000059150000F0B55746DE
:104690004E464546E0B482B08146244B984780465A
:1046A000234B9B6B984233D2214E224F24E0DB6890
:1046B00019688A46DC68251D281CB847201C626AD8
:1046C0009047E369012B17D1A1690B1C5344534553
:1046D00007D963602461164B5868291C164B98470C
:1046E0000AE000230093201C00215246134CA047EF
:1046F000002801D172B6FEE7736819680029D6D187
:104700000B4A146854601360012349460B6002E0B1
:1047100000234A461360064B44469C63404602B061
:104720001CBC90469946A246F0BDC046193C00000C
:1047300020160020212B0000F12A000099450000DE
:10474000F0B5474680B486B04E48804641464B6837
:104750001A68002A00D18AE0DB681C684A4B984737
:1047600003A84A4B9847051C039B002B31D1844278
:1047700023D8474B9847434B5B68DB68DE68301DA6
:10478000444B9847F769012F13D1B0692118301CA9
:104790002A1C231C404DA84701280AD1002300935E
:1047A000301C0021221C3D4CA047002801D172B6CC
:1047B000FEE7736A301C98470DE0324B9868611B26
:1047C000374B9847324B9847002804D1354B9847D0
:1047D00001E02F4B98472B4D334C40E003990029C3
:1047E0003DDB059E7269002A02D0301D294B984797
:1047F00002A8264B9847031C039F092F2FD8BA0005
:104800002A498A589746049FB269B918301C1A1C65
:104810003B1C214FB847012821D1301C716A8847C1
:10482000F269012A1BD1B369049FDA1900230093AE
:10483000301C0021194EB047002810D172B6FEE797
:104840000499B161002901D172B6FEE75918301CF4
:104850001A1C114EB04702E0301C154B9847A8684F
:1048600003A900220023A0470028B7D16EE706481D
:10487000804703A805498847051C0024039AA242E3
:104880009BD0A6E720160020093C00008D460000C2
:10489000A53D0000212B00002144000099450000A7
:1048A0001D3700009D2B000051340000CC6B000030
:1048B0003D2D0000FEE7C04670B52C4B2C4A9A42B5
:1048C00003D02C4B294A9A4204D32B4B2B4A9A42B1
:1048D00010D31BE02A4B27480330C01A8008013050
:1048E000800000232149224AD458CC50043383420B
:1048F000FAD1EAE7214B1A1D1F490331891A8908A9
:1049000089005218002102C39342FCD11D4BFF21A4
:104910001D4A8A439A60022190235B001B4AD150B2
:104920001B4BD8780321884302221043D870DD78CE
:104930000C24A54308200543DD70164B9E7B3025D3
:10494000AE43202535439D739D7BA5432843987333
:10495000987B884302439A730F4B596880220A431D
:104960005A600E4B98470E4B9847FEE70000002018
:10497000B86C000048040020FC2E002048040020F1
:104980000400002000ED00E0000000000070004185
:1049900000500041004800410040004175540000B3
:1049A000F502000008B5082834D880001B4B1B58BE
:1049B0009F468020000230E0194B18692DE0194B0A
:1049C000186A8005800F184BC340181C25E0144B53
:1049D000586922E0124B1B68022018401DD0114973
:1049E0001022CB681A42FCD00D4B1B685A0713D516
:1049F00000200E4B98470A4B9B681B041B0C584326
:104A00000BE05023074AD35C00205A0705D5044B1E
:104A1000D86802E0002000E0054808BDFC6B0000FB
:104A20005C1600200008004000127A00D1500000FF
:104A3000006CDC0270B50C4B1C6A017885784078FC
:104A40000122104080014026B44304432A40D00193
:104A500080229443221C02430320014009020348A0
:104A600002400A431A6270BD00080040FFFCFFFFCD
:104A7000F0B55F4656464D464446F0B4254A948A02
:104A800045780378594259418A4683789C46C178D3
:104A9000884603799946467B077B817B8B468068F5
:104AA0001D4B586101235146880004218C43044367
:104AB00048461840C00008218C4304434046184033
:104AC000000110218C43044360461840400120211E
:104AD0008C430443181C384080014027BC430443E6
:104AE000181C3040C0018026B443044307202840EE
:104AF00000020A4D2C40044359460B401903084854
:104B0000231C03400B4393823CBC90469946A2462B
:104B1000AB46F0BD000800405C160020FFF8FFFF28
:104B2000FFEFFFFFF8B5041CC568037D012B06D11C
:104B3000018A01314900281C1E4B9847051CA368B7
:104B40001801291C1B4B98470F2202400009667868
:104B5000B6012378DB011E43F6B2174B44215E54A5
:104B60001604411E0905090D31439964E678F600E3
:104B7000A178090331432679B6003143A67C032787
:104B80003E403143268A36040C4F3E403143E77C99
:104B90003F02E026F6003E403143247D24013026CA
:104BA00034402143D9640001121855432D09044BA8
:104BB000DD60F8BD79520000000800400000FF07EA
:104BC0005C160020082849D88000254B1B589F46BA
:104BD000002044E0234B196A02220A431A62002093
:104BE0003DE0204B996902220A439A61002036E099
:104BF0001C4B198A02220A431A8200202FE0194B0B
:104C0000998A02220A439A82002028E0164A1168F3
:104C1000022319431160134A9384111C1022CB689C
:104C20001A42FCD0104A91680E4BD96252689A62BF
:104C300000229A84191C1022CB681A42FCD00A4B1D
:104C40001A6892B2074B9A84002008E0054A442370
:104C5000D05C02210143D154002000E017207047AE
:104C6000206C0000000800405C160020082832D8A4
:104C700080001A4B1B589F46194B1A6A02218A431F
:104C80001A62002028E0164B9A6902218A439A6131
:104C9000002021E0124B1A8A02218A431A82002046
:104CA0001AE00F4B9A8A02218A439A82002013E06D
:104CB0000C4B1A6802218A431A601A6892B2084B98
:104CC0009A84002008E0064A4423D15C02208143F4
:104CD000D154002000E017207047C046446C00000B
:104CE000000800405C160020082820D88000114BE6
:104CF0001B589F4601201BE0012310E002230EE019
:104D000010230CE050230C4AD05C032318400338D6
:104D100043425841C0B20BE0082300E00423064A96
:104D2000D0681840C01A43425841C0B200E0002089
:104D30007047C046686C00000008004070B58EB037
:104D4000C222D200424B9A60424A51681E239943C4
:104D50000223194351606A46137000243E4DE0B2AD
:104D60006946A8470134252CF9D10AA8002303700D
:104D70008370802212028260C37001220271037369
:104D80008373062242704373344B98470520344B9B
:104D900098472F490222CB681A42FCD02C4B998AA3
:104DA00080220A439A8209A8002444700125857054
:104DB00004702C4B98470620294EB0472A4B984741
:104DC00001956B465C701C725C7205236A46137019
:104DD00001206946254B98470120254B984703A899
:104DE00044708470C4700471224B836080231B0262
:104DF000C36005820475C474847404701E4B9847A4
:104E00000820B047124850210322435C1340032B73
:104E1000FBD10F4A4423D05C802149420143D15445
:104E2000164A0023137253729372D37201220192B5
:104E30006A46537013725372082313700020694638
:104E40000A4B984700200A4B98470EB070BDC046E9
:104E50000008004000400041B5500000714A0000C9
:104E6000C54B0000354A0000814E0000A54E0000F1
:104E7000594F0000006CDC02254B0000000400408C
:104E8000064B996908220A439A610122044B1A7061
:104E9000191C0B781342FCD17047C0460004004037
:104EA000000C0040F8B5061C071C0D782D020543C8
:104EB0004B78002B02D08023DB021D434B7A002B62
:104EC00002D080231B031D434C68012C17D9631E9D
:104ED0001C420FD1022C06D90223002201325B00B2
:104EE0009C42FBD800E000221702374380235B037B
:104EF0001D4304E02702374380239B021D430B7AA6
:104F0000002B02D080239B031D430F4A53785BB2D2
:104F1000002BFBDB0D4B98470D4B1E700A4A537854
:104F20005BB2002BFBDB084B9F601A1C53785BB213
:104F3000002BFBDB044B5968802252020A401543C8
:104F40005D60044B9847F8BD000C004035510000EF
:104F5000080C00407151000010B5041C0B4A537836
:104F60005BB2002BFBDB0A4B98470A4B1C70074ACD
:104F700053785BB2002BFBDB044B59688022520252
:104F80000A435A60044B984710BDC046000C0040CD
:104F900035510000040C00407151000070B5041C34
:104FA0001A4A53785BB2002BFBDB194B9847194B1D
:104FB0001C70164A53785BB2002BFBDB134E7068F3
:104FC000C004C00E144B9847051C124B1C70766829
:104FD000F602F60F114B1C700C4A53785BB2002B93
:104FE000FBDB0A4B9C68240AA4B20D4B9847002EA9
:104FF00007D1012C07D9281C211C0A4B9847051CF6
:1050000001E00134E540281C70BDC046000C0040A2
:1050100035510000040C0040A5490000080C004078
:10502000715100007952000010B5041C064B9847DE
:10503000064B1C70064B59888022D2010A435A80C5
:10504000044B984710BDC04635510000020C00408B
:10505000000C00407151000010B5041C0F4B984724
:105060000F4B1C700F4B58880005000F59880E4AD3
:105070000A405A8059880D4A0A405A80191C8022D9
:10508000D2014B881342FCD1064B01025888064AD4
:1050900002400A435A80064B984710BD3551000024
:1050A000020C0040000C0040FFF0FFFFFFBFFFFFBD
:1050B0007151000010B50C7824020443024B98474C
:1050C000A4B2024B5C8010BD59500000000C00409F
:1050D00010B5041C064B9847064B1C70064B5C88A9
:1050E0002405240F054B9847201C054B984710BDFD
:1050F00035510000020C0040000C004071510000CE
:105100009D4F00007047C04608B5054B9847054BBA
:105110009847054B9847054B9847054B984708BD5E
:105120003D4D0000055100000551000005510000F3
:10513000055100000C4B1B68002B10D1EFF31083BE
:10514000002B09D172B6BFF35F8F0022074B1A7094
:105150000122054B1A7102E00022034B1A71024B27
:105160001A6801321A6070477C160020180000206F
:10517000084B1A68013A1A601B68002B09D1054BCD
:105180001B79002B05D00122034B1A70BFF35F8FF0
:1051900062B670477C1600201800002000B583B06E
:1051A00001AB80221A700A785A704A789A708A780D
:1051B000DA70191C014B984703B000BD4D52000036
:1051C00030B5D378002B1ED11378802B04D01B066A
:1051D00080246402234300E0002354780225AC437A
:1051E0000AD19478002C03D18024A402234302E046
:1051F000C024E402234341605478013C012C04D8CC
:10520000114C234001E0416000230D042D0CA0242B
:10521000E4052C431C4384620D0CD02424062C434B
:105220001C438462D478002C0CD15C0305D59378A0
:10523000012B01D1816100E041615378013B012BD9
:1052400000D8816030BDC046FFFFFBFF08B5031CDE
:105250000A1CC1090020002903D15809C0010449D2
:1052600040181F210B4001219940024B984708BD6F
:1052700000440041C1510000002934D00123002224
:1052800010B488422CD301242407A14204D28142C5
:1052900002D209011B01F8E7E400A14204D28142D5
:1052A00002D249005B00F8E7884201D3401A1A4352
:1052B0004C08A04202D3001B5C0822438C08A04289
:1052C00002D3001B9C082243CC08A04202D3001B3F
:1052D000DC082243002803D01B0901D00909E3E7B9
:1052E000101C10BC7047002801D00020C04307B438
:1052F000024802A14018029003BDC04619000000F8
:105300000029F0D003B5FFF7B9FF0EBC4243891A5C
:105310001847C0467047C0469C460304F0B51B0CB6
:1053200017043F0C150C1E1C041C000C7E436B4321
:1053300047434543FB18300C1818874202D9802395
:105340005B02ED18030CED1863465C434A433604D8
:10535000360CA118000480194919F0BDF0B54B00B6
:105360000D03420F5B0D6D0A15435A1C5205CC0FFD
:10537000C600520D012A27DD394FDA19FE2A1ADC40
:10538000002A35DD8001ED00431E98412843760F49
:105390003043430704D00F230340042B00D00430D4
:1053A0008021C904014027D00132FF2A1DD083018A
:1053B0005B0AD1B201E0FF2100235802C905400A6F
:1053C000E40708432043F0BD002B06D1354311D13B
:1053D0000021002043025B0AEFE72E43EBD0802040
:1053E000ED0080042843FF22D3E7FF210023E4E7F8
:1053F00017320DDA05200022C008D1B2FF2AE9D108
:105400000028D9D08023DB0303435B025B0AD4E787
:105410008022144912041543C91A1F290DDC124AAF
:10542000371C9B18281C9F4098403B1C5A1E9341D8
:105430001843CE4030430022ABE70C4F2A1CFF1A22
:10544000FA40171C202909D0094A98188540281CC1
:105450003043461EB041384300229AE70020F7E768
:1054600080FCFFFF9E03000082FCFFFF7E03000024
:10547000A2FCFFFF70B50D4E0D4D0024AD1BAD100D
:1054800005D0A300F35801349847A542F9D101F0A3
:1054900001FC084E084D0024AD1BAD1005D0A30043
:1054A000F35801349847A542F9D170BDA06C0000B3
:1054B000A06C0000A06C0000A86C0000F0B50F2AE2
:1054C00035D9031C0B439C0735D1161C103E3609F9
:1054D0003501451910350C1C031C27681F606768CF
:1054E0005F60A7689F60E7681034DF601033AB42ED
:1054F000F3D1731C1B01C518C9180F231340032BCC
:105500001BD91C1FA4080134A4000023CE58EE5060
:105510000433A342FAD1ED18C91803231A4005D069
:105520000023CC5CEC5401339342FAD1F0BD051C4E
:10553000002AF5D1FAE7051CF2E71A1CF8E7C04685
:10554000F0B5830746D0541E002A42D0CEB2031CC9
:10555000032503E0621E002C3BD0141C01335A1EAD
:1055600016702B42F6D1032C2BD9FF250D402A02B1
:1055700015432A0415430F2C15D9271C103F3F094A
:105580001E1C3A011036B6181A1C1560556095603D
:10559000D5601032B242F8D101373F010F22DB193A
:1055A0001440032C0DD9271FBF08BA001E1DB618C2
:1055B0001A1C20C2B242FCD10137BF000322DB1902
:1055C0001440002C05D01C19C9B219700133A34234
:1055D000FBD1F0BD141C031CC5E7C04670B5051C0B
:1055E0000020002A2CD02B1C0B439C0729D1032A16
:1055F00027D92C680E68B44223D1131F002B1FD06B
:10560000224EA219224EA24332420ED018E06A68FE
:1056100049688A422ED1043B002B10D01B4D5119F2
:10562000914331420BD1211C051C281D0C1D032B5D
:10563000EDD85A1E002B21D0211C051C02E00020B1
:1056400070BD013A2C78087884421BD1002AF6D02C
:10565000002CF4D06B1C0131AD1805E0AB42EED04C
:10566000002CECD0013301311C780A789442F5D03B
:10567000A01AE5E75A1E211C051CE3E72C790A79DC
:10568000A01ADDE7021CA01ADAE7C046FFFEFEFE04
:1056900080808080031C0B43F0B5041C9D0701D162
:1056A000032A15D8002A12D00D78013A631C4E1C2B
:1056B0002570002D1BD0311C07E00C7801335D1ED6
:1056C000013A2C700131002C11D0002AF5D1F0BD27
:1056D0000B4E0B680B4FDD199D433542E2D104346C
:1056E000251F043A04312B60032AF2D8DAE79C180C
:1056F0000021002AEBD019700133A342FBD1E6E769
:1057000080808080FFFEFEFE08B5034B002B02D098
:10571000024800F005F808BD000000003157000005
:1057200008B5011C00220020002300F019F808BD74
:1057300038B5094B094DED1AAD1009D0013DAC004B
:10574000E41800E0013D23689847043C002DF9D19E
:1057500001F0AAFA38BDC046B46C0000B86C000075
:10576000F0B54F464646C0B498462B4BA4251B685F
:105770006D005C5983B0061C0F1C91460193002CF0
:1057800044D065681F2D1ADD244B002B02D1012067
:1057900040421CE0C820400000E000BF041EF6D0DC
:1057A00000254560A42301985B00C0580199206042
:1057B000CC50C4235B00E550C6235B00E550002EAF
:1057C0000AD16B1C0235AD00636000202F5103B07D
:1057D0000CBC90469946F0BDAB00E31888224846C1
:1057E0009850C4204000221810680121A9400843A5
:1057F00010608422520040469850022EE1D1C62209
:105800005200A318186801431960DAE71C1C4D34D4
:10581000FF345C51B5E7C046906C0000000000000A
:1058200050696E6720544F21000000004465627586
:1058300067000000497244410000000050696E6733
:105840000000000053796E63000000000008004271
:10585000000C004200100042001400425969656CBF
:1058600064204953522100004E6F205969656C64D1
:1058700021204368616E67656420746F2050494E33
:105880004700000057726F6E672044617461210009
:10589000090A0B0C98140000B2140000CE1400008A
:1058A000EA1400003E150000061500002215000055
:1058B00054524143455F4153534552543A20765424
:1058C000726163654572726F723A206D7367203D35
:1058D0003D204E554C4C000054524143455F4153CE
:1058E000534552543A207654726163654572726F23
:1058F000723A205265636F726465724461746150DC
:105900007472203D3D204E554C4C00005472616332
:1059100065205265636F726465722044656D6F0027
:105920005472616365207374617274206D61726B6F
:1059300065727320616C726561647920696E697447
:1059400069616C697A6564210000000041747465C6
:105950006D707420746F20696E646578206F757443
:1059600073696465206576656E7420627566666528
:105970007221000054524143455F415353455254F4
:105980003A207569496E6465784F664F626A65634F
:10599000743A20496E76616C69642076616C756535
:1059A00020666F72206F626A656374636C617373E3
:1059B0000000000054524143455F41535345525447
:1059C0003A207569496E6465784F664F626A65630F
:1059D000743A20496E76616C69642076616C7565F5
:1059E00020666F72206F626A65637468616E646CB2
:1059F0006500000054524143455F415353455254A2
:105A00003A207854726163654765744F626A6563D2
:105A10007448616E646C653A20496E76616C6964A5
:105A20002076616C756520666F72206F626A6563AF
:105A300074636C617373000054524143455F41537A
:105A4000534552543A2076547261636546726565D7
:105A50004F626A65637448616E646C653A20496E92
:105A600076616C69642076616C756520666F722062
:105A70006F626A656374636C61737300545241436F
:105A8000455F4153534552543A20765472616365E1
:105A9000467265654F626A65637448616E646C65E1
:105AA0003A20496E76616C69642076616C75652078
:105AB000666F722068616E646C6500004174746585
:105AC0006D707420746F2066726565206D6F7265ED
:105AD0002068616E646C6573207468616E20616C0F
